:020000040800F2
:10000000A846002049010008C7470008BF43000870
:10001000C5470008311700080D5100080000000016
:10002000000000000000000000000000254900085A
:100030006319000800000000D9470008A94900081A
:100040006301000863010008630100086301000800
:1000500063010008630100086301000863010008F0
:1000600063010008630100086301000863010008E0
:100070006301000815190008630100082119000830
:100080002D190008630100086301000863010008DE
:1000900063010008630100086301000863010008B0
:1000A00063010008630100086301000863010008A0
:1000B00063010008294A0008630100086301000881
:1000C0006301000863010008630100086301000880
:1000D00063010008C1500008E1500008ED5000081D
:1000E0006301000863010008630100086301000860
:1000F0006301000863010008630100086301000850
:10010000630100086301000863010008630100083F
:10011000630100086301000863010008630100082F
:10012000630100086301000863010008630100081F
:10013000DFF810D001F058F80048004715BE00085D
:10014000AFF30080A84600200648804706480047D5
:10015000FEE7FEE7FEE7FEE7FEE7FEE7FEE7FEE777
:10016000FEE7FEE7274A000831010008202A04DBE9
:10017000203A21FA02F00021704721FA02F3D04020
:10018000C2F120029140084319467047A0F1410195
:10019000192900D82030704740EA01039B0703D09B
:1001A00009E008C9121F08C0042AFAD203E011F8B6
:1001B000013B00F8013B521EF9D27047D2B201E078
:1001C00000F8012B491EFBD270470022F6E710B55C
:1001D00013460A4604461946FFF7F0FF204610BDB5
:1001E00030B505462A460B4612F8010B13F8014BB1
:1001F00008B1A042F8D01CB1002802D06D1CF1E774
:10020000284630BDCAB2401E10F8011F8A4202D0F3
:100210000029F9D100207047421C10F8011B002969
:10022000FBD1801A704710B5002200E0521C835C9D
:100230008C5CA34201D1002BF8D1D8B2E1B2401AB4
:1002400010BD30B504460020034600E05B1C93421D
:1002500003D2E05CCD5C401BF8D030BD034611F802
:10026000012B00F8012B002AF9D11846704730B550
:1002700005460020034600E05B1C934205D2EC5C7F
:10028000C85C201A01D1002CF6D130BD30B5034630
:100290001D783DB10A4612F8014B1CB1AC42FAD1AF
:1002A0005B1CF5E7181A30BD30B50546002008E0A4
:1002B0000A4602E0A34207D0521C1378002BF9D162
:1002C000401C2C5C002CF3D130BD00000FB400B5F5
:1002D0008DB010A909900B9000914FF0FF300A905B
:1002E00000200C9005480690054807906A4609A82A
:1002F0000F9900F047FD0DB05DF814FBA10D00084B
:10030000BF0D00082DE9FF5F1D464FF0FF3BD5E90B
:10031000014691465F464FF00008A9697F1C01988D
:100320008847296A824688470028F6D1BAF1FF3FFC
:100330000CD024F4C064002E19DD600614D5BAF187
:100340002B0F09D0BAF12D0F0ED103E0584604B09F
:10035000BDE8F09F44F48064A9697F1C0198884738
:10036000761E8246002E02DDBAF1300F03D0B9F1BD
:10037000000F26D032E0A969761E44F400747F1C79
:10038000019888478246002E05DDBAF1780F06D025
:10039000BAF1580F03D0B9F1000F10D01EE0B9F137
:1003A000000F02D0B9F1100F18D1A969761E24F4FC
:1003B00000747F1C019888478246102002E00820C4
:1003C00000E00A20814609E008FB0908A969761EB9
:1003D00044F400747F1C019888478246002E05DD96
:1003E0004946504600F0BAFC0028EDDAE969019868
:1003F0008847A00502D46FF00100A8E7E00725D1E7
:10040000600613D5600502D5C8F1000000E0404643
:1004100029680A1D2A600968220501D5087015E0BF
:10042000220701D5088011E008600FE02868011D4F
:1004300029600068210502D580F8008006E02107C8
:1004400002D5A0F8008001E0C0F8008038467EE7C1
:100450002DE9FF5FD2E901A74FF0000891699946A5
:100460001446DDF838B0464601988847054659EAF3
:100470000B0005D009E0A169761C01988847054664
:10048000216A284688470028F5D1681C03D05FEA16
:10049000CA7005D015E04FF0FF3004B0BDE8F09F02
:1004A0002068011D2160D0F800800AE05FEACA7070
:1004B00001D108F8015BA169761C7F1E019888476D
:1004C0000546002F1ADD681C18D0B9F1000F0DD0B9
:1004D000E81705EBD060421120F01F0059F82210F8
:1004E0002A1A012090400142E0D107E0BBF1000F41
:1004F000DCD1216A284688470028D7D0E1690198D5
:100500008847BBF1000F07D1002E05DD5FEACA70F6
:1005100002D1002188F80010A068B84203DDBBF1C9
:10052000000F03D017B16FF00100B6E73046B4E713
:100530002DE9FF4F087883B09946FF2805D0491C64
:100540002D2804D00024002008E000200BE0012426
:10055000F9E700EB800003EB4000491C0B78FF2B10
:10056000F7D104B1404200230293147819461D4686
:100570002D2C01D02B2C04D1521C2D2C13D0002457
:100580000294AA461478FF2C0FD00A25A3FB057805
:1005900001FB05814FF0000C03FB0C11521CE31909
:1005A0004AEB0101EEE70124EAE7814453EA010046
:1005B00002D019F5C87F06DA03980021C0E90011BE
:1005C00007B0BDE8F08F0025AE4E2F46DFF8B882A9
:1005D000184600F0C8FDCDE90001B9F1000002DACB
:1005E000C9F1000400E004460023A74A1AEB030BFC
:1005F00042EB045A12E0E00707D02A463346384659
:10060000414600F0CFFC074688462A46334610464E
:10061000194600F0C7FC05460E466410002CEAD1CE
:10062000DDE90001B9F1000F5A46534606DA00F041
:100630002BFD3A46434600F027FD05E000F0B2FCF2
:100640003A46434600F0AEFC029A0AB181F00041FE
:10065000039AC2E90001B3E72DE9FF4F1F468DB0B1
:10066000D7E901464FF0FF382E2045464FF00009EC
:100670000B90B9696D1C0E988847396A8246884785
:100680000028F6D1BAF1FF3F0AD024F4D064002E3E
:1006900011DDBAF12B0F08D0BAF12D0F0BD102E00A
:1006A000404611B08DE744F48064B9696D1C0E9822
:1006B00088478246761E6946600501D52D2000E0F8
:1006C0002B208DF8000001F1010B0DF1200809E04D
:1006D000B9696D1C0E98884782460F9844F40074DF
:1006E000761E0560002E02DDBAF1300FF0D00B99B6
:1006F0008A453ED144F0800406E00F99681CA9F1B8
:10070000010944F400740860B9696D1C761E0E98E6
:10071000884782463028F0D02BE00B998A4505D1D6
:10072000200603D444F08004761E18E0504604F0FE
:100730002BFF08B30DF11301761E44F400748B45B2
:1007400008D2AAF130000BF8010B200607D5A9F159
:10075000010003E0200602D409F101008146A00552
:1007600002D50F99681C0860B9696D1C0E988847FE
:100770008246002ED1DC53E0002E51DDBAF1650F28
:1007800002D0BAF1450F4BD1A00549D5B9696D1C0E
:1007900024F44074761E0E9888478246002E0CDDA5
:1007A0002B2804D0BAF12D0F07D144F48074B96915
:1007B0006D1C0E9888478246761EE00501D52D21D6
:1007C00000E02B2108F8011BCDF82C8021E00DF171
:1007D0002901761E44F4007488450CD2AAF1300039
:1007E00010F0FF0088F8000002D10B99884509D964
:1007F00008F1010806E0E00501D5244801E042F2D5
:100800000F708146B9696D1C0E98884782460F9813
:100810000560002E04DD504604F0B6FE0028D6D157
:10082000F9690E988847FF208BF8000088F80000CF
:100830000020069007904B466A4608A906A8FFF7D5
:1008400077FEA00502D46FF001002AE714F0240F10
:100850000AD0E00714D1DDE906123868031D3B60B9
:100860000068C0E900120BE0DDE9060100F09FFC22
:100870000146E00704D13868021D3A600068016053
:1008800028460EE7000014400000F03FF1D8FFFFBB
:10089000F0B480EA0102D40F4200B2EB410F02D261
:1008A0000246084611464A0042D0C30DDDB2C1F3EC
:1008B000C752AD1A202D35DAC1F3160141F40002FA
:1008C00004B15242C5F1200602FA06F12A41104451
:1008D000B3EBD05F23D0C4B1012DA0EBC35009DC32
:1008E000F0BC4FF0004202EAC352DBB200F5000058
:1008F00000F0CDBA400000F1807000EBC350A0F1D1
:10090000807040EAD170490009E0490841EAC071AD
:10091000A0EBC35000F50000400800EBC350F0BC52
:1009200000F0ACBA6142012202EB4101001BF6E784
:10093000F0BC704781F00041AAE780F00040A7E7D3
:1009400080EA010210B502F00043400022D04A00C4
:100950001FD0010E01EB1261C0F35600C2F3560224
:1009600040F4000042F40002A0FB022000047F39A2
:10097000140400D0401C50EA124001D44000491E2B
:10098000C2B20C0604EBD010401C4008802A02D0F2
:1009900003E0002010BD20F00100002900DA002053
:1009A000184310BD30B480EA010202F0004530F077
:1009B000004221F0004013D090B1C30DD40DC2F31A
:1009C0001601C0F31600E41A41F4000140F40002DD
:1009D0007D34914201D3641C00E04900002C02DA0E
:1009E00030BC002070474FF400000023914201D337
:1009F000891A034340084FEA4101F7D151B19142AE
:100A000002D14FF0004105E002D24FF0010101E0B8
:100A10006FF0010103EBC450284430BC00F02EBA43
:100A20002DE9FE4F804681EA0300C00F0C4600907E
:100A300021F0004123F00045B8EB0200A94105D2A6
:100A40004046214690461C460B46024623F0004095
:100A5000104347D0270DC7F30A00C3F30A51029091
:100A6000401A019040286BDAC3F3130040F4801B56
:100A70000098924620B10023D2EB030A63EB0B0BE4
:100A800001985946C0F14002504600F046F906462A
:100A90000D4650465946019A00F04EF910EB0800F9
:100AA0006141002487EA115284EAE7731A4340D077
:100AB000009A62B3019A012A4FEA075215DC001B23
:100AC00061EB02014FF0004202EA0752CDE9004219
:100AD000001C41F5801132462B4600F015FA03B098
:100AE000BDE8F08F40462146F9E7001B61EB0201AB
:100AF000001C41F5801300185B412018A2F5001777
:100B000047EB030140EAD570B6196D4111E06D085D
:100B10004FEA360645EAC0754FEA0752001B61EB03
:100B20000201001C41F5801149084FEA300000190C
:100B3000514132462B4603B0BDE8F04F00F0D5B925
:100B40000098012240000023D0EB020263EBE07327
:100B5000009821464FEAE074B8EB000061EB040115
:100B6000E9E783F000435BE781F0004158E770B5A7
:100B700021F0004303430CD0C1F30A550024D5EB08
:100B8000040564EB0403D617AD1AB34102DB002061
:100B9000014670BD201841EB025170BD9623002222
:100BA000114600F074B90EB5C10F80EAE070084438
:100BB000CA07002140F233438DE80E000A460B4677
:100BC00000F0A2F903B000BD70B5C1F30A5201F004
:100BD00000450024C1F3130140F2FF3341F48011BA
:100BE0009A4201DA002070BD40F233439A42A2F2E9
:100BF000334203DC5242FFF7B9FA00E090402C4345
:100C0000F1D0404270BD00F0004230F000400AD008
:100C1000C10D01F56071C0F3160042EA0151C2082E
:100C200040071143704700200146704730B5041E4D
:100C300071F1000404DB4FF00044404264EB010119
:100C4000141E73F1000405DB1C464FF000435242B2
:100C500063EB04038B4208BF824230BD30B5041EF3
:100C600071F1000404DB4FF00044404264EB0101E9
:100C7000141E73F1000405DB1C464FF00043524282
:100C800063EB0403994208BF904230BD30B50B4678
:100C9000014600202022012409E021FA02F59D42AC
:100CA00005D303FA02F5491B04FA02F52844151E80
:100CB000A2F10102F1DC30BD2DE9F05F0546002014
:100CC00092469B4688460646814640241BE02846BD
:100CD000414647462246FFF749FA53465A46C01A4C
:100CE000914110D311461846224600F016F82D1AED
:100CF00067EB01084F4622460120002100F00DF865
:100D000017EB00094E41201EA4F10104DFDC484628
:100D100031462A464346BDE8F09F202A04DB203AAC
:100D200000FA02F1002070479140C2F1200320FA3E
:100D300003F3194390407047202A06DBCB17203A73
:100D400041FA02F043EAE07306E041FA02F3D040D0
:100D5000C2F1200291400843194670473A2800D258
:100D6000303820F02002412A01D3A2F13700884216
:100D700001D34FF0FF3070470268114413780160CF
:100D800018467047D160044951610449116200213D
:100D90001161114600F040BA790D00080D120008EB
:100DA000426842B1016811F8013B23B1521EC0E90B
:100DB0000012184670470121C160881E70474268C2
:100DC0005AB1C368016843B983688B4205D0491E94
:100DD000521CC0E90012002070474FF0FF307047EE
:100DE0000FB4002300B589B00CA900910B996FF0E6
:100DF0000042CB601E4B06931E4B07930423CDE9A4
:100E000001321D4A089202466B460020FFF724FC7F
:100E100009B05DF814FB70B586B006464FF0FF30A0
:100E20000091CDE90101002015460C4604903246A0
:100E3000694604A8FFF7D4FF02460498211825B19B
:100E400008B1084600E020462860049800280DD02C
:100E5000002A02DD0098884208D0081B0094CDE9E2
:100E600001043246694604A8FFF7BAFF06B070BD18
:100E7000A10D0008BF0D00080D1200080029A8BF31
:100E80007047401C490008BF20F00100704710B4B3
:100E9000B0FA80FC00FA0CF050EA010404BF10BC68
:100EA000704749B1CCF1200421FA04F411FA0CF195
:100EB00018BF012121430843A3EB0C01CB1D4FEACE
:100EC00000614FEA102042BF002010BC704700EBC9
:100ED000C35010440029A4BF10BC7047401C4900F7
:100EE00008BF20F0010010BC704710B5141E73F14C
:100EF000000408DA401C41F1000192185B411A43DA
:100F000001D120F0010010BD2DE9F04D92469B4625
:100F100011B1B1FA81F202E0B0FA80F220329046CB
:100F2000FFF7FBFE04460F4640EA0A0041EA0B01C8
:100F300053465A46084313D0114653EA010019D0CC
:100F4000C8F140025046FFF711F905460E465046DB
:100F500059464246FFF7E1FE084305D0012004E070
:100F600020463946BDE8F08D0020054346EAE0768C
:100F70002C4337430A986305E40AA0EB08000022DB
:100F8000FD0A44EA47540A3002D500200146E9E749
:100F9000010510196941DDE9084500196941BDE8FD
:100FA000F04DA2E72DE9FE4F81EA030404F000446E
:100FB00021F0004100944FF0000B23F0004350EA71
:100FC00001045ED052EA03045BD0C3F30A54C1F3B8
:100FD0000A552C44A4F2F3340194A0FB0254C1F34B
:100FE000130141F48011C3F3130343F4801301FB95
:100FF000024400FB034E840A970A44EA815447EAFC
:101000008357A4FB076802958D0A05FB07854FEA05
:10101000932C04FB0C542705029D4FEA065847EA1F
:101020001637B5EB08056EEB070C870E920E47EAF4
:10103000811742EA8312A7FB0201B6EB0B0164EBB6
:1010400000042B0D43EA0C335E1844EB1C50DA46C7
:101050005146E7FB0201C5F313044FEA0B3343EAA1
:1010600014534FEA0432019C43EA0603A4F10C0432
:101070000294009CCDE900B4FFF746FF03B0BDE841
:10108000F08F00200146F9E72DE9F04D81EA0304D5
:1010900004F0004B21F0004514464FF0000A23F005
:1010A000004150EA050220D054EA01021DD0C5F3E8
:1010B0000A570246C5F31303C1F31300C1F30A56DE
:1010C00040F4801543F48013A7EB0608101BD646A6
:1010D00008F2FD3873EB050002D308F1010801E0C6
:1010E00092185B41B8F1000F03DA00200146BDE819
:1010F000F08D00204FF48011064684460EE0171B49
:1011000073EB050705D3121B63EB050306434CEA9B
:10111000010C49084FEA300092185B4150EA010780
:10112000EDD152EA030012D082EA040083EA0501FD
:10113000084305D0101BAB4106D20122002306E074
:1011400000224FF0004302E06FF0010253101AEB4F
:1011500006004CEB085110EB0A0041EB0B01BDE817
:10116000F04DFFF7C2BE0EB540F2334202920022AC
:10117000CDE900221346FFF7C7FE03B000BDC1F35F
:101180000A52C1F3130140F2FF3341F480119A4235
:1011900002DA00200146704740F233439A42A2F23D
:1011A000334202DC5242FEF7E1BFFFF7B6BD01F069
:1011B000004330B421F0004150EA010206D00A0D8C
:1011C000A2F56072C1F31301002A02DC30BC0020DA
:1011D0007047440F44EAC104C100E01830BC00EB82
:1011E000C250FFF74BBE0000064C074D06E0E0681A
:1011F00040F0010394E8070098471034AC42F6D35E
:10120000FEF79AFF0820010828200108C0B24FF419
:10121000F05100F099B900002DE9F34F8BB04FF079
:10122000000801F10C000C464FF0010B46460DF191
:10123000080A01906269012101989047051E2DD08E
:10124000252D2CD0216A8847C0B1626901210198FF
:101250009047216A88470028F7D1411E62690198AA
:10126000904700E0761CA1690B988847216A88475F
:101270000028F7D1E1690B988847DBE7A1690B9853
:1012800088470746A84201D1761CD3E7E1690B984D
:1012900088477F1C02D1B8F1000F6FD047E10027CB
:1012A00062693D463946019890472A2804D162690F
:1012B0000121019890470125DFF888926269012198
:1012C00001989047A0F130010A290AD24F45E5DC88
:1012D00007EB870100EB4107303FDFD445F01005F5
:1012E000ECE7E90601D46FF000476C280AD04C28DF
:1012F00014D0682815D06A280DD074281CD07A28FC
:101300001AD01DE062690121019890476C2802D033
:1013100045F0040514E045F002050DE045F0200518
:101320000AE06269012101989047682802D045F0DF
:10133000080505E045F400656269012101989047C0
:10134000C4E9015765283DD019DC58287AD00CDC57
:10135000452837D004DC252826D0412831D131E07A
:1013600046282FD047282CD12CE05B2877D0612845
:1013700028D063287CD0642823D15AE0D1E06F289C
:1013800048D008DC66281DD067281BD0692821D0EA
:101390006E2816D127E0702845D0732868D07528AC
:1013A00047D078280DD14DE0A1690B9888470546B4
:1013B00025283FF469AFE1690B9888476D1C3FF41D
:1013C0006AAFB4E023466A466FF001000B99FFF75D
:1013D00043F99FE045F040006060A80723464FF0C6
:1013E000000236D43EE0E8077FF447AF2068011DD5
:1013F00021600068290501D506701BE7290701D582
:10140000068017E7A90703D5F117C0E9006111E7C6
:1014100006600FE745F040006060A80723464FF0E4
:10142000080216D41EE040F60E0125EA01006060B5
:1014300016E045F040006060A80723464FF00A021E
:1014400007D40FE045F040006060A80708D52346A8
:1014500010226FF001000B99AFF300805AE007E013
:10146000234610226FF001000B99FEF74BFF51E06D
:101470004FF000094F464B46632802D05B2807D047
:1014800041E02079C00601D40120A06001273AE0A4
:1014900062690121019890475E2805D14FF001094A
:1014A0006269494601989047216939B900210A4685
:1014B000534643F82120491C0829FADBB0B32169BF
:1014C00069B9C11700EBD16253110AEB830122F015
:1014D0001F02821A01200B68904003430B6062696F
:1014E0000121019890475D28E8D1B9F1000F09D09A
:1014F0000020514651F82020D24341F82020401CC2
:101500000828F7DB02AB224600976FF001000B9929
:10151000FEF79EFF00280CDA401C08D1BBF1000F3B
:1015200005D04FF0FF300DB0BDE8F08FFFE740462B
:10153000F9E7E90701D108F1010806444FF0000B73
:1015400078E60000CCCCCC0C7F2801D9002208E042
:10155000064A02EB5002C007127800D1120902F0CD
:101560000F02012090400840704700000C1E010847
:1015700070B58C1810F8015B15F0070301D110F855
:10158000013B2A1106D110F8012B03E010F8016B82
:1015900001F8016B5B1EF9D12B0705D40023521E05
:1015A0000DD401F8013BFAE710F8013BCB1A921C6D
:1015B00003E013F8015B01F8015B521EF9D5A1426B
:1015C000D8D3002070BD000070B504460068816863
:1015D000C943C90717D1816821F00101816001F079
:1015E000F3F905460AE000BF01F0EEF9401B0228BE
:1015F00004D920688068C043C00706D0206880688E
:10160000C043C007F0D0002070BDA06A40F01000B9
:10161000A062E06A40F00100E062012070BD0000BD
:10162000F8B500260446009600688168C943C907DA
:101630002DD0816841F0010181601648164900688B
:10164000B0FBF1F000E0401E00900028FBD101F05B
:10165000BBF9054616E000BF01F0B6F9401B0228B1
:1016600010D920688068C043C0070BD0A06A40F042
:101670001000A062E06A40F00100E06284F824609B
:101680000120F8BD20688068C043C007E4D1002075
:10169000F8BD00001000002040420F00FEB50E46CD
:1016A000002501210722052819D006DC05281DD2B6
:1016B000DFE800F010121417190008280FD004DC1E
:1016C00006280CD0072811D10FE0092807D0FF28E1
:1016D0000CD113E0002002E0009107E0022000900E
:1016E00004E00320FBE70420F9E70092CDE90112B2
:1016F00069460E4800F02EFA002411E01020EEE7B3
:101700000A4800F003FC1E21084800F061FB07486E
:1017100000F09EFA0544054800F058FC641CE4B251
:10172000B442EDD3B5FBF6F0FEBD00008C06002000
:10173000FEE700002DE9F8430F46804600254FF4F0
:10174000106606221F493046009503F00DFD1D4C22
:1017500020786178E2780843A17811430843217921
:101760000843617908430CD1257008206070DC20A3
:10177000A070E5702571657106222146304603F0A0
:101780005DFD104E1049403E86F80280F763E07818
:10179000421821798B18627948401344504018440C
:1017A000B063042269464FF4706003F047FD0422E1
:1017B0006946900103F042FD0CF080FF3570BDE8F2
:1017C000F8830000D8000020785634122DE9F0414B
:1017D000464C2078062822D0A0784FF4427101EBC5
:1017E000401003F095FC222805D00023442202215A
:1017F000A0780DF06FFB01250BF03CFEC2B23B4818
:1018000094F90030C01D00260127011F4FF0030886
:10181000052B2FD2DFE803F0060D1C304A0005200F
:10182000BDE8F081067046708670C6700DF05EF8F7
:101830005AE0022A1BD1E16B0A7C02704A7C42709A
:101840008A7C8270C97CC1700DF03CF902202BE0CB
:10185000052A0AD105F0B8FB08B1606A3CE00CF03B
:101860002DFFE06A8047267004E0062A3AD005F092
:10187000DFFB05462846D3E7A2690425531CF9D0AF
:10188000E369B3EB520FF5D902780A7042784A70D7
:1018900082788A70C078C870A06B401CA0630DF07D
:1018A00011F90CF00BFF04202070E3E70425052A52
:1018B000DBD166700A7803789A420BD14A78437874
:1018C0009A4207D18A7883789A4203D1C978C0783E
:1018D000814202D0A06A032580470CF0EFFE84F815
:1018E0000080C7E70CF0EAFE2770C3E798000020ED
:1018F00010B5034CA07805F0D3FB0620207010BD76
:10190000980000200248C169491CC161704700006D
:1019100098000020014800F0F3BC0000840900207A
:10192000014800F0EDBC0000FC080020014800F078
:10193000E7BC00004009002030B590F84050012479
:10194000AC40C56B6C60046863604368102B03682F
:1019500003D099600068C26030BD9A600068C160C1
:1019600030BD704772B6FEE706490020C8610648E0
:10197000016941F004010161016941F04001016127
:1019800070470000C809002000200240064A0021DC
:10199000D16106490A6942F002020A614861086998
:1019A00040F0400008617047C80900200020024054
:1019B000044B0022DA61044A136943F00103136106
:1019C00001807047C809002000200240144800220E
:1019D000C168CB06134904D5CA6942F00202CA6144
:1019E0001022C3685B0705D5CB6943F00103CB61C7
:1019F00042F00402C369DB0707D0CB6943F004035C
:101A0000CB61C16921F00101C161A2F58071013989
:101A100001D0C2607047C16921F00101C161704706
:101A200000200240C809002070B5054600F0CCFF38
:101A30000646114C09E0681C07D025B100F0C4FF30
:101A4000801BA84201D9032070BDE068C007F2D115
:101A5000E068800601D52020E060E068C00605D47B
:101A6000E069C00702D1E068400703D5FFF7AEFF89
:101A7000012070BD002070BD00200240F8B5002597
:101A80000446009590F8240001280BD0012084F82A
:101A900024002046FFF798FD2046FFF7C1FD060011
:101AA00002D050E00220F8BDA06A20F4885040F037
:101AB0000200A062022001F037F825490968B1FB55
:101AC000F0F0400000E0401E00900028FBD12068AC
:101AD000816841F00801816000F076FF074608E068
:101AE00000F072FFC01B0A2803D920688068000735
:101AF00015D4206880680007F2D42068816841F01E
:101B00000401816000F060FF074612E000F05CFF16
:101B1000C01B0A280DD920688068400709D5A06A33
:101B200020F0020040F01000A06284F82450012050
:101B3000F8BD206880684007E8D4A06A20F0020061
:101B400040F00100A06284F824503046F8BD000047
:101B500010000020F8B50024009490F824202546B9
:101B6000012A12D0012280F824204A681F23072A64
:101B70000DD20668776B521E02EB820293409F43A0
:101B80000B6893401F43776319E00220F8BD066895
:101B90000D2A0AD2376BD21F02EB820293409F4379
:101BA0000B6893401F43376309E0F76A0D3A02EB75
:101BB000820293409F430B6893401F43F7620A6879
:101BC000072306680A2A0AD3F7680A3A02EB420298
:101BD00093409F438B6893401F43F76008E0376949
:101BE00002EB420293409F438B6893401F4337614F
:101BF0000A68102A01D0112A20D1124B02689A4299
:101C000017D193681B0219D4936843F400039360BF
:101C10000968102912D10C490C4A0968B1FBF2F18C
:101C200001EB8101490000E0491E00910029FBD130
:101C300004E0816A41F020018162012480F824508F
:101C40002046F8BD002401401000002040420F0053
:101C50000068C06C704700002DE9F04104004FF0AF
:101C600000057FD0A06A002628B9E66284F82460C7
:101C7000204600F081F82046FFF7A6FCA16AC906BD
:101C800000D420B1A06A40F01000A0626AE0A16A0E
:101C900021F4885141F00201A162334923688B424B
:101CA000E16904D1B1F5402F01D14FF40021277B28
:101CB0004FF4807C41EA470261680A43A1686145AC
:101CC00008D0012906D0002194F814E0BEF1010FDC
:101CD00002D00AE06146F7E7C7B1A76A47F02007DC
:101CE000A762E76A47F00107E7625F6827F4694780
:101CF0000F435F60236899681C4F39401143996016
:101D0000A16861450BD0012909D00CE0DFF860E043
:101D1000A7690EEB47370F4347F40061E5E7218AD7
:101D20000D05A5F580152168CB6A23F470032B43BC
:101D3000CB62216889680F4B1940914208D1E66255
:101D4000A16A21F0020141F00101A162BDE8F08128
:101D5000A06A20F0020040F01000A062E06A40F0AB
:101D60000100E0620120F1E7003C0140FDF7E1FFE6
:101D700000E0FFFFFE0E1FFF00B585B000210091BF
:101D800001910291039100680E49884217D10E48D3
:101D9000816941F400718161816901F400710491EC
:101DA000816941F0040181618069694600F00400A5
:101DB0000490032000900190044800F0FFFC05B05F
:101DC00000BD000000240140001002400008014056
:101DD0002DE9F84300270D460446009700F0F4FD76
:101DE000804620688168C90508D5A06A40F02000B7
:101DF000A06284F824700120BDE8F8834168C90519
:101E000003D4C06A10F4700F2AD0022000F08CFEB8
:101E10003B490968B1FBF0F62068036939490B4278
:101E20004FEA61014FEAA1121FD1C3684FEA611C5A
:101E300013EA0C0F19D103690B4225D1C068104277
:101E400022D1142023E0681C0AD02DB100F0BCFD83
:101E5000A0EB0800A84203D920680068800725D5B8
:101E6000206800688007EED52DE003690B4202D19F
:101E7000C168114206D0026923490A4206D1C068EE
:101E8000084203D1542002E0292000E0FC20464310
:101E9000009816E0681C11D02DB100F095FDA0EB64
:101EA0000800A8420AD90098B04207D2A06A40F0C0
:101EB0000400A06284F8247003209DE70098401C71
:101EC0000090B042E6D321686FF012000860A06A6B
:101ED00040F40070A06220688068C0F34240072888
:101EE0000CD1207B50B9A06A20F48070A062A06A57
:101EF000C00403D4A06A40F00100A06200207BE788
:101F000010000020244992244992240070B5044610
:101F100090F8240001280DD0012084F824002046E8
:101F2000FFF77EFB02004FF0000005D084F824008C
:101F3000104670BD022070BDA16A40F20123994392
:101F400041F48071A1621F4D23681F49AB4218D133
:101F50000E6816F4702F14D0A66A46F48016A66296
:101F60000E68760505D5A66A26F4005646F4805616
:101F7000A662A66AF6040AD5E66A26F00606E662B6
:101F800006E0A66A26F48016A6625E68E9E7E062CB
:101F900084F824006FF00200186020688368C3F39F
:101FA0004243072B05D1A84208D1096811F4702FCC
:101FB00004D0816841F480118160B9E7816841F4FF
:101FC000A001F9E7002801400424014010B50446AF
:101FD00090F82400012807D0012084F8240020462E
:101FE000FFF7F2FA10B107E0022010BDA16A21F458
:101FF000885141F00101A162002184F8241010BD34
:1020000070B5040003D094F8200010B104E0012062
:1020100070BD204600F082F82068016841F001019F
:10202000016000F0D1FC0546052604E000F0CCFC80
:10203000401B0A2811D820684068C007F6D02068E5
:10204000016821F00201016000F0BEFC05460BE0D2
:1020500000F0BAFC401B0A2806D9606A40F4003040
:10206000606284F82060D2E7206840688007EFD47F
:10207000207E0128206801683DD021F080010160A8
:10208000607E01282068016838D021F0400101609D
:10209000A07E01282068016833D021F02001016072
:1020A000E07E0128206801682ED041F01001016017
:1020B000207F01282068016829D021F008010160F3
:1020C000607F01282068016824D021F004010160AC
:1020D000D4E902010843D4E90412114308436168BA
:1020E000491E08432168C86100206062012084F80D
:1020F0002000002070BD41F08001C0E741F04001A8
:10210000C5E741F02001CAE721F01001CFE741F017
:102110000801D4E741F00401D9E7000010B586B00A
:1021200000210091019102910391006813498842B6
:1021300022D11348C16941F00071C161C16901F048
:1021400000710491816941F00401816180690D4C45
:1021500000F0040004904FF40060009069462046AF
:1021600000F02CFBA01400900220019003200390AB
:102170006946204600F022FB06B010BD0064004016
:10218000001002400008014010B590F82110002214
:10219000022905D00421816380F82020012010BD90
:1021A00001680B6823F00E030B6001680B6823F0D5
:1021B00001030B6090F84030C46B012101FA03F376
:1021C000636080F8211080F82020104610BD0000C8
:1021D0002DE9F05F90F821100024022903D004219A
:1021E0008163012485E001680A6822F00E020A601A
:1021F00001680A6822F001020A603F4E3E4FB215A4
:10220000DFF8F4C0DFF8F090DFF8ECA0DFF8E8B01A
:10221000DFF8E4E00168783F13011502ACF1640CCB
:10222000A9F15009AAF13C0AABF1280BAEF1140E4A
:102230004FF48018B14227D9B9420ED0614512D06F
:1022400049451DD0514518D0594518D0714501D187
:10225000424615E0294EB14201D1012210E0274E3D
:102260001436B14201D110220AE0244E2836B14280
:1022700006D0224A3C32914201D11A4600E02A4659
:102280001E49091F0A602BE0B94213D0614517D0DF
:10229000494522D051451DD059451DD0714501D128
:1022A00042461AE0B14202D14FF0807215E0134E5F
:1022B000B14201D1012210E0104E1436B14201D1D9
:1022C00010220AE00D4E2836B14206D00B4A3C32AD
:1022D000914201D11A4600E02A46074980394A60F6
:1022E000012180F82110002180F82010416B01B1FC
:1022F00088472046BDE8F09F800002400804024065
:102300002DE9F05FC16B0A6801680B68046C4FF03F
:10231000040808FA04F8844D844E854FDFF814C28F
:10232000DFF81492DFF814A2DFF814B2DFF814E239
:1023300018EA020F65D05FEA437862D50A68920610
:1023400003D40A6822F004020A60DFF8F0814FF437
:102350008062016808F1140813011402414524D970
:10236000A9420DD0B1420FD0B9421AD0614515D063
:10237000494515D0514501D1120312E0594501D10B
:1023800004220EE0714501D140220AE06D4D143562
:10239000A94206D06B4A2832914201D11A4600E088
:1023A00022466749091F0A6029E0A94213D0B142B9
:1023B00015D0B94220D061451BD049451BD05145AD
:1023C00002D14FF4800217E0414502D14FF0806204
:1023D00012E0594501D104220EE0714501D140229D
:1023E0000AE0584D1435A94206D0564A2832914287
:1023F00001D11A4600E022464B4908394A60C16AB9
:1024000071E04FF0020808FA04F818EA020F70D0E1
:102410005FEA83786DD50A68920606D40A6822F0CE
:102420000A020A60012180F82110DFF810814FF4C0
:102430000072016808F1140813011402414524D9FF
:10244000A9420DD0B1420FD0B9421AD0614515D082
:10245000494515D0514501D1120312E0594501D12A
:1024600002220EE0714501D120220AE0354D1435DB
:10247000A94206D0334A2832914201D11A4600E0DF
:1024800022462F49091F0A6029E0A94213D0B14210
:1024900015D0B94220D061451BD049451BD05145CC
:1024A00002D14FF4001217E0414502D14FF0007203
:1024B00012E0594501D102220EE0714501D12022DE
:1024C0000AE0204D1435A94206D01E4A2832914216
:1024D00001D11A4600E02246134908394A6000211A
:1024E00080F82010816A00291CD0BDE8F05F084701
:1024F000FFE70825A540154214D01A0712D50A682F
:1025000022F00E020A6090F84020C36B012101FA0C
:1025100002F25A60816380F82110002180F82010B7
:10252000016BE0E7BDE8F09F080002401C0002409C
:102530003000024044000240580002406C0002405B
:10254000080402401C04024030B560B11A4B026816
:1025500014219A4209D2194B1344B3FBF1F18900BB
:10256000016417490AE0012030BD134B5B4213445C
:10257000B3FBF1F1890001640F490839C1630221FD
:1025800080F82110136843F6F0718B43F0E90114D1
:102590002143D0E902452C43214304692143446986
:1025A00021438469214319431160002141630122C1
:1025B00042770177084630BD08040240F8FFFDBFAE
:1025C0000000024070B5044690F820000025012864
:1025D0000CD0012084F8200094F821600020012E06
:1025E00006D084F820000225284670BD022070BD68
:1025F000022684F82160A0632068066826F00106A0
:1026000006602046FFF798F9E06A00282068016814
:1026100002D041F00E0106E021F0040101602068C3
:10262000016841F00A0101602068016841F0010180
:102630000160D9E770B5044600F0C6F90546601C94
:1026400002D004480078044400F0BEF9401BA042C8
:10265000FAD370BD040000202DE9F0470546264856
:102660000F460126017E01290FD001218146017606
:102670002868DFF888804CF25034022808D0A2463F
:102680002046FFF7D1F9A8B131E00220BDE8F0877C
:102690002046FFF7C9F908BB0120FFF765F920467E
:1026A000FFF7C2F9D8F81010064621F00401C8F867
:1026B00010101CE04FF0FF303860AC6811E020468D
:1026C000FFF764F95046FFF7AFF9D8F8101006008D
:1026D00021F00201C8F8101001D03C6007E004F5B9
:1026E0000064D5E9020100EBC120A042E7D8002137
:1026F00089F818103046C9E7C809002000200240B8
:102700000348016941F08001016100207047000029
:10271000002002402DE9F05F07461C48884600244F
:10272000017E15461E46012909D001218146017608
:102730004CF2503A5046FFF777F918B122E00220E8
:10274000BDE8F09F012F02D0022F00D00427D3460E
:10275000DFF83CA0220128463146FDF707FD81B293
:1027600008EB4400FFF724F95846FFF75DF9DAF863
:10277000102022F00102CAF8102018B9641CE4B23B
:10278000BC42E7D3002289F81820D9E7C809002005
:1027900000200240064900200A69120607D5054AB2
:1027A0004A60054A4A600969090600D50120704758
:1027B0000020024023016745AB89EFCD2DE9F84F9A
:1027C000DFF8C8910024A9F1040B23460F2709F173
:1027D000040AABF1040ED1E00125A54006EA05028A
:1027E000AA4276D1DFF8A8C14E68A6EB0C08664570
:1027F0002BD00DDC032E34D005DC36B3012E19D0DE
:10280000022E2FD11BE0112E16D0122E2AD119E044
:10281000B8F5881F19D006DCB8F5803F15D0B8F59B
:10282000801F1FD111E0B8F5001F0ED0B8F5041FAE
:1028300018D10AE0CB6815E0CB681B1D12E0CB680D
:1028400008330FE0CB680C330CE08B682BB1012B05
:102850004FF0080303D0456104E0042302E0056162
:1028600000E00023FF2A01D8064601E000F104063B
:102870004FEA840501D9A5F12005D6F8008007FAB2
:1028800005FC28EA0C0803FA05F548EA0508C6F82D
:1028900000804D68ED0070D53E4DAE6946F00106F2
:1028A000AE61AD6924F0030605F0010500953A4DCF
:1028B00006EB050CDCF80850A607360F07FA06F8F9
:1028C00025EA0805DFF8D480404503D14FF0000821
:1028D00025E052E0DFF8C880404502D14FF0010802
:1028E0001DE0DFF8C080404502D14FF0020816E03D
:1028F000DFF8B480404502D14FF003080FE0DFF865
:10290000AC80404502D14FF0040808E0DFF8A08019
:10291000404502D14FF0050801E04FF0060808FAE3
:1029200006F848EA0508CCF808804D68D9F8006038
:10293000ED024D4601D5164300E096432E604D68EA
:10294000DAF80060AD02554601D5164300E0964323
:102950002E604D68DBF80060AD035D4601D516437F
:1029600000E096432E604D68DEF80060ED0375468A
:1029700001D5164300E096432E60641C0A68164693
:10298000E2407FF429AFBDE8F88F00000804014061
:10299000000011100010024000000140000801403A
:1029A000000C0140001001400014014000180140DB
:1029B000001C01408068084000D0012070470AB127
:1029C000016170470904FBE7014880687047000017
:1029D0000400002002488168027811448160704739
:1029E00004000020074810B5016841F010010160A3
:1029F000032000F075F80F2000F006F800F024F82E
:102A0000002010BD0020024070B50D4D04464FF46B
:102A10007A712878B1FBF0F00A490968B1FBF0F04F
:102A200000F0EBFE48B9102C07D200222146501EC0
:102A300000F036F800206C6070BD012070BD000011
:102A400004000020100000200C4808B5816941F006
:102A500001018161816901F001010091C16941F0C9
:102A60008051C161C06900F0805000900448416805
:102A700021F0E06141F00071416008BD00100240AA
:102A800000000140002809DB00F01F0201219140F5
:102A90004009800000F1E020C0F8001170470000FC
:102AA000F0B40E4B1B680C46C3F30223C3F10705B9
:102AB000042D00D90425191D072901D2002300E0A7
:102AC000DB1E012606FA05F1491E214099409E4071
:102AD000761E16403143F0BC02F01EBC0CED00E047
:102AE000064900F0070208684FF6FF03184040EA65
:102AF0000220034A10430860704700000CED00E01C
:102B00000000FA05BFF34F8F05480168054A01F43C
:102B1000E06111430160BFF34F8F00BFFDE700008C
:102B20000CED00E00400FA0510B501460020284C29
:102B300004292FD00BDC012930D0022929D100F043
:102B40008BF96168C1F38131491C49001FE00829F4
:102B500020D010291DD161682268D20119D51D48E5
:102B6000C1F38342C903805C0AD56168194AC1F385
:102B70004041921E515C184AB2FBF1F1484301E01A
:102B8000164948436168490203D440000321B0FB61
:102B9000F1F010BDBDE8104000F06EB9226AC2F33A
:102BA0000121012903D1920701D5C80310BD0229D3
:102BB00005D1626A920702D549F6404010BD03294B
:102BC000FCD121688903F9D54FF2244010BD0000E3
:102BD000001002409A1B010800127A0000093D0013
:102BE0002DE9F84305460078354CC00754D0E0691C
:102BF0000026C00008D4E06940F08050E061E06940
:102C0000012600F0805000902E480168C90512D4BA
:102C10000168804641F480710160FFF7D5FE0746E8
:102C200005E000BFFFF7D0FEC01B642823D8D8F80A
:102C30000000C005F6D5206A10F4407021D0A988A4
:102C400001F4407181421CD0206A1F49012220F406
:102C500040700A6000220A602062C00711D0FFF7AE
:102C6000B3FE074641F2883808E000BFFFF7ACFE2C
:102C7000C11B414502D90320BDE8F883206A8007C3
:102C8000F4D5206A696820F44070084320621EB1C0
:102C9000E06920F08050E0612878800705D5606801
:102CA000A96820F44040084360602878C00605D534
:102CB0006068696920F48000084360600020DBE7F9
:102CC0000010024000700040400442422DE9F047ED
:102CD0000F46050061D0434E306800F00700B8424F
:102CE00009D2306820F0070038433060306800F0C7
:102CF0000700B84251D128683B4C810712D54007E4
:102D000003D5606840F4E06060602878000703D570
:102D1000606840F4605060606068A96820F0F0006E
:102D2000084360602878C00728D06868012810D060
:102D30002168022810D0890700292EDA616821F065
:102D4000030101436160FFF73FFE804641F288398D
:102D50000DE021688903EFE78901EDE7FFF734FE15
:102D6000A0EB0801494502D90320BDE8F08760685F
:102D7000696800F00C00B0EB810FEFD1306800F013
:102D80000700B8420BD9306820F0070038433060A4
:102D9000306800F00700B84201D00120E5E728784C
:102DA000400705D56068E96820F4E060084360608A
:102DB0002878000706D56068296920F4605040EA49
:102DC000C100606000F058F86168084AC1F303115F
:102DD000515CC8400649086006480068FFF714FEC9
:102DE0000020C2E70020024000100240AA1B010898
:102DF00010000020080000200F2202600C4A5368D7
:102E000003F003034360536803F0F00383605368E7
:102E100003F4E063C36052684FF4E06303EAD20254
:102E200002610448006800F0070008607047000075
:102E3000001002400020024004480549006849682B
:102E4000044AC1F30221515CC840704710000020C1
:102E500000100240BA1B010804480549006849688F
:102E6000044AC1F3C221515CC840704710000020E1
:102E700000100240BA1B01080E4A51680E4801F0CA
:102E80000C03042B11D0082B0FD10C48C1F3834342
:102E9000C903C05C0AD55168084AC1F34041921E7B
:102EA000515C054A5043B0FBF1F070470449484378
:102EB000704700000010024000127A00881B0108D1
:102EC00000093D002DE9F84F040070D02078C04D76
:102ED000C00749D06868C0F38100012807D068683E
:102EE000C0F38100022809D16868C00306D52868AC
:102EF000800339D560680028E7D035E06068B0F518
:102F0000803F0BD010B1B0F5A02F11D0286820F46D
:102F100080302860286820F4802002E0286840F48F
:102F200080302860606890B1FFF74EFD06460AE0E9
:102F3000286840F480202860F0E700BFFFF744FDD8
:102F4000801B642873D828688003F7D50CE0FFF74E
:102F50003BFD064605E000BFFFF736FD801B6428F9
:102F6000F0D828688003F7D420789A4E80074FF075
:102F700001094FF0000839D5686810F00C0F07D030
:102F80006868C0F38100022809D16868C00306D4CC
:102F90002868800714D52069012808D110E020692D
:102FA000B0B1C6F80090FFF70FFD074605E00AE153
:102FB000FFF70AFDC01B0228C4D828688007F7D590
:102FC0002868616920F0F80040EAC10028600DE03F
:102FD000C6F80080FFF7F8FC074604E0FFF7F4FCB2
:102FE000C01B022823D828688007F7D42078000760
:102FF0002CD57948A169D9B1C0F80090FFF7E4FC5D
:10300000074604E0FFF7E0FCC01B02280FD8686AFF
:103010008007F7D571484FF4FA510068B0FBF1F022
:10302000009000BF0098411E0091FAD20EE080E0AF
:10303000C0F80080FFF7C8FC074604E0FFF7C4FCB7
:10304000C01B022875D8686A8007F7D4207840072B
:1030500060D5E8690027C00008D4E86940F08050D6
:10306000E861E869012700F0805000905C48016841
:10307000C90513D40168834641F480710160FFF7EC
:10308000A3FC824606E000BFFFF79EFCA0EB0A000F
:1030900064284ED8DBF80000C005F5D5E0680128AB
:1030A0000AD008B1052813D0286A20F00100286250
:1030B000286A20F0040002E0286A40F0010028623B
:1030C000E06841F2883B98B1FFF77EFC82460BE056
:1030D000286A40F004002862EEE700BFFFF774FCA6
:1030E000A0EB0A0159455AD8286A8007F6D50CE0AA
:1030F000FFF76AFC824605E0FFF766FCA0EB0A01D9
:1031000059454CD8286A8007F6D41FB1E86920F0E9
:103110008050E861E06988B36968C1F381010229E0
:1031200044D00228C6F8608004D0FFF74DFC044666
:1031300038E034E0FFF748FC074604E0FFF744FCC2
:10314000C01B02282BD828688001F7D4206AB0F56C
:10315000803F05D16868A16820F4003008436860AA
:10316000D4E908010843696821F4741108436860D0
:10317000C6F86090FFF728FC044606E025E000BF93
:10318000FFF722FC001B022809D828688001F7D528
:103190001BE000BFFFF718FC001B022802D9032028
:1031A000BDE8F88F28688001F4D40EE00128F7D03C
:1031B0006868226A00F48031914204D1616A00F4A7
:1031C0007010884201D00120EAE70020E8E7000003
:1031D00000100240000042428004424210000020E1
:1031E0000070004070B5040009D0606A002540B14D
:1031F00025616561A56294F8510040B10CE00120A1
:1032000070BD6068B0F5827FF4D0E561F2E784F8C4
:103210005050204600F040F8022084F85100206809
:10322000016821F040010160A088218900F48270CA
:1032300001F404410843A18901F400610843217CA1
:1032400001F002010843217D01F001010843218BB7
:1032500001F400710843217F01F03801084394F81C
:10326000201001F080010843218D01F40051084332
:1032700021680860A069042101EA104021684860C3
:103280002068C16921F40061C1616565012084F88D
:103290005100002070BD000030B585B000240094BE
:1032A000019402940394254D0368254802210322CA
:1032B000AB421AD1836943F480538361836903F479
:1032C00080530493836943F00403836180691D4D37
:1032D00000F004000490A020CDE9000103926946AB
:1032E0002846FFF76BFA40201EE0174DAB4222D173
:1032F000C36943F48043C361C36903F48043049307
:10330000836943F0080383618069104D00F0080071
:1033100004904FF42040CDE900010392694628460D
:10332000FFF74CFA4FF48040CDE900046946284687
:103330000294FFF743FA05B030BD000000300140B1
:10334000001002400008014000380040000C01401D
:103350002DE9F84F044690F851001D4616460F46D9
:10336000012838D160684FF00408B0F5827F01D1A0
:10337000A06830B3FFF728FB8246002F75D0002EDF
:1033800073D094F85000012825D04FF0010984F83B
:10339000509084F851804FF00008C4F85480A7631F
:1033A000A687E687C4F83080A4F83480A4F8368075
:1033B000C4F84080C4F84480A068B0F5004F0CD039
:1033C00015E084F85180009313460A46204600F029
:1033D0001CF9BDE8F88F0220FBE72068016821F0A6
:1033E000400101602068016821F48041016020688B
:1033F0000168490603D4016841F040010160E068BA
:10340000C0B134E020688168C90709D0007BA16B96
:103410000870A06B401CA063E08F401EE08709E0AD
:10342000FFF7D2FAA0EB0A00A84202D3681C01D031
:1034300032E085B3E08F0028E4D11BE0206881688A
:10344000C90709D0C068A16B0880A06B801CA0636D
:10345000E08F401EE0870AE0FFF7B6FAA0EB0A0013
:10346000A84203D3681C02D016E012E09DB1E08FA1
:103470000028E3D152462946204601F0AEF908B1B2
:103480002020606584F8519084F85080606D002899
:103490009FD001209DE7FFE784F8519084F8508089
:1034A000032096E72DE9F84F984616468A460446CB
:1034B000FFF78AFA814694F8510001281ED1BAF12B
:1034C000000F73D0002E71D094F85000012815D051
:1034D000012784F85070032084F8510000256565A9
:1034E000C4F830A0A686E686A563A587E58765644F
:1034F0002564A068B0F5004F03D00CE00220BDE8C1
:10350000F88F2068016821F040010160206801689F
:1035100041F48041016020680168490603D40168D4
:1035200041F040010160E068B0F5006F606803D0D1
:1035300048B3012E27D047E008B1012E1FD1206BE0
:1035400021680088C86006E020688168890709D57D
:10355000216B0988C160206B801C2063E08E401EB7
:10356000E0860CE0FFF730FAA0EB0901414503D3F8
:10357000B8F1FF3F03D035E0B8F1000F32D0E08E54
:103580000028E1D123E0206B21680078087306E071
:103590002068816889070AD5216B09780173206B3F
:1035A000401C2063E08E401EE0860DE02BE0FFF71C
:1035B0000BFAA0EB0901414503D3B8F1FF3F03D05B
:1035C00010E0B8F1000F0DD0E08E0028E0D14A469F
:1035D0004146204601F02FF908B120206065A0681F
:1035E00030B109E084F8517084F85050032086E728
:1035F0002068C1688068009084F8517004F8505FBA
:1036000060680028F3D0012079E72DE9FF4F81B0F1
:103610001D46934604464FF001090E9EFFF7D4F96C
:10362000074694F851006168012806D0B1F5827F01
:103630003CD1A168C9BB042838D10298002871D0B8
:10364000BBF1000FFBD0002DF9D094F850000128F9
:103650002CD04FF0010A84F850A094F851000428AF
:1036600002D0052084F851004FF00008C4F85480BF
:10367000C4F838B0E587A58702992163E586A58659
:10368000C4F84080C4F8448020680168490603D427
:10369000016841F040010160E068B0F5006F6068CA
:1036A00008D0F0B3012D49D081E0FFE7022005B03A
:1036B000BDE8F08F08B1012D39D1206B2168008859
:1036C000C860206B801C2063E08E401EE0862EE0E8
:1036D0002068816889070FD5E18E69B1B9F1010FC2
:1036E0000AD1216B0988C160206B801C2063E08EA9
:1036F000401EE0864FF0000920688168C9070CD0A1
:10370000E18F51B1C068A16B0880A06B801CA063E1
:10371000E08F401EE0874FF00109FFF755F9C01B0D
:1037200001E00BE067E0B04201D3701C50D1E08EA5
:103730000028CDD1E08F0028CAD13EE0206B21685F
:1037400000780873206B401C2063E08E401EE086EA
:103750002DE02068816889070FD5E18E69B1B9F144
:10376000010F0AD1216B09780173206B401C206383
:10377000E08E401EE0864FF0000920688168C9078E
:103780000CD0E18F51B1C068A16B0870A06B401CD8
:10379000A063E08F401EE0874FF00109FFF714F9A6
:1037A000C01BB04202D3701C01D011E086B1E08E84
:1037B0000028CED1E08F0028CBD13A4631462046B2
:1037C00001F039F850B12020606584F8508012E093
:1037D00084F851A084F85080032068E7A06818B9E5
:1037E0002068C1688068009084F851A084F85080F7
:1037F000606D0028F1D0012059E710B5401EB0F1EE
:10380000807F01D3012010BD4FF0E02460610F21C3
:10381000601701F081FD0020A061072020610020D9
:1038200010BD70477047000070B590F83C20012A29
:103830002CD0012480F83C40022280F83D2003680F
:103840005A689D6822F070060A6832435A60104B2D
:1038500002689A420ED00F4B9A420BD0B2F1804FC1
:1038600008D00D4B9A4205D00C4B9A4202D00C4B1B
:103870009A4204D1496825F080031943916080F889
:103880003D40002180F83C10084670BD022070BD0C
:10389000002C0140003401400004004000080040BA
:1038A000000C004010B5040003D094F83D0010B1A6
:1038B00007E0012010BD002084F83C00204600F005
:1038C0001FF8022084F83D00211D206801F0B2F8A5
:1038D000012084F8460084F83E0084F83F0084F814
:1038E000400084F8410084F8420084F8430084F8E2
:1038F000440084F8450084F83D00002010BD00001D
:1039000008B501681048B1F1804F14D00F4A9142B8
:1039100019D1C16941F00201C161C069002200F002
:103920000200009011461D20FFF7BAF8BDE80840DC
:103930001D20FFF7A7B8C16941F00101C161C0694D
:1039400000F00100009008BD00100240000400409B
:1039500090F83D10012901D001207047022180F824
:103960003D100168CA6842F00102CA6000680E4951
:1039700088420ED00D4988420BD0B0F1804F08D05C
:103980000B49884205D00B49884202D00A49884237
:1039900004D1816801F00701062903D0016841F0D4
:1039A0000101016000207047002C014000340140FB
:1039B0000004004000080040000C004070B50446C0
:1039C00090F83C000025012817D0012684F83C60BF
:1039D000022084F83D002068826822F0770222F4F9
:1039E0007F4282600868502838D00DDC20284FD0F4
:1039F00005DC90B3102811D14AE0022070BD3028B8
:103A000046D040280AD13BE060282FD070280DD046
:103A1000B0F5805F03D0B0F5005F12D0012584F8C7
:103A20003D60002084F83C00284670BDCB68D1E999
:103A30000121206801F059F82068816841F0770180
:103A400009E0CB68D1E90121206801F04EF8206837
:103A5000816841F480418160E1E719E0CA68496802
:103A6000206801F017F95021206806E0CA6849680B
:103A7000206801F020F96021206801F040F8CEE7CD
:103A8000CA684968206801F005F940212068F4E718
:103A9000226801461046F0E770472DE9F0410446E0
:103AA0000068C66805694FF00007A90713D5B1077C
:103AB00011D5F91E016101202077206880698007F7
:103AC000204602D0FFF7E8FF04E000F0ADF8204602
:103AD00000F03FF92777680716D5700714D52168DD
:103AE0006FF004000861022020772068806910F4DC
:103AF000407F204602D0FFF7CFFF04E000F094F8AB
:103B0000204600F026F92777280715D5300713D56A
:103B100021686FF008000861042020772068C069E0
:103B20008007204602D0FFF7B7FF04E000F07CF8E2
:103B3000204600F00EF92777E80616D5F00614D5D2
:103B400021686FF010000861082020772068C069A4
:103B500010F4407F204602D0FFF79EFF04E000F003
:103B600063F8204600F0F5F82777E80708D0F0075B
:103B700006D021686FF001000861204600F044F98A
:103B8000280608D5300606D521686FF08000086148
:103B90002046FFF746FE680608D5700606D5216860
:103BA0006FF040000861204600F03CF9A8060AD5F5
:103BB000B00608D521686FF0200008612046BDE8F6
:103BC000F041FFF72FBEBDE8F081000000B585B0E1
:103BD000002100910191029103910068B0F1804FA2
:103BE0001AD10E48816941F00801816180696946F6
:103BF00000F008000490082000900220019003903B
:103C00000748FEF7DBFD0748416821F4407141F0A9
:103C1000E06141F48071416005B000BD00100240D8
:103C2000000C014000000140704770B5044690F858
:103C30003C0000260D4601280FD0012084F83C00EE
:103C40006AB1042A1DD0082A2FD00C2A3FD00126A1
:103C5000002084F83C00304670BD022070BD206812
:103C600000F056FF2068816941F0080181612068F9
:103C7000816921F004018161206881692A69114309
:103C800011E0206800F074FF2068816941F4006150
:103C900081612068816921F4806181612068816986
:103CA0002A6941EA02218161D2E7206800F096FF8B
:103CB0002068C16941F00801C1612068C16921F033
:103CC0000401C1612068C1692A69114311E02068BB
:103CD00000F0B8FF2068C16941F40061C16120684B
:103CE000C16921F48061C1612068C1692A6941EA22
:103CF0000221C161ACE710B5040003D094F83D0087
:103D000010B107E0012010BD002084F83C002046DF
:103D100000F01EF8022084F83D00211D206800F00C
:103D200089FE012084F8460084F83E0084F83F00B4
:103D300084F8400084F8410084F8420084F843008D
:103D400084F8440084F8450084F83D00002010BD4C
:103D50007047704710B50446022249B104290ED0BD
:103D6000082913D094F84100012816D0012010BD75
:103D700094F83E000128F9D184F83E200FE094F831
:103D80003F000128F2D184F83F2008E094F8400079
:103D90000128EBD184F8402001E084F84120012281
:103DA000206800F095FE13492068134A884201D02C
:103DB000904203D1436C43F400434364206888423B
:103DC0000DD090420BD0B0F1804F08D00B49884203
:103DD00005D00B49884202D00A49884204D1816843
:103DE00001F00701062903D0016841F001010160DB
:103DF000002010BD002C01400034014000040040B0
:103E000000080040000C004010B5006804498842DA
:103E100005D1FDF777FDBDE810400BF005B910BDE9
:103E200000040040704738B5044690F8420020284E
:103E300001D0022038BD51B14AB1012020630020D9
:103E40006063204601F0BAF8216B012901D00120FE
:103E500038BD21680A684968009121680C3151E831
:103E6000002F42F0100241E80023002BF5D138BDAD
:103E70000068034A904202D1024808F009BE704728
:103E8000003801408C04002070470000F8B501683C
:103E900004460868CA684B6910F00F0F4FF0000520
:103EA00059D003F0010602F49077374365D0C1077B
:103EB00005D0D10503D5616C41F001016164410772
:103EC00005D5D90703D0616C41F002016164810717
:103ED00005D5D90703D0616C41F004016164010785
:103EE00007D502F02001314303D0616C41F0080195
:103EF0006164616C00293AD0800604D5900602D531
:103F0000204600F09EFF20684069616CC0F380107D
:103F1000090700D460B3204600F05EFF20684069C6
:103F2000400621D52068143050E8001F21F04001E0
:103F300040E80012002AF5D1E06BA8B16D49416359
:103F4000E06BFEF745F9002811D0E06B416B01B042
:103F5000BDE8F040084783060FD593060DD52046EF
:103F6000BDE8F84000F06DBF2046FFF78DFFF8BDBB
:103F70002046FFF789FF6564F8BD266B2023012EDC
:103F80007CD1C6067AD5D60678D5086848680090F0
:103F900048694FF00206400640D5E16B086840686A
:103FA0000004000CE8D0A28D8242E5D9E085886942
:103FB00020282DD020680C3050E8001F21F480719B
:103FC00040E80012002AF5D12068143050E8001FA4
:103FD00021F0010140E80012002AF5D120681430D8
:103FE00050E8001F21F0400140E80012002AF5D1FE
:103FF00084F84230256320680C3050E8001F21F01F
:10400000100140E80012002AF5D1E06BFEF7BCF881
:104010006663A08DE18D401A81B22AE0A08DE18D0A
:10402000401A81B2E08D0028A6D00029A4D02268D1
:104030000C3252E8000F20F4907042E80007002F85
:10404000F5D12068143050E8002F22F0010240E83A
:104050000027002FF5D184F84230256320680C300A
:1040600050E8002F22F0100240E80023002BF5D189
:1040700066632046FFF7FCFEF8BDFFE705062BD57B
:10408000150629D594F841002128F5D1A068B0F58E
:10409000805F01D12069B0B1206A411C2162216892
:1040A00000784860E08C401E0004000CE084E3D1FE
:1040B0002068C16821F08001C1602068C16841F0BA
:1040C0004001C160D8E7206A0088C0F3080048605A
:1040D000206A801C2062E5E74006CDD55006CBD58E
:1040E000CA68204622F04002CA6084F8413000F0DD
:1040F00065F9C1E7DB4C000870B5040004D094F802
:104100004100002510B106E0012070BD84F8405048
:10411000204600F023F8242084F841002068C1687C
:1041200021F40051C160204600F0ECFE20680169D6
:1041300021F4904101612068416921F02A01416127
:104140002068C16841F40051C1606564202084F892
:10415000410084F842006563002070BD2DE9F04104
:1041600086B0002400940194029403940546DFF87D
:1041700088C10368614802210322614F80264FF401
:104180008068634537D1836943F4804383618369E1
:1041900003F480430493836943F0040383618069DB
:1041A000039200F0040004900802CDE90001694682
:1041B0003846FEF703FBCDE9008469463846029491
:1041C000FEF7FCFA504F4F48C7E90004C7E9024622
:1041D0003C617C61BC613846FC61FEF7B5F908B111
:1041E000FDF7C0FBEF630022114625207D62FEF73C
:1041F00057FC25203DE0DFF814C163453ED1C3697B
:1042000043F40033C361C36903F400330493836947
:1042100043F0040383618069039200F0040004907A
:104220000420CDE9000169463846FEF7C7FA0820A8
:10423000CDE90004694638460294FEF7BFFA324FD2
:10424000304844371430C7E90004C7E902463C61EE
:104250007C61BC613846FC61FEF776F908B1FDF778
:1042600081FBEF630022114626207D62FEF718FCD9
:104270002620FEF707FC06B0BDE8F081244FBB42C4
:10428000F9D1C36943F48023C361C36903F4802374
:104290000493836943F0080383618069CDE9008159
:1042A00000F00800CDE903201A4F69463846FEF7B2
:1042B00085FAF814CDE90004694638460294FEF701
:1042C0007DFA114F0F4888372838C7E90004C7E93D
:1042D00002463C617C61BC613846FC61FEF734F902
:1042E00008B1FDF73FFBEF630022114627207D62F6
:1042F000FEF7D6FB2720BCE7003801400010024043
:104300000008014058000240FC0800200044004022
:1043100000480040000C0140704770472DE9F84309
:10432000044690F84100984616460D46202802D0D3
:104330000220BDE8F88385B17EB1002060642120B1
:1043400084F84100FEF740FBA6848146E684A0681D
:104350002027B0F5805F02D003E00120E9E7206963
:1043600010B12E4600250EE000260CE080212046EC
:1043700000F06CFEA8B9C6B116F8010B21684860C0
:10438000E08C401EE084E08C4B464FF00002CDF8FC
:1043900000800028EAD14FF04001204600F056FE90
:1043A00040B184F841700320C3E735F8020BC0F335
:1043B0000800E3E784F841700020BAE7704702F094
:1043C00053FB0AF02FFEFAE73EB500241048009494
:1043D000019402940D498460016004730475012501
:1043E00005614FF460214460C161FDF735FC08B1FF
:1043F000FDF7B8FACDE90045694605480294FDF796
:10440000A9FB002801D0FDF7ADFA3EBD0024014014
:104410008C0600200D4810B50B4901601021416049
:1044200000218160C1600161416101764176817640
:10443000C17601774177FDF7E3FD002803D0BDE8A1
:104440001040FDF78FBA10BD00640040BC0600208C
:10445000114808B5416941F00101416140690022FC
:1044600000F00100009011460D20FEF719FB0D2011
:10447000FEF708FB002211460F20FEF711FB0F206C
:10448000FEF700FB002211461020FEF709FBBDE8F5
:1044900008401020FEF7F6BA001002402DE9F04F58
:1044A00085B00024364800940194029403948169F5
:1044B00041F010018161816901F01001049181696D
:1044C00041F020018161816901F02001049181693D
:1044D00041F004018161816901F004010491816965
:1044E00041F0080181618069DFF8989000F00800D0
:1044F0000490002210214846FEF761FADFF888A0F8
:1045000041F20207002239465046FEF758FADFF81A
:104510007CB04FF41078002241465846FEF74FFA1F
:10452000102001250226CDE90005CDE902466946A5
:104530004846FEF743F940F20130CDE900046946F0
:1045400050460294FEF73AF900970396CDE90154DC
:1045500069465046FEF732F9CDF800800396CDE962
:10456000015469465846FEF729F9280200900320B5
:10457000019069465846FEF721F905B0BDE8F08F75
:104580000010024000080140000C014000100140F2
:10459000104810B50E4901604FF48271416000214E
:1045A0008160C1604FF400720161C0E90512102200
:1045B000C0E90721416281620A21C162FEF712FE51
:1045C000002803D0BDE81040FDF7CCB910BD0000B5
:1045D00000300140E40600200F4810B50D4901608D
:1045E0004FF48271416000218160C1604FF400721C
:1045F0000161C0E90512C1610162416281620A2163
:10460000C162FEF7EFFD002803D0BDE81040FDF7C2
:10461000A9B910BD003800403C07002010B58EB08D
:1046200000240794089409940A940B941C2168466A
:104630000C94FBF7CAFD1E484FF08041016041F623
:104640001F41C0E901146321C0E903148461FFF72D
:1046500029F908B1FDF786F94FF48050079007A9B2
:104660001348FFF7ABF908B1FDF77CF91048FFF7E5
:1046700042FB08B1FDF776F90B940BA90C480C949A
:10468000FFF7D2F808B1FDF76DF96020CDE900041D
:1046900002940422694606480494FFF7C6FA08B15A
:1046A000FDF760F90248FFF791FA0EB010BD000067
:1046B0009407002010B586B0002417480094019498
:1046C00002940394049413490594016041F61F4138
:1046D000C0E9011442F20F71C0E903148461FFF7CD
:1046E000E1F808B1FDF73EF94FF4805000906946BB
:1046F0000948FFF763F908B1FDF734F9049404A9F8
:1047000005480594FFF790F8002801D0FDF72AF935
:1047100006B010BD00040040DC0700200C4810B5B6
:104720000A4901604FF4E1314160002181600C22AF
:10473000C160C0E904128161C161FFF7DDFC00289E
:1047400003D0BDE81040FDF70DB910BD00380140A1
:10475000240800200C4810B50A4901604FF4E131EB
:104760004160002181600C22C160C0E904128161B6
:10477000C161FFF7C1FC002803D0BDE81040FDF780
:10478000F1B810BD004400406C0800200C4810B582
:104790000A4901604FF4E1314160002181600C223F
:1047A000C160C0E904128161C161FFF7A5FC002866
:1047B00003D0BDE81040FDF7D5B810BD004800405B
:1047C000B4080020FEE7FEE700F00F00092801D83A
:1047D00030307047373070477047F8B5044640684E
:1047E0004FF48273984217D1A0684FF48065B0F5FA
:1047F000004F01D0A8420FD12068066826F040067D
:1048000006606068984207D1A068A84204D100926F
:104810000B460022012103E000920B46002280217A
:10482000204600F023F8002804D0606D40F02000FE
:1048300060650320F8BDF8B515460E460B4600929C
:1048400004460122022100F011F840B9334600224B
:1048500080212046009500F009F8002804D0606D02
:1048600040F0200060650320F8BD00002DE9F8430A
:104870001E46914688460446089DFEF7A5F8401B53
:10488000351AFEF7A1F8074625480068C0F3CB307B
:10489000684338E0701C37D0FEF796F8C01BA8427A
:1048A00003D215B1009860B32CE02068416821F074
:1048B000E00141606068B0F5827F0BD1A068B0F57F
:1048C000004F02D0B0F5806F04D12068016821F05C
:1048D00040010160A06AB0F5005F09D1206801685D
:1048E00021F4005101602068016841F40051016029
:1048F000012084F85100002084F850000320BDE816
:10490000F8830025401E00902068816838EA010085
:1049100004D000214945BDD10020F0E70121F9E78D
:104920001000002070470000034610B5094A00201F
:10493000C3EBC30402EB8402042B01D9012010BD98
:10494000937B0BB1022010BD137E0BB1517110BDD2
:10495000032010BDF80300202DE9F0410025114F80
:104960002E4600BFC5EBC50007EB8004207E90B14A
:104970002079627990420ED0A189A068FEF71FF8D5
:10498000A189A06802F0A6FC207162691AB1002119
:104990002846904706466D1CADB2042DE2D3304642
:1049A000BDE8F081F8030020FEF714B830B595B0EB
:1049B00028216846FBF709FC14210AA8FBF705FC2F
:1049C00018210FA8FBF701FC01210804CDE9001014
:1049D0000025029502240491CDE907404FF4E01030
:1049E00009906846FEF76EFA08B172B6FEE70AA9AA
:1049F0000F2081E831004FF48060CDE90D050221E0
:104A00000AA8FEF763F908B172B6FEE74FF400405A
:104A100011900F940FA8FEF7E3F8002801D072B6AA
:104A2000FEE715B030BD70470148FFF736B800000B
:104A3000DC070020F0B50268204C214D214E224FAA
:104A4000224B4FF0804CA04209D0984207D06045DD
:104A500005D0A84203D0B04201D0B84204D122F020
:104A6000700E4A6842EA0E02A04209D0984207D06E
:104A7000604505D0A84203D0B04201D0B84203D16E
:104A800022F44075CA682A434D6922F080022A4305
:104A900002608A68C2620A688262A04201D09842BB
:104AA00001D109690163012141610169C90703D08D
:104AB000016921F001010161F0BD0000002C0140FD
:104AC0000004004000080040000C00400034014099
:104AD00010B501F01F030121046A99408C43046260
:104AE000016A9A401143016210BD10B5846842EA20
:104AF000032224F47F440A432243826010BD82686B
:104B000022F070020A4342F0070181607047000002
:104B1000F0B5036A026A22F0010202624268846907
:104B2000124E24F073050C682C4323F002058B68A9
:104B30002B430D4DA84201D0B04205D123F0080708
:104B4000CB683B4323F00403A84201D0B04205D117
:104B50004D6922F4407215438A692A434260846198
:104B6000496841630362F0BD002C014000340140FC
:104B7000F0B5026A036A23F0100303624368846994
:104B80000D6824F4E64444EA05248D6822F02002EE
:104B900042EA05120F4D104EA84201D0B04206D194
:104BA000CF6822F0800242EA071222F04002A842B7
:104BB00001D0B04207D14D6923F4406343EA850335
:104BC0008D6943EA850343608461496881630262B9
:104BD000F0BD0000002C014000340140F0B5026A35
:104BE000036A23F4807303624368C46922F4007289
:104BF00024F073050C68124E2C438D6842EA05229E
:104C00000E4DA84201D0B04206D1CF6822F4006216
:104C100042EA072222F48062A84201D0B04207D1C2
:104C20004D6923F4405343EA05138D6943EA0513A4
:104C30004360C4614968C1630262F0BD002C014059
:104C40000034014030B5046A026A22F480520262E4
:104C50004268C3690D6823F4E64343EA05238D687F
:104C600024F4005444EA0534084DA84202D0084D0B
:104C7000A84204D14D6922F4804242EA8512426082
:104C8000C36149680164046230BD0000002C01402A
:104C90000034014010B5036A046A24F00104046280
:104CA000846924F0F00444EA021423F00A020A435F
:104CB0008461026210BD10B5036A046A24F0100416
:104CC0000462846923F0A00324F4704444EA0232AD
:104CD00043EA01118261016210BD10B5406A0021F2
:104CE000C185C184FFF7D0F810BD70B5446A206853
:104CF000406994F84110C0F3C0100025212904D167
:104D000018B1E584204600F08EF82068406994F8D8
:104D10004210C0F38010222904D118B1E585204645
:104D200000F05AF8606C40F0100060642046FFF715
:104D3000ABF870BD10B50146406A096809684FF0CC
:104D4000000289062ED4C28501680C3151E8003F6B
:104D500023F4807341E80034002CF5D1016814314C
:104D600051E8003F23F0010341E80034002CF5D165
:104D70000168143151E8003F23F0400341E800345A
:104D8000002CF5D1202180F84210016B012909D1B6
:104D900001680C3151E8003F23F0100341E8003472
:104DA000002CF5D14263016B012902D0FFF7B4FA60
:104DB00010BD818DFFF75CF810BD10B5406A012170
:104DC0004163016B012902D0FFF7A7FA10BD818D65
:104DD0004908FFF74DF810BD01680C3151E8002F6C
:104DE00022F4907241E80023002BF5D101681431C0
:104DF00051E8002F22F0010241E80023002BF5D1F9
:104E0000016B012909D101680C3151E8002F22F012
:104E1000100241E80023002BF5D1202180F8421038
:104E200000210163704701680C3151E8002F22F026
:104E3000C00241E80023002BF5D1202180F8411069
:104E4000704708B590F84210222901D0022008BD11
:104E500082684FF480539A4201D1016921B1816A7D
:104E60009A421BD04AB10AE00268816A5268C2F3D2
:104E700008020A80816A891C08E0026972B102682E
:104E8000526802F07F020A70816A491C8162C18DFA
:104E9000491E0904090CC18503D01BE00268526851
:104EA000F1E70168CA6822F02002CA600168CA6896
:104EB00022F48072CA6001684A6922F001024A61E4
:104EC000202180F8421000214163026B012A03D0A7
:104ED000FFF722FA002008BD016301680C3151E898
:104EE000002F22F0100241E80023002BF5D10168C9
:104EF0000A68D20602D50A6849680091818DFEF7DA
:104F0000B7FFE7E770B5044600680169E26821F47D
:104F10004051114301612169A06808436169084358
:104F20002168CA6841F20C639A430243CA60206850
:104F30004169A26921F44071114341611E49206811
:104F4000884202D1FDF788FF01E0FDF775FF00EB15
:104F5000C00101EB0012606864218000B2FBF0F335
:104F6000B3FBF1F36FF018067343B2FBF0F5B2FB3D
:104F7000F0F605EB8305322303EB0515B5FBF1F5E0
:104F8000B6FBF1F605F0F00505EB0615B2FBF0F601
:104F9000B2FBF0F0B0FBF1F06FF01802504306EBFB
:104FA000800003EB0010B0FBF1F0216800F00F006F
:104FB0002844886070BD00000038014038B5816227
:104FC00004468285002013466064222284F8422031
:104FD000E56B1B4AAA62E56B1A4AEA62E56B1A4A5C
:104FE0002A63E26B50630A462168E06B091DFDF7F6
:104FF000E9FA2068016840680090206948B120689B
:105000000C3050E8001F41F4807140E80012002A83
:10501000F5D12068143050E8001F41F0010140E84C
:105020000012002AF5D12068143050E8001F41F02A
:10503000400140E80012002AF5D1002038BD0000F0
:10504000354D0008BB4D0008EB4C00082DE9F84336
:10505000984617460D460446089E24E0701C22D050
:10506000FDF7B2FCA0EB0800B0421AD8CEB1206820
:10507000C168490717D5802D15D0402D13D0016880
:10508000C94309070FD401680025406800902046F5
:10509000FFF7A2FE0820606484F840500120BDE8BC
:1050A000F8830320FBE72068006835EA000004D09D
:1050B0000020B842D2D00020F1E70120F9E700003B
:1050C00010B50548FEF7E2FEBDE810404FF48072CF
:1050D00002490148FEF7A7BE240800208C040020E6
:1050E0000148FEF7D3BE00006C08002010B505484B
:1050F000FEF7CCFEBDE810404FF480720249014833
:10510000FEF791BEB40800208C050020FEE70000E9
:10511000F8B5144C0546E068804760698047616ACD
:10512000C5F30740C5F3072699B1A26A8AB18DF885
:1051300000008DF801608DF8025003216846904709
:10514000E06980470546A069804720698047284676
:10515000F8BD216A8847216A30468847216AE8B24B
:105160008847EDE76C0000202DE9F8431A4C05460E
:105170001746E0688846804760698047616AC5F3E2
:105180000740C5F30726A1B1A26A92B18DF80000CD
:105190008DF801608DF80250032168469047626ADD
:1051A000394640469047A069804720698047BDE85E
:1051B000F883216A8847216A30468847216AE8B225
:1051C0008847002505E0E069804708F805006D1C68
:1051D000ADB2BD42F7D3E6E76C000020F8B5164C3F
:1051E00005460E46E068804760698047A26A45F040
:1051F00004058AB1280C8DF80000280A8DF80100FA
:105200008DF802508DF80360042168469047A0692C
:10521000804720698047F8BD216AC5F30740884769
:10522000216AC5F307208847216AE8B28847216AC6
:1052300030468847EBE700006C000020F8B51A4CB8
:1052400005461646E0680F46804760698047A26AB7
:1052500045F004059AB1280C8DF80000280A8DF855
:1052600001008DF80250032168469047A26A31463A
:1052700038469047A069804720698047F8BD216A79
:10528000C5F307408847216AC5F307208847216A8C
:10529000E8B28847002504E0216A785D88476D1CE4
:1052A000ADB2B542F8D3E5E76C0000200FB4054B72
:1052B00010B503A9044A029800F06EF910BC5DF81D
:1052C00014FB000015750008800400200FB4084B83
:1052D00010B504A902AA039800F05EF9044602A9D9
:1052E000002000F0DCFC204610BC5DF814FB000040
:1052F0009F5C000837B514460846064B6A462146AF
:1053000000F04AF904466946002000F0C8FC204637
:105310003EBD00009F5C00080907090E002804DB61
:1053200000F1E02080F80014704700F00F0000F159
:10533000E02080F8141D704730B528B1144C031FCD
:10534000002021680A4605E0084630BD9A4203D88D
:1053500010465268002AF9D1002800D041680BD0CD
:105360000468A3EB0005A54204D11B681C44034656
:10537000046002E0436000E023603AB11C68D51A83
:10538000A54203D115682C441C6052685A6030BD98
:10539000840400202DE9F04782460F4C10480D4E42
:1053A0000E4F001B4FF0000820F007054FF00109D9
:1053B00000221146504602F073F9002802D13068ED
:1053C00010B10020BDE8F0873C60C4E90058C6F881
:1053D0000090EDE788040020AC2600208404002023
:1053E000A836002002E008C8121F08C1002AFAD11E
:1053F00070477047002001E001C1121F002AFBD155
:10540000704700002DE9FF5F82B00021DDE9043024
:10541000020DDDF840B0034318D044F61050A2F25C
:10542000FF3242431514119801281FD0A5EB0B0041
:10543000401C5FEA000A4FF000064E4FDFF838913B
:10544000B046504615D5CAF1000413E01198012466
:105450004AA3012801D16FEA0B010298119AC0E911
:105460000031C0E9024206B0BDE8F09FCBF1000078
:10547000DFE704460021404A491842EB0450CDE9D9
:10548000001012E0E00707D032463B46404649464E
:10549000FBF788FD8046894632463B461046194652
:1054A000FBF780FD06460F466410002CEAD1DDE9CB
:1054B0000401DDE90023BAF1000F06DAFBF772FD03
:1054C00042464B46FBF76EFD05E0FBF7DDFD42462D
:1054D0004B46FBF7D9FD04460E460022284BFBF74E
:1054E000BDFB03D84FF0FF30014607E00022254BFB
:1054F00020463146FBF794FAFBF741FE102409E001
:10550000002C0ADB0A220023FBF7D6FB039B303278
:105510001A55641E50EA0102F2D1641C039AC4F1C8
:1055200011031444119A012A03D0012208430DD11A
:105530000AE0084304D000204FF0110B119072E7ED
:10554000A3EB0B056D1E0DE05B4504DD4FF0000283
:1055500005F1010504E003DA4FF00002A5F10105B1
:10556000002AECD002981199C0E90231C0E9004547
:1055700079E70000000014400000F03F3000000018
:105580000000F0430000E03F30380A2801D201203B
:1055900070470020704700002DE9FF4F95B09A46F4
:1055A000884606460025EEE1252877D100242746C7
:1055B000F94A0121039400E0044316F8013F203B1F
:1055C00001FA03F01042F7D130782A2811D06FF099
:1055D0002F033078A0F13002092A16D8039A44F03C
:1055E000020402EB820203EB42021044761C039099
:1055F000EFE758F8042B0392002A03DA504244F4F0
:105600000054039044F00204761C30782E2816D102
:1056100016F8010F44F004042A280DD06FF02F0271
:105620003078A0F13003092B09D807EB870302EB90
:105630004303C718761CF3E758F8047B761C3078D0
:105640006C280FD006DC4C2817D068280DD06A28AB
:1056500014D104E0742810D07A280FD10DE044F45E
:1056600000140AE044F4801401E044F44014727819
:10567000824202D104F58014761C761C30786628AC
:105680000BD013DC582877D009DC002875D04528CA
:10569000F6D04628F4D047281AD193E118E06328C1
:1056A00035D0642879D0652812D18BE1702873D069
:1056B00008DC6728F1D069286FD06E280DD06F28DC
:1056C00006D1ACE073282CD0752874D0782853D03C
:1056D0005246179990476D1C54E1C4F302500228BA
:1056E00009D003280DD0D8F8001004280DD00D6083
:1056F00008F1040846E1D8F80010EA17C1E90052A1
:10570000F6E7D8F800100D80F2E70D70F0E718F812
:10571000041B8DF8001000208DF80100EB460120DD
:1057200003E058F804BB4FF0FF3061074FF0000171
:1057300002D40DE009F101018946B9420FDA814531
:10574000F8DB1BF809100029F4D108E009F1010188
:1057500089468142FADB1BF809100029F6D103982B
:105760005346A0EB090721463846179A00F080FA05
:10577000284400EB090507E044E008E10DE01BF8D0
:10578000010B524617999047B9F10109F7D25346D8
:1057900021463846179AF2E039E00A21C4F3025252
:1057A0004FF0000B0091022A06D058F8040BC117E5
:1057B000032A09D00AE023E008F1070020F00702DD
:1057C000F2E80201904605E000B2C117042A01D1B7
:1057D00040B2C117002906DA0A460021404261EBB7
:1057E00002012D2202E0220504D52B228DF804208F
:1057F000012203E0E20701D02022F7E7914657E0BB
:105800000A2100E010214FF0000B00910BE0102165
:105810004FF0000B44F004040827009103E0082037
:105820004FF0000B0090C4F30252022A05D058F842
:10583000040B0021032A08D008E008F1070020F03B
:105840000702F2E80201904603E080B2042A00D188
:10585000C0B24FF0000922072AD53278702A07D04B
:10586000DDF800C08CF0100C5CEA0B0C05D00EE0EB
:1058700040228DF80420012208E050EA010306D0FE
:1058800030238DF804308DF8052002229146009BCC
:1058900083F0080353EA0B030AD150EA010201D155
:1058A000620705D530228DF804204FF001097F1ED4
:1058B0003278582A04D039A20C920CAA02920BE03A
:1058C0003BA2F9E75B46009AFBF7F6F90C9B9B5C61
:1058D000029A521E0292137050EA0102F2D102980B
:1058E00004A9081A00F1200B600702D524F48034C3
:1058F00000E001275F4502DDA7EB0B0000E0002080
:1059000000EB0B01009003984944401A0390E00318
:1059100006D453462146179A039800F0A9F9054486
:10592000002706E001A85246C05D179990476D1CFC
:105930007F1C4F45F6DBE0030CD553462146179AF2
:10594000039800F095F9054404E030205246179979
:1059500090476D1C0099481E00900029F5DC08E076
:105960000298029952460078491C02911799904773
:105970006D1CBBF10001ABF1010BF1DC5BE100F050
:1059800065F90544761C307800287FF40DAE19B017
:105990002846BDE8F08F000009280100303132337D
:1059A000343536373839616263646566000000005B
:1059B0003031323334353637383941424344454645
:1059C00000000000600700D4062708F1070020F05F
:1059D0000700F0E80223804603F0004C5FEA0C0069
:1059E00001D097A009E0200501D596A005E0E007C9
:1059F00001D095A001E0AFF24C001390307823F075
:105A0000004365280CD006DC452809D046281DD067
:105A100047287FD13BE0662818D067287AD136E046
:105A20000021112F01DB112000E0781CCDE90001DD
:105A300004A90CA8FFF7E6FCDDE90D010C9A4FF074
:105A4000000B07F10109109200914EE04FF0004069
:105A50000097CDE9011004A90CA8FFF7D3FCDDE9FC
:105A60000D020C9B0F994FF0000B91461093009282
:105A700011B9791C00EB0109B7EB090003D4C0F19F
:105A8000FF3B07F10109A9EB0700019042E0012F5C
:105A900000DA01270021112F01DD112000E0384636
:105AA000CDE9000104A90CA8FFF7ACFCDDE90D016C
:105AB0000C9A00914FF0000BB946109221070FD4B9
:105AC000009A4A4503DA914601E0A9F10109B9F1CA
:105AD000010F05DD109AA9F10101515C3029F4D0C4
