:020000040801F1
:100000006080002049010108B5700108755B010896
:10001000A1700108AD17010855810108000000001A
:10002000000000000000000000000000B37601089E
:10003000451C010800000000F7700108497701081D
:1000400063010108630101086301010863010108FC
:1000500063010108630101086301010863010108EC
:1000600063010108630101086301010863010108DC
:1000700063010108E11A010863010108F11A01088E
:10008000011B010863010108630101086301010804
:100090004581010863010108B117010863010108E6
:1000A000630101086301010863010108630101089C
:1000B00063010108E9770108630101086301010890
:1000C000630101086301010863010108630101087C
:1000D00063010108F58001081581010825810108E7
:1000E000630101086301010863010108630101085C
:1000F000630101086301010863010108630101084C
:10010000630101086301010863010108630101083B
:10011000630101086301010863010108630101082B
:10012000630101086301010863010108630101081B
:10013000DFF810D001F076F800480047F5FA010822
:10014000AFF30080608000200648804706480047E3
:10015000FEE7FEE7FEE7FEE7FEE7FEE7FEE7FEE777
:10016000FEE7FEE7D9770108310101082DE9F05FCC
:100170000546002092469B46884606468146402416
:100180001BE0284641464746224600F020F85346E9
:100190005A46C01A914110D311461846224600F023
:1001A00067FE2D1A67EB01084F4622460120002109
:1001B00000F05EFE17EB00094E41201EA4F1010481
:1001C000DFDC484631462A464346BDE8F09F202AF8
:1001D00004DB203A21FA02F00021704721FA02F3F1
:1001E000D040C2F120029140084319467047A0F167
:1001F0004101192900D82030704740EA01039B07CC
:1002000003D009E008C9121F08C0042AFAD203E08B
:1002100011F8013B00F8013B521EF9D27047D2B2EF
:1002200001E000F8012B491EFBD270470022F6E7DF
:1002300010B513460A4604461946FFF7F0FF20465C
:1002400010BD30B505462A460B4612F8010B13F8CF
:10025000014B08B1A042F8D01CB1002802D06D1C9F
:10026000F1E7284630BD10B5044604E00B7800F8ED
:10027000013B03B1491C521EF8D2204610BDCAB240
:10028000401E10F8011F8A4202D00029F9D1002037
:100290007047421C10F8011B0029FBD1801A7047DF
:1002A00010B5002200E0521C835C8C5CA34201D19B
:1002B000002BF8D1D8B2E1B2401A10BD30B50446D7
:1002C0000020034600E05B1C934203D2E05CCD5C5F
:1002D000401BF8D030BD034611F8012B00F8012B6C
:1002E000002AF9D11846704730B50546002003466C
:1002F00000E05B1C934205D2EC5CC85C201A01D183
:10030000002CF6D130BD30B503461D783DB10A460C
:1003100012F8014B1CB1AC42FAD15B1CF5E7181A7C
:1003200030BD00000FB400B58DB010A909900B903E
:1003300000914FF0FF300A9000200C900548069085
:10034000054807906A4609A80F9900F0C7FD0DB04F
:100350005DF814FBF90E0108170F01082DE9FF5F86
:100360001D464FF0FF3BD5E9014691465F464FF0F1
:100370000008A9697F1C01988847296A8246884736
:100380000028F6D1BAF1FF3F0CD024F4C064002E4F
:1003900019DD600614D5BAF12B0F09D0BAF12D0F73
:1003A0000ED103E0584604B0BDE8F09F44F48064E9
:1003B000A9697F1C01988847761E8246002E02DDBF
:1003C000BAF1300F03D0B9F1000F26D032E0A9699D
:1003D000761E44F400747F1C019888478246002EE4
:1003E00005DDBAF1780F06D0BAF1580F03D0B9F194
:1003F000000F10D01EE0B9F1000F02D0B9F1100FBC
:1004000018D1A969761E24F400747F1C01988847CE
:100410008246102002E0082000E00A20814609E020
:1004200008FB0908A969761E44F400747F1C019832
:1004300088478246002E05DD4946504600F039FDCA
:100440000028EDDAE96901988847A00502D46FF029
:100450000100A8E7E00725D1600613D5600502D5A5
:10046000C8F1000000E0404629680A1D2A600968BA
:10047000220501D5087015E0220701D5088011E09A
:1004800008600FE02868011D29600068210502D579
:1004900080F8008006E0210702D5A0F8008001E086
:1004A000C0F8008038467EE72DE9FF5FD2E901A75A
:1004B0004FF00008916999461446DDF838B0464679
:1004C00001988847054659EA0B0005D009E0A16963
:1004D000761C019888470546216A284688470028E7
:1004E000F5D1681C03D05FEACA7005D015E04FF063
:1004F000FF3004B0BDE8F09F2068011D2160D0F8F6
:1005000000800AE05FEACA7001D108F8015BA169C6
:10051000761C7F1E019888470546002F1ADD681C4F
:1005200018D0B9F1000F0DD0E81705EBD0604211DB
:1005300020F01F0059F822102A1A01209040014291
:10054000E0D107E0BBF1000FDCD1216A28468847E3
:100550000028D7D0E16901988847BBF1000F07D187
:10056000002E05DD5FEACA7002D1002188F8001074
:10057000A068B84203DDBBF1000F03D017B16FF0E4
:100580000100B6E73046B4E72DE9FF4F087883B0A5
:100590009946FF2805D0491C2D2804D000240020AE
:1005A00008E000200BE00124F9E700EB800003EBFA
:1005B0004000491C0B78FF2BF7D104B140420023C7
:1005C0000293147819461D462D2C01D02B2C04D1F2
:1005D000521C2D2C13D000240294AA461478FF2C10
:1005E0000FD00A25A3FB057801FB05814FF0000C15
:1005F00003FB0C11521CE3194AEB0101EEE7012445
:10060000EAE7814453EA010002D019F5C87F06DA0F
:1006100003980021C0E9001107B0BDE8F08F002564
:10062000AE4E2F46DFF8B882184600F0D6FDCDE971
:100630000001B9F1000002DAC9F1000400E004464B
:100640000023A74A1AEB030B42EB045A12E0E0071F
:1006500007D02A4633463846414600F0B4FA0746EA
:1006600088462A4633461046194600F0ACFA05463D
:100670000E466410002CEAD1DDE90001B9F1000F4B
:100680005A46534606DA00F039FD3A46434600F032
:1006900035FD05E000F097FA3A46434600F093FA3C
:1006A000029A0AB181F00041039AC2E90001B3E75E
:1006B0002DE9FF4F1F468DB0D7E901464FF0FF38B7
:1006C0002E2045464FF000090B90B9696D1C0E981D
:1006D0008847396A824688470028F6D1BAF1FF3F39
:1006E0000AD024F4D064002E11DDBAF12B0F08D00B
:1006F000BAF12D0F0BD102E0404611B08DE744F462
:100700008064B9696D1C0E9888478246761E6946DA
:10071000600501D52D2000E02B208DF8000001F1AF
:10072000010B0DF1200809E0B9696D1C0E9888478E
:1007300082460F9844F40074761E0560002E02DD98
:10074000BAF1300FF0D00B998A453ED144F08004C5
:1007500006E00F99681CA9F1010944F400740860CF
:10076000B9696D1C761E0E98884782463028F0D0F5
:100770002BE00B998A4505D1200603D444F0800470
:10078000761E18E0504608F06FFB08B30DF1130118
:10079000761E44F400748B4508D2AAF130000BF8A1
:1007A000010B200607D5A9F1010003E0200602D4C1
:1007B00009F101008146A00502D50F99681C086067
:1007C000B9696D1C0E9888478246002ED1DC53E033
:1007D000002E51DDBAF1650F02D0BAF1450F4BD1B1
:1007E000A00549D5B9696D1C24F44074761E0E9895
:1007F00088478246002E0CDD2B2804D0BAF12D0F3D
:1008000007D144F48074B9696D1C0E9888478246FC
:10081000761EE00501D52D2100E02B2108F8011BF3
:10082000CDF82C8021E00DF12901761E44F40074EE
:1008300088450CD2AAF1300010F0FF0088F80000C3
:1008400002D10B99884509D908F1010806E0E005B5
:1008500001D5244801E042F20F708146B9696D1C50
:100860000E98884782460F980560002E04DD50469A
:1008700008F0FAFA0028D6D1F9690E988847FF20C7
:100880008BF8000088F800000020069007904B4687
:100890006A4608A906A8FFF777FEA00502D46FF004
:1008A00001002AE714F0240F0AD0E00714D1DDE993
:1008B00006123868031D3B600068C0E900120BE0B7
:1008C000DDE9060100F098FA0146E00704D1386836
:1008D000021D3A600068016028460EE700001440DF
:1008E0000000F03FF1D8FFFFF0B480EA0102D40F1E
:1008F0004200B2EB410F02D20246084611464A00BE
:1009000042D0C30DDDB2C1F3C752AD1A202D35DA86
:10091000C1F3160141F4000204B15242C5F12006B0
:1009200002FA06F12A411044B3EBD05F23D0C4B1E0
:10093000012DA0EBC35009DCF0BC4FF0004202EAED
:10094000C352DBB200F5000000F04DBB400000F1E7
:10095000807000EBC350A0F1807040EAD170490074
:1009600009E0490841EAC071A0EBC35000F500005E
:10097000400800EBC350F0BC00F02CBB61420122E8
:1009800002EB4101001BF6E7F0BC704781F000412B
:10099000AAE780F00040A7E780EA010210B502F064
:1009A0000043400022D04A001FD0010E01EB12612B
:1009B000C0F35600C2F3560240F4000042F40002B5
:1009C000A0FB022000047F39140400D0401C50EA30
:1009D000124001D44000491EC2B20C0604EBD010F4
:1009E000401C4008802A02D003E0002010BD20F007
:1009F0000100002900DA0020184310BD30B480EA5D
:100A0000010202F0004530F0004221F0004013D016
:100A100090B1C30DD40DC2F31601C0F31600E41A51
:100A200041F4000140F400027D34914201D3641C82
:100A300000E04900002C02DA30BC002070474FF47F
:100A400000000023914201D3891A034340084FEA72
:100A50004101F7D151B1914202D14FF0004105E07F
:100A600002D24FF0010101E06FF0010103EBC4502D
:100A7000284430BC00F0AEBA2DE9FE4F804681EA32
:100A80000300C00F0C46009021F0004123F0004508
:100A9000B8EB0200A94105D24046214690461C46CB
:100AA0000B46024623F00040104347D0270DC7F302
:100AB0000A00C3F30A510290401A019040286BDAF1
:100AC000C3F3130040F4801B0098924620B100232A
:100AD000D2EB030A63EB0B0B01985946C0F14002BD
:100AE000504600F0C5F906460D4650465946019A53
:100AF00000F0CDF910EB08006141002487EA1152A3
:100B000084EAE7731A4340D0009A62B3019A012A3B
:100B10004FEA075215DC001B61EB02014FF0004267
:100B200002EA0752CDE90042001C41F5801132462D
:100B30002B4600F095FA03B0BDE8F08F4046214601
:100B4000F9E7001B61EB0201001C41F5801300185E
:100B50005B412018A2F5001747EB030140EAD5706E
:100B6000B6196D4111E06D084FEA360645EAC075C9
:100B70004FEA0752001B61EB0201001C41F5801196
:100B800049084FEA30000019514132462B4603B064
:100B9000BDE8F04F00F055BA009801224000002354
:100BA000D0EB020263EBE073009821464FEAE07459
:100BB000B8EB000061EB0401E9E783F000435BE779
:100BC00081F0004158E72DE9FE4F81EA030404F06B
:100BD000004421F0004100944FF0000B23F000434B
:100BE00050EA01045ED052EA03045BD0C3F30A5416
:100BF000C1F30A552C44A4F2F3340194A0FB02542F
:100C0000C1F3130141F48011C3F3130343F48013C0
:100C100001FB024400FB034E840A970A44EA815414
:100C200047EA8357A4FB076802958D0A05FB0785F1
:100C30004FEA932C04FB0C542705029D4FEA0658FB
:100C400047EA1637B5EB08056EEB070C870E920ED8
:100C500047EA811742EA8312A7FB0201B6EB0B01B8
:100C600064EB00042B0D43EA0C335E1844EB1C507C
:100C7000DA465146E7FB0201C5F313044FEA0B3392
:100C800043EA14534FEA0432019C43EA0603A4F1F9
:100C90000C040294009CCDE900B400F0E1F903B02B
:100CA000BDE8F08F00200146F9E7C10F80EAE0704F
:100CB0000844CA079623002100F095B99623002224
:100CC000114600F090B90EB5C10F80EAE0700844FB
:100CD000CA07002140F233438DE80E000A460B4656
:100CE00000F0BEF903B000BD0EB540F233410291F1
:100CF0000021CDE900110A460B4600F0B1F903B01E
:100D000000BD00F0004220F00040C10DC0F316000D
:100D100040F400007F2901DA00207047962903DCA7
:100D2000C1F19601C84001E096398840002AF4D00C
:100D30004042704770B5C1F30A5201F000450024EB
:100D4000C1F3130140F2FF3341F480119A4201DAFA
:100D5000002070BD40F233439A42A2F2334203DCDA
:100D60005242FFF734FA00E090402C43F1D0404269
:100D700070BD00F0004230F000400AD0C10D01F516
:100D80006071C0F3160042EA0151C20840071143E6
:100D9000704700200146704730B5041E71F1000411
:100DA00004DB4FF00044404264EB0101141E73F178
:100DB000000405DB1C464FF00043524263EB040382
:100DC0008B4208BF824230BD30B5041E71F1000471
:100DD00004DB4FF00044404264EB0101141E73F148
:100DE000000405DB1C464FF00043524263EB040352
:100DF000994208BF904230BD01F0004330B421F069
:100E0000004150EA010206D00A0DA2F56072C1F35A
:100E10001301002A02DC30BC00207047440F44EA72
:100E2000C104C100E01830BC00EBC25000F0D2B8E1
:100E3000002801DBC0F10040002901DBC1F10041C5
:100E40008842704730B50B4601460020202201241D
:100E500009E021FA02F59D4205D303FA02F5491B88
:100E600004FA02F52844151EA2F10102F1DC30BD9E
:100E7000202A04DB203A00FA02F10020704791405A
:100E8000C2F1200320FA03F3194390407047202A4F
:100E900006DBCB17203A41FA02F043EAE07306E0A2
:100EA00041FA02F3D040C2F12002914008431946B2
:100EB00070473A2800D2303820F02002412A01D36E
:100EC000A2F13700884201D34FF0FF307047000095
:100ED000026811441378016018467047D1600449D4
:100EE00051610449116200211161114600F0B2B94B
:100EF000D10E010849120108426842B1016811F897
:100F0000013B23B1521EC0E900121846704701216F
:100F1000C160881E704742685AB1C368016843B90E
:100F200083688B4205D0491E521CC0E90012002084
:100F300070474FF0FF3070470FB4002300B589B001
:100F40000CA900910B996FF00042CB601E4B0693E9
:100F50001E4B07930423CDE901321D4A0892024635
:100F60006B460020FFF7A4FB09B05DF814FB70B5D9
:100F700086B006464FF0FF300091CDE90101002018
:100F800015460C4604903246694604A8FFF7D4FF84
:100F900002460498211825B108B1084600E0204611
:100FA0002860049800280DD0002A02DD00988842AD
:100FB00008D0081B0094CDE901043246694604A814
:100FC000FFF7BAFF06B070BDF90E0108170F010850
:100FD000491201080029A8BF7047401C490008BFFA
:100FE00020F00100704710B4B0FA80FC00FA0CF059
:100FF00050EA010404BF10BC704749B1CCF1200491
:1010000021FA04F411FA0CF118BF0121214308431D
:10101000A3EB0C01CB1D4FEA00614FEA102042BF49
:10102000002010BC704700EBC35010440029A4BF3F
:1010300010BC7047401C490008BF20F0010010BCE4
:10104000704710B5141E73F1000408DA401C41F11A
:10105000000192185B411A4301D120F0010010BD3C
:101060002DE9F04D92469B4611B1B1FA81F202E0B2
:10107000B0FA80F220329046FFF7FAFE04460F469F
:1010800040EA0A0041EA0B0153465A46084313D08E
:10109000114653EA010019D0C8F140025046FFF74B
:1010A00096F805460E46504659464246FFF7E0FE82
:1010B000084305D0012004E020463946BDE8F08D04
:1010C0000020054346EAE0762C4337430A9863053F
:1010D000E40AA0EB08000022FD0A44EA47540A3063
:1010E00002D500200146E9E7010510196941DDE953
:1010F000084500196941BDE8F04DA2E72DE9F04D22
:1011000081EA030404F0004B21F0004514464FF03F
:10111000000A23F0004150EA050220D054EA0102FF
:101120001DD0C5F30A570246C5F31303C1F31300DC
:10113000C1F30A5640F4801543F48013A7EB060868
:10114000101BD64608F2FD3873EB050002D308F1F8
:10115000010801E092185B41B8F1000F03DA0020AA
:101160000146BDE8F08D00204FF48011064684460C
:101170000EE0171B73EB050705D3121B63EB05038A
:1011800006434CEA010C49084FEA300092185B41D3
:1011900050EA0107EDD152EA030012D082EA0400BE
:1011A00083EA0501084305D0101BAB4106D201229A
:1011B000002306E000224FF0004302E06FF001023E
:1011C00053101AEB06004CEB085110EB0A0041EBF0
:1011D0000B01BDE8F04DFFF734BF0EB540F23342CE
:1011E00002920022CDE900221346FFF739FF03B037
:1011F00000BDC1F30A52C1F3130140F2FF3341F4C1
:1012000080119A4202DA00200146704740F23343CF
:101210009A42A2F2334202DC5242FEF7D8BFFFF7F5
:1012200027BE0000064C074D06E0E06840F00103D1
:1012300094E8070098471034AC42F6D3FEF77CFFE1
:101240004CC002086CC00208C0B24FF4F05100F06C
:1012500099B900002DE9F34F8BB04FF0000801F170
:101260000C000C464FF0010B46460DF1080A0190A8
:101270006269012101989047051E2DD0252D2CD0A3
:10128000216A8847C0B16269012101989047216AAB
:1012900088470028F7D1411E62690198904700E015
:1012A000761CA1690B988847216A88470028F7D1E6
:1012B000E1690B988847DBE7A1690B9888470746E7
:1012C000A84201D1761CD3E7E1690B9888477F1CBF
:1012D00002D1B8F1000F6FD047E1002762693D46A7
:1012E0003946019890472A2804D162690121019862
:1012F00090470125DFF888926269012101989047A3
:10130000A0F130010A290AD24F45E5DC07EB87013D
:1013100000EB4107303FDFD445F01005ECE7E9066C
:1013200001D46FF000476C280AD04C2814D06828EC
:1013300015D06A280DD074281CD07A281AD01DE048
:1013400062690121019890476C2802D045F004059C
:1013500014E045F002050DE045F020050AE0626961
:10136000012101989047682802D045F0080505E062
:1013700045F400656269012101989047C4E901576D
:1013800065283DD019DC58287AD00CDC452837D0A8
:1013900004DC252826D0412831D131E046282FD041
:1013A00047282CD12CE05B2877D0612828D06328EF
:1013B0007CD0642823D15AE0D1E06F2848D008DCE3
:1013C00066281DD067281BD0692821D06E2816D129
:1013D00027E0702845D0732868D0752847D0782832
:1013E0000DD14DE0A1690B988847054625283FF4AB
:1013F00069AFE1690B9888476D1C3FF46AAFB4E0B0
:1014000023466A466FF001000B99FFF751F99FE000
:1014100045F040006060A80723464FF0000236D434
:101420003EE0E8077FF447AF2068011D21600068B7
:10143000290501D506701BE7290701D5068017E7A6
:10144000A90703D5F117C0E9006111E706600FE7AE
:1014500045F040006060A80723464FF0080216D40C
:101460001EE040F60E0125EA0100606016E045F03E
:1014700040006060A80723464FF00A0207D40FE03F
:1014800045F040006060A80708D5234610226FF0A1
:1014900001000B99AFF300805AE007E023461022C9
:1014A0006FF001000B99FEF759FF51E04FF0000972
:1014B0004F464B46632802D05B2807D041E0207995
:1014C000C00601D40120A06001273AE06269012131
:1014D000019890475E2805D14FF00109626949469D
:1014E00001989047216939B900210A46534643F8CB
:1014F0002120491C0829FADBB0B3216969B9C11759
:1015000000EBD16253110AEB830122F01F02821A11
:1015100001200B68904003430B6062690121019830
:1015200090475D28E8D1B9F1000F09D0002051465D
:1015300051F82020D24341F82020401C0828F7DB36
:1015400002AB224600976FF001000B99FEF7ACFF4B
:1015500000280CDA401C08D1BBF1000F05D04FF079
:10156000FF300DB0BDE8F08FFFE74046F9E7E9072F
:1015700001D108F1010806444FF0000B78E60000A5
:10158000CCCCCC0C7F2801D9002208E0064A02EB23
:101590005002C007127800D1120902F00F02012098
:1015A00090400840704700002DB1020870B58C18BB
:1015B00010F8015B15F0070301D110F8013B2A1167
:1015C00006D110F8012B03E010F8016B01F8016B54
:1015D0005B1EF9D12B0705D40023521E0DD401F850
:1015E000013BFAE710F8013BCB1A921C03E013F819
:1015F000015B01F8015B521EF9D5A142D8D300204E
:1016000070BD70B5044600252068806800F00100B8
:1016100018B32068806820F001002168886001F01C
:1016200091FE054613E001F08DFE401B02280ED905
:101630002068806800F0010048B1A06A40F0100006
:10164000A062E06A40F00100E062012070BD206805
:10165000806800F001000028E5D10020F6E70000D6
:1016600038B504460025002000902068806800F00E
:10167000010078BB2068806840F001002168886024
:10168000194800681949B0FBF1F0009002E0009899
:10169000401E009000980028F9D101F053FE054645
:1016A00019E001F04FFE401B022814D92068806821
:1016B00000F0010078B9A06A40F01000A062E06A72
:1016C00040F00100E06200BF002084F8240000BF69
:1016D000012038BD05E02068806800F00100002886
:1016E000DFD00020F5E700000C00002040420F0092
:1016F000FEB507460C460026052F23D006DC052F35
:1017000032D2DFE807F0101316191C00082F22D080
:1017100004DC062F19D0072F26D119E0092F1DD080
:10172000FF2F21D11DE0002000901DE0012000903E
:101730001AE00220009017E00320009014E004203B
:10174000009011E0052000900EE0062000900BE0D4
:101750000720009008E00820009005E00920009094
:1017600002E01020009000BF00BF0720029001207F
:10177000019069460C4800F06FFB00250FE00A4815
:1017800000F0C4FD1E21084800F000FD064800F0EE
:1017900013FC0644044800F051FE681CC5B2A54283
:1017A000EDDBB6FBF4F0FEBD9009002000BFFEE7C4
:1017B00010B5024800F063FE10BD0000C009002013
:1017C0002DE9F04104460D46164643F239072078CC
:1017D00000233A46012116F029FA2168884202D0F6
:1017E0000020BDE8F0812078324629460BF028F928
:1017F000012801D00020F4E70120F2E738B50446C3
:101800000D460020009006222E494FF4106006F08D
:10181000DDFC2C4800782B49497808432949897810
:1018200008432849C97808432649097908432549C6
:101830004979084378B90020224908700820487087
:10184000DC2088700020C8700871487106224FF4AF
:10185000106006F03BFD1C4804701C4805601C48E5
:101860001C4908601748C07809680844194908608D
:1018700014480079096808441649086011484079FD
:1018800009680844134908600E48C0780D49097971
:1018900048400C49497948400E49096808440D49B7
:1018A0000860042269464FF4706006F00FFD0422C0
:1018B0006946900106F00AFD14F0F4FB0020064989
:1018C000087038BDAC00002070000020A00000208F
:1018D000785634129C0000208D00002070B56948B5
:1018E0000078062801D1052070BD67490978890074
:1018F000491C4FF4407202EBC10006F02DFC222877
:1019000006D00023442202215F48007816F08EF9A9
:10191000012511F067FEC4B25A4890F9000005286D
:1019200077D2DFE800F0030F2C4F770000205749F3
:10193000087048708870C87014F018FE0120514972
:1019400008709CE0022C16D151480068007C4F4979
:1019500008704F480068407C48704D480068807CA3
:1019600088704B480068C07CC87014F04BFF0220A0
:101970004449087002E00AF065FD05467FE0052C49
:1019800014D10AF023FD40B142480068804714F0AA
:1019900089FB03203B49087013E014F083FB3E48A9
:1019A000006880470020374908700AE0062C05D1FE
:1019B00014F078FB01203349087002E00AF042FD80
:1019C00005465CE0042535480068401C00B33448F7
:1019D000006832490968B0EB510F19D900242B482F
:1019E0000078304908702948407848702748807846
:1019F00088702648C078C8702B480068401C2A4967
:101A0000086014F0FFFE14F04DFB04201D4908701F
:101A100035E033E00425052C24D10020234908704B
:101A20002048007819490978884211D11D4840782A
:101A30001649497888420BD11A4880781349897829
:101A4000884205D11748C0781049C978884203D028
:101A5000032517480068804714F024FB0320094938
:101A600008700AE0062C05D114F01CFB0120054982
:101A7000087002E00AF0E6FC054600E000BF00BF87
:101A8000284631E78D000020700000207D000020F6
:101A9000A0000020B4000020BC0000209000002026
:101AA00094000020790000209C0000208E0000207F
:101AB000B800002010B5044800780AF017FF06208F
:101AC0000249087010BD0000700000208D00002049
:101AD00002480068401C01490860704794000020DB
:101AE00010B5024801F00CF810BD0000DC0C00201D
:101AF00010B5024801F004F810BD0000540C00209D
:101B000010B5024800F0FCFF10BD0000980C00204A
:101B100030B590F840500124AC40C56B6C6004684F
:101B200063604468102C04D10468A2600468E1601A
:101B300003E00468A1600468E26030BD044A1070EC
:101B4000044A116041F22212034B1A8070470000D0
:101B5000BC010020B8010020BE0100202DE9F043A7
:101B600089B005460F46904600202E4908702E4940
:101B7000086000231A4602212C48007816F056F817
:101B80004FF480732A483946026800200BF014FD98
:101B900086B235202B4632460090254801682348FE
:101BA000007815F023F835E0204800780DF096F91C
:101BB000061E17DDB6F5807F01DD4FF4807602A8A2
:101BC00003AB324600901A4801681848007814F0B8
:101BD00011F886B242461648016804A811F044FE86
:101BE000814618E00AF084FC0446002C07DA0F480E
:101BF00000780AF07BFE002009B0BDE8F0834CB904
:101C000035202B4632460090094801680748007885
:101C100014F0ECFFC8E700BF044800780AF066FE45
:101C20004846E9E7C4010020C0010020BC010020B3
:101C3000B801002002480068401C01490860704754
:101C4000C0010020704772B600BFFEE71FB5044612
:101C500001F07EFB019001F07BFB029001F078FB2C
:101C600003900398009003A12046DDE9012306F0CC
:101C70009BFB1FBD25303858253038582530385843
:101C80000000000001480068704700007C07002049
:101C900010B51348007898B9124805F018FC48B1FF
:101CA00000BF40F2AB1210A117A006F053FB00BF1B
:101CB000002010BD01200A490870322001F080F98F
:101CC0001A49084805F086FC30B9194B17481949DC
:101CD0000268194805F012FC15480068E9E70000A1
:101CE00030060020E80900202E2E5C4253505C5341
:101CF00054545332324854525C5354545332324841
:101D000054522E63000000005B205354545332326F
:101D1000485452205D5B25733A25645D20696E69E5
:101D200074206661696C65640D0A0A001006002063
:101D30002C06002014060020D8550020F8B50446D3
:101D400000260020009000BF94F82400012801D153
:101D50000220F8BD012084F8240000BF2046FFF7D0
:101D600050FC06462046FFF77BFC0646002E69D154
:101D7000A06A20F4885040F00200A062022001F026
:101D80006FFF34490968B1FBF0F04000009002E0B9
:101D90000098401E009000980028F9D120688068C3
:101DA00040F008002168886001F0CCFA054616E092
:101DB00001F0C8FA401B0A2811D92068806800F099
:101DC000080060B1A06A20F0020040F01000A0629C
:101DD00000BF002084F8240000BF0120B9E720687C
:101DE000806800F008000028E2D12068806840F098
:101DF00004002168886001F0A5FA054616E001F0AC
:101E0000A1FA401B0A2811D92068806800F004005C
:101E100060B1A06A20F0020040F01000A06200BF94
:101E2000002084F8240000BF012092E72068806829
:101E300000F004000028E2D1A06A20F0020040F087
:101E40000100A06200BF002084F8240000BF3046DB
:101E50007FE700000C00002038B502460023002078
:101E6000009000BF92F82400012801D1022038BD63
:101E7000012082F8240000BF4868072812D21068A9
:101E8000406B0C79641E04EB84051F24AC40A04316
:101E90000D796D1E05EB85050C68AC402043146878
:101EA000606327E048680D2812D21068006B0C7937
:101EB000E41F04EB84051F24AC40A0430D79ED1F03
:101EC00005EB85050C68AC4020431468206311E0E5
:101ED0001068C06A0C790D3C04EB84051F24AC40EB
:101EE000A0430D790D3D05EB85050C68AC40204302
:101EF0001468E06208680A2812D31068C0680C7879
:101F00000A3C04EB44050724AC40A0430D780A3D8D
:101F100005EB45058C68AC4020431468E0600FE099
:101F2000106800690C7804EB44050724AC40A0431A
:101F30000D7805EB45058C68AC40204314682061A2
:101F40000868102802D00868112827D1174C10689B
:101F5000A0421ED11068806800F40000F0B910683B
:101F6000806840F400001468A0600868102815D14B
:101F70000F4800680F4CB0FBF4F000EB800040000D
:101F8000009002E00098401E009000980028F9D1CF
:101F900004E0906A40F020009062012300BF00201E
:101FA00082F8240000BF184661E7000000240140C9
:101FB0000C00002040420F0001460868C06C7047CA
:101FC0002DE9F0410446002700250026A84614B953
:101FD0000120BDE8F081A06810B1207D00B100BFF4
:101FE000A06A30B90020E06284F82400204600F0A6
:101FF00097F82046FFF705FB0746A06A00F010009F
:10200000002873D1002F7ED1A06A20F4885040F0C0
:102010000200A0623F4AD4E90001904208D1E06981
:10202000B0F5402F02D14FF4002002E0E06900E05B
:10203000E0690143207B41EA40000643A068B0F517
:10204000807F02D0A068012802D14FF4807000E0A8
:1020500000200543207D012811D1207B38B9A069DB
:10206000401E4FF4006141EA4030054307E0A06A9A
:1020700040F02000A062E06A40F00100E0622068C9
:10208000406820F4694028432168486020688068DF
:1020900021490840304321688860A068B0F5807FFE
:1020A00002D0A068012802D14FF4807000E0002027
:1020B000B0F5807F03D1208A401E4FEA0058206887
:1020C000C06A20F4700040EA08002168C8622068F5
:1020D000806812490840B04209D10020E062A06A3D
:1020E00020F0020040F00100A06211E00BE0A06AC5
:1020F00020F0020040F01000A062E06A40F0010011
:10210000E062012704E0A06A40F01000A06201270D
:1021100038465EE7003C0140FDF7E1FFFE0E1FFF81
:1021200010B586B0044600200290039004900590FC
:1021300013492068884221D100BF1248806940F4C9
:102140000070104988610846806900F400700190B1
:1021500000BF00BF00BF0846806940F004008861EE
:102160000846806900F00400019000BF00BF032012
:102170000290039002A9044800F036FF06B010BD9B
:10218000002401400010024000080140F8B5044658
:102190000D46002600200090002701F0D3F80646E7
:1021A0002068806800F4807050B1A06A40F0200080
:1021B000A06200BF002084F8240000BF0120F8BD09
:1021C0002068406800F4807020BB2068C06A00F47A
:1021D0007000F8B917E0681CA8B125B101F0B2F899
:1021E000801BA8420FD92068006800F0020050B997
:1021F000A06A40F00400A06200BF002084F8240020
:1022000000BF0320DBE72068006800F00200002820
:10221000E1D053E0022001F023FD38490968B1FB09
:10222000F0F021680969364A114091B92168C968FE
:102230009211114069B921680969324A114031B9D6
:102240002168C9689211114009B9142117E02921A8
:1022500015E0216809692B4A114021B92168C96834
:102260009211114041B121680969274A114029B9E9
:102270002168C968114009B9542100E0FC2100FB24
:1022800001F718E0681C98B125B101F05BF8801BDC
:10229000A8420DD90098B8420AD2A06A40F00400C2
:1022A000A06200BF002084F8240000BF032086E75E
:1022B0000098401C00900098B842E3D36FF01200E1
:1022C00021680860A06A40F40070A06220688068FD
:1022D00000F46020B0F5602F0DD1207B58B9A06AC2
:1022E00020F48070A062A06A00F4805018B9A06A3F
:1022F00040F00100A062002061E700000C00002017
:1023000024499224922449124992240070B504462B
:10231000002500BF94F82400012801D1022070BDDF
:10232000012084F8240000BF2046FFF799F90546F4
:10233000002D77D1A06A40F20121884340F48070DB
:10234000A0623C492068884208D13B48006800F4FC
:10235000702008B9012002E0002000E0012078B1DF
:10236000A06A20F48010A0622068406800F48060B9
:1023700000B3A06A20F4005040F48050A06219E03D
:10238000A06A40F48010A0622B49091F206888428F
:1023900003D028492068884204D12748006800F407
:1023A000806000E0002028B1A06A20F4005040F4D2
:1023B0008050A062A06A00F4805020B1E06A20F052
:1023C0000600E06201E00020E06200BF002084F827
:1023D000240000BFC01E216808602068806800F4E7
:1023E0006020B0F5602F16D112492068884208D1CC
:1023F0001148006800F4702008B9012002E00020B4
:1024000000E0012038B12068806840F4A000216815
:1024100088600CE006E02068806840F48010216845
:10242000886004E000BF002084F8240000BF284634
:1024300075E70000002801400424014070B50446FF
:10244000002500BF94F82400012801D1022070BDAE
:10245000012084F8240000BF2046FFF7D2F805468B
:102460002DB9A06A20F4885040F00100A06200BF9E
:10247000002084F8240000BF2846E8E770472DE9D3
:10248000F05F04460025206846692068D0F8049073
:10249000206887682068D0F80CA02068D0F810B0B9
:1024A0002068D0F8188006F00100002855D007F009
:1024B0000100C0B101202168886007F0020018B156
:1024C000204600F017FA0EE007F0040010B145F4C2
:1024D000006508E007F0080010B145F4805502E0FF
:1024E000204600F006FA07F48070C8B14FF48070FF
:1024F0002168886007F4007018B1204600F0FCF9EC
:102500000EE007F4806010B145F4005508E007F4D0
:10251000006010B145F4804502E0204600F0EBF980
:1025200007F48030C8B14FF480302168886007F428
:10253000003018B1204600F0E1F90EE007F48020E9
:1025400010B145F4004508E007F4002010B145F44F
:10255000803502E0204600F0D0F906F0080038B1DE
:102560000AF0100020B145F4007510202168C86001
:1025700006F0040040B10AF0080028B108202168E4
:10258000C860204600F0B0F906F0020038B12068BB
:10259000C06800F0030010B1204600F0A6F906F074
:1025A000400038B10BF0100020B145F480651020D8
:1025B0002168086106F0200040B10BF0080028B146
:1025C000082021680861204600F090F906F010000C
:1025D00038B12068006900F0030010B1204600F017
:1025E00086F906F4003040B109F0100028B110203F
:1025F00021684860204600F07BF906F4803040B145
:1026000009F0080028B1082021684860204600F041
:1026100076F906F4004088B309F0040078B306F4B4
:10262000807020B108F0010008B145F0010506F402
:10263000007020B108F0020008B145F0020506F470
:10264000806020B108F0040008B145F0040506F4EC
:102650000060A0B108F0700088B108F07000402858
:1026600017D006DC10280BD020280CD0302819D128
:102670000CE0502810D0602814D110E01DE019E0C3
:1026800045F008050FE045F010050CE045F0200589
:1026900009E045F0400506E045F0800503E045F41B
:1026A000807500E000BF00BF2068806920F07000E6
:1026B000216888610420216848602DB1606A284340
:1026C00060622046FFF7DAFEBDE8F09F70B5044671
:1026D0000CB9012070BD94F8200010B9204600F01C
:1026E000AFF82068006840F001002168086000F041
:1026F00029FE05460DE000F025FE401B0A2808D9FA
:10270000606A40F400306062052084F820000120F7
:10271000E0E72068406800F001000028EBD0206866
:10272000006820F002002168086000F00BFE0546FA
:102730000DE000F007FE401B0A2808D9606A40F44B
:1027400000306062052084F820000120C2E7206884
:10275000406800F002000028EBD1207E012806D15D
:102760002068006840F080002168086005E020686B
:10277000006820F0800021680860607E012806D192
:102780002068006840F040002168086005E020688B
:10279000006820F0400021680860A07E012806D172
:1027A0002068006840F020002168086005E020688B
:1027B000006820F0200021680860E07E012806D132
:1027C0002068006820F010002168086005E020689B
:1027D000006840F0100021680860207F012806D1C1
:1027E0002068006840F008002168086005E0206863
:1027F000006820F0080021680860607F012806D189
:102800002068006840F004002168086005E0206846
:10281000006820F0040021680860D4E90201084340
:1028200021690843616908436168491E08432168BA
:10283000C86100206062012084F82000002049E780
:1028400010B586B0044600200290039004900590D5
:102850002249206888423ED100BF2148C06940F02B
:1028600000701F49C8610846C06900F000700190FF
:1028700000BF00BF00BF0846806940F004008861C7
:102880000846806900F00400019000BF00BFC81432
:10289000029000200390049002A9124800F0A4FBCB
:1028A0004FF480500290022003900320059002A96B
:1028B0000C4800F099FB00221146142001F05CF94D
:1028C000142001F049F900221146162001F054F9B4
:1028D000162001F041F906B010BD00000064004070
:1028E0000010024000080140704770477047704771
:1028F0007047704770477047704770477047704720
:102900000146002291F82100022808D004208863A3
:1029100000BF002081F8200000BF01207047086838
:10292000006820F00E000B6818600868006820F04E
:1029300001000B68186091F8403001209840CB6B83
:102940005860012081F8210000BF002081F820009C
:1029500000BF1046E2E7000070B50446002594F879
:102960002100022803D00420A0630125C1E02068D3
:10297000006820F00E00216808602068006820F0E0
:102980000100216808605C492068884252D95A4990
:1029900078392068884201D1012047E056496439DE
:1029A0002068884201D1102040E053495039206806
:1029B000884201D1801539E04F493C39206888426E
:1029C00001D1801432E04C4928392068884202D174
:1029D0004FF480302AE0484914392068884202D1F7
:1029E0004FF4801022E044492068884201D140041D
:1029F0001CE042492068884201D1012016E03F498D
:102A000014312068884201D110200FE03B49283161
:102A10002068884201D1801508E038493C3120689F
:102A2000884201D1801401E04FF480303349091FFE
:102A3000086051E0304978392068884201D101208E
:102A400047E02D4964392068884201D1102040E0D8
:102A5000294950392068884201D1801539E026493A
:102A60003C392068884201D1801432E0224928395B
:102A70002068884202D14FF480302AE01E49143980
:102A80002068884202D14FF4801022E01A49206861
:102A9000884201D140041CE018492068884201D1D5
:102AA000012016E0154914312068884201D1102018
:102AB0000FE0124928312068884201D1801508E0D2
:102AC0000E493C312068884201D1801401E04FF466
:102AD0008030094980394860012084F8210000BF16
:102AE000002084F8200000BF606B10B12046616BAD
:102AF0008847284670BD000080000240080402405C
:102B000070B50446E06B05682068066894F84010CC
:102B1000042088402840002875D006F004000028D2
:102B2000FAD02068006800F0200028B9206800680A
:102B300020F0040021680860D5492068884254D9F3
:102B4000D34978392068884201D1042049E0D0492E
:102B500064392068884201D1402042E0CC49503994
:102B60002068884201D100153BE0C9493C39206802
:102B7000884202D14FF4804033E0C54928392068AB
:102B8000884202D14FF480202BE0C14914392068DB
:102B9000884202D14FF4800023E0BD49206888427A
:102BA00001D1C0041DE0BB492068884201D1042046
:102BB00017E0B84914312068884201D1402010E064
:102BC000B44928312068884201D1001509E0B14993
:102BD0003C312068884202D14FF4804001E04FF43C
:102BE0008020AC49091F086054E0A9497839206861
:102BF000884201D104204AE0A5496439206888420E
:102C000002D1402043E04CE0A1495039206888427D
:102C100001D100153BE09E493C392068884202D131
:102C20004FF4804033E09A4928392068884202D125
:102C30004FF480202BE0964914392068884202D155
:102C40004FF4800023E092492068884201D1C004FB
:102C50001DE090492068884201D1042017E08D4989
:102C600014312068884201D1402010E08949283180
:102C70002068884201D1001509E086493C3120686E
:102C8000884202D14FF4804001E04FF48020804917
:102C900080394860E06A002802D02046E16A88470F
:102CA000F4E094F84010022088402840002871D0B9
:102CB00006F002000028FAD02068006800F020002A
:102CC00040B92068006820F00A00216808600120EF
:102CD00084F821006E492068884254D96C497839BB
:102CE0002068884201D1022049E06949643920689E
:102CF000884201D1202042E065495039206888424D
:102D000001D140153BE062493C392068884202D13C
:102D10004FF4005033E05E4928392068884202D1E0
:102D20004FF400302BE05A4914392068884202D110
:102D30004FF4001023E056492068884201D18004F6
:102D40001DE054492068884201D1022017E0514912
:102D500014312068884201D1202010E04D492831EB
:102D60002068884201D1401509E04A493C31206879
:102D7000884202D14FF4005001E04FF40030454941
:102D8000091F086054E0424978392068884202D11E
:102D900002204AE057E03E4964392068884201D168
:102DA000202042E03A4950392068884201D140153C
:102DB0003BE037493C392068884202D14FF400504B
:102DC00033E0334928392068884202D14FF400307B
:102DD0002BE02F4914392068884202D14FF40010AB
:102DE00023E02B492068884201D180041DE0294955
:102DF0002068884201D1022017E02649143120685A
:102E0000884201D1202010E02249283120688842E0
:102E100001D1401509E01F493C312068884202D1A8
:102E20004FF4005001E04FF40030194980394860F8
:102E300000BF002084F8200000BFA06A30B3204605
:102E4000A16A884722E094F8401008208840284072
:102E5000E0B106F00800C8B12068006820F00E005C
:102E60002168086094F8401001208840E16B4860B8
:102E70000120A06384F8210000BF002084F8200016
:102E800000BF206B10B12046216B884770BD000049
:102E900080000240080402400146002209B90120D6
:102EA00070471E4B086898420BD21D4B0868C01A29
:102EB0001423B0FBF3F08000086419480838C86395
:102EC0000AE0164B0868C01A1423B0FBF3F0800028
:102ED000086412480838C863022081F82100086895
:102EE000026843F6F0708243D1E901031843CB68CE
:102EF00018430B6918434B6918438B691843CB6916
:102F0000184302430868026000208863012081F8AA
:102F10002100002081F8200000BFC1E70804024022
:102F2000080002402DE9F04104460D4616461F46B2
:102F30004FF0000800BF94F82000012802D10220C1
:102F4000BDE8F081012084F8200000BF94F8210042
:102F500001282CD1022084F821000020A0632068E1
:102F6000006820F00100216808603B46324629468F
:102F70002046FEF7CDFDE06A30B12068006840F0E1
:102F80000E00216808600BE02068006820F0040053
:102F9000216808602068006840F00A002168086025
:102FA0002068006840F001002168086006E000BF6A
:102FB000002084F8200000BF4FF002084046BFE721
:102FC00070B5044600F0BEF906462546681C10B1EF
:102FD00004480078054400BF00F0B4F9801BA84203
:102FE000FAD370BD080000202DE9F84702460023FF
:102FF0009C467BE14FF0010808FA03F4D1F8008009
:1030000008EA0400A0427DD1DFF8F4A2D1F80480E0
:10301000A8EB0A09D0453AD014DCB8F1030F50D020
:1030200009DCB8F1000F31D0B8F1010F1CD0B8F1B4
:10303000020F49D120E0B8F1110F18D0B8F1120FEA
:1030400042D11EE0B9F5881F25D006DCB9F5803FD6
:1030500020D0B9F5801F37D11AE0B9F5001F18D07C
:10306000B9F5041F30D117E0D1F80CC02DE0D1F82C
:103070000C8008F1040C28E0D1F80C8008F1080C51
:1030800023E0D1F80C8008F10C0C1EE000BF00BF5B
:1030900000BF00BF00BF00BFD1F80880B8F1000F2B
:1030A00002D14FF0040C0BE0D1F80880B8F1010F09
:1030B00003D14FF0080C146102E04FF0080C54618A
:1030C00003E04FF0000C00E000BF00BFFF2801D874
:1030D000904601E002F104084646FF2802D84FEA74
:1030E000830803E0A3F108084FEA88084746D6F8AA
:1030F00000804FF00F0909FA07F928EA09080CFACD
:1031000007F900E07AE048EA0908C6F80080D1F83B
:10311000048008F08058B8F1805F6FD100BFDFF8FD
:10312000E481D8F8188048F00108DFF8D891C9F890
:103130001880C846D8F8188008F00108CDF800803B
:1031400000BF00BF4FEAB9384FEA930958F8295039
:103150004FEA83784FEA18794FF00F0808FA09F818
:1031600025EA0805DFF8A081424502D14FF00008AA
:1031700024E0DFF89881424502D14FF001081DE0BC
:10318000DFF88C81424502D14FF0020816E0DFF8EB
:103190008481424502D14FF003080FE0DFF87881C7
:1031A000424502D14FF0040808E0DFF87081424543
:1031B00002D14FF0050801E04FF006084FEA83798D
:1031C0004FEA197908FA09F848EA0505DFF850814D
:1031D0004FEA930948F82950D1F8048008F4801880
:1031E000B8F5801F0BD1DFF83C81D8F8008048EAA1
:1031F0000008DFF83091C9F800800AE075E0DFF8D8
:103200002481D8F8008028EA0008DFF81891C9F86E
:103210000080D1F8048008F40018B8F5001F0ED122
:10322000DFF8008108F10408D8F8008048EA0008B7
:10323000DFF8F09009F10409C9F800800DE0DFF82B
:10324000E48008F10408D8F8008028EA0008DFF8D4
:10325000D49009F10409C9F80080D1F8048008F479
:103260000038B8F5003F0ED1DFF8B880A8F10408A7
:10327000D8F8008048EA0008DFF8A890A9F104090E
:10328000C9F800800DE0DFF89C80A8F10408D8F8A8
:10329000008028EA0008DFF88C90A9F10409C9F839
:1032A0000080D1F8048008F48038B8F5803F0ED152
:1032B000DFF87080A8F10808D8F8008048EA000814
:1032C000DFF86090A9F10809C9F800800DE0DFF887
:1032D0005480A8F10808D8F8008028EA0008DFF830
:1032E0004490A9F10809C9F800805B1CD1F800805E
:1032F00028FA03F8B8F1000F7FF47CAEBDE8F88738
:10330000000011100010024000080140000C0140B4
:10331000001001400014014000180140001C014051
:103320000800014008040140024693680B400BB1BD
:10333000012000E0002070470AB1016101E00B04A8
:1033400003617047014800687047000000000020DA
:103350000148006870470000E8F7FF1F70B5044699
:103360000CB9012070BD94F83D0028B9002084F804
:103370003C00204600F046FB242084F83D002068F5
:10338000006820F00100216808602068006840F4AF
:103390000040216808602068006820F4004021682F
:1033A000086000F06FFE05465C496068884206D8F8
:1033B0005B48854201D2012007E0002005E0594822
:1033C000854201D2012000E00020012800D1C9E798
:1033D0005548B5FBF0F62068406820F03F003043C8
:1033E000216848604D496068884201D8701C07E038
:1033F0004FF4967070434FF47A71B0FBF1F0401CBB
:103400002168096A21F03F010843216808624349A5
:103410006068884214D8681E61684900B0FBF1F00A
:10342000401CC0F30B00042801D204203DE0681EBC
:1034300061684900B0FBF1F0401CC0F30B0034E0C0
:10344000A06838B9681E616801EB4101B0FBF1F07A
:10345000401C0AE0681E616801EBC10202EB011129
:10346000B0FBF1F0401C40F48040C0F30B0008B901
:1034700001201AE0A06848B9681E616801EB4101AB
:10348000B0FBF1F0401CC0F30B000CE0681E61685B
:1034900001EBC10202EB0111B0FBF1F0401CC0F3E3
:1034A0000B0040F4804040F400402168C9694CF6AC
:1034B000FF72914308432168C861D4E907010843BA
:1034C0002168096821F0C001084321680860D4E937
:1034D000031008432168896848F2FF32914308438A
:1034E00021688860D4E9050108432168C96821F092
:1034F000FF0108432168C8602068006840F00100AF
:103500002168086000202064202084F83D0000200D
:10351000206384F83E0000BF24E70000A08601007D
:1035200080841E0000093D0040420F002DE9FE4F3F
:1035300004460F4690469946DDE90CAB0E9E0020EE
:103540000290FFF7FFFE054694F83D00202872D157
:1035500019230122CE492046009502F084FC10B1C7
:103560000220BDE8FE8F00BF94F83C00012801D185
:103570000220F6E7012084F83C0000BF20680068C4
:1035800000F0010028B92068006840F001002168BF
:1035900008602068006820F400602168086022202C
:1035A00084F83D00402084F83E0000202064C4F8E8
:1035B00024A0A4F82AB0608D2085B648E0624B466E
:1035C000424639462046CDE9006502F0F9FA08B1D5
:1035D0000120C6E7208D88B900BF00200190206837
:1035E0004069019020688069019000BF00BF206899
:1035F000006840F40070216808604BE0208D0128CD
:103600001AD12068006820F480602168086072B6D2
:1036100000BF002001902068406901902068806907
:10362000019000BF00BF2068006840F4007021686E
:10363000086062B62EE029E1208D022819D12068A9
:10364000006840F400602168086072B600BF002086
:10365000019020684069019020688069019000BF56
:1036600000BF2068006820F480602168086062B6AE
:1036700010E02068006840F480602168086000BFA6
:1036800000200190206840690190206880690190C5
:1036900000BF00BFEBE0208D03287DD8208D0128DE
:1036A00015D12A463146204602F0B9FC08B1012066
:1036B00057E720680069616A0870606A401C6062B0
:1036C000208D401E2085608D401E6085CFE0208DBE
:1036D00002282CD1334600226F492046009502F083
:1036E000C2FB08B101203CE772B62068006840F4D4
:1036F00000702168086020680069616A0870606A6B
:10370000401C6062208D401E2085608D401E6085BB
:1037100062B620680069616A0870606A401C606275
:10372000208D401E2085608D401E60859FE03346C1
:10373000002259492046009502F095FB08B101206E
:103740000FE72068006820F480602168086072B686
:1037500020680069616A0870606A401C6062208DA0
:10376000401E2085608D401E60854C4800681921F0
:10377000B0FBF1F04FF47A71B0FBF1F0C0EBC00098
:1037800000EB8000029000BF0298401E0290029859
:10379000A8B90020206300E039E0202084F83D0033
:1037A000002084F83E00206C40F02000206462B6C7
:1037B00000BF002084F83C0000BF0120D1E6206853
:1037C0004069C0F380000028DED02068006840F423
:1037D00000702168086020680069616A0870606A8A
:1037E000401C6062208D401E2085608D401E6085DB
:1037F00062B620680069616A0870606A401C606295
:10380000208D401E2085608D401E60852FE02A4659
:103810003146204602F003FC08B10120A1E62068F1
:103820000069616A0870606A401C6062208D401EF9
:103830002085608D401E608520684069C0F380004F
:10384000A8B1208D032805D12068006820F480608D
:103850002168086020680069616A0870606A401C1D
:103860006062208D401E2085608D401E6085208D09
:1038700000287FF410AF202084F83D00002084F859
:103880003E0000BF84F83C0000BF6AE6022068E604
:10389000020010000000FFFF040001000C000020E7
:1038A0002DE9FC5F04460F4690469946DDE90CABD6
:1038B0000E9EFFF747FD054694F83D0020287DD178
:1038C000192301224D492046009502F0CCFA10B18F
:1038D0000220BDE8FC9F00BF94F83C00012801D104
:1038E0000220F6E7012084F83C0000BF2068006851
:1038F00000F0010028B92068006840F0010021684C
:1039000008602068006820F40060216808602120B9
:1039100084F83D00402084F83E0000202064C4F874
:1039200024A0A4F82AB0608D20853548E0624B467B
:10393000424639462046CDE9006502F0F1F908B16A
:103940000120C6E731E02A463146204602F0ACFBB2
:1039500050B1206C042805D12068006840F4007044
:10396000216808600120B4E7606A00782168086176
:10397000606A401C6062208D401E2085608D401E64
:10398000608520684069C0F3800070B1208D60B10F
:10399000606A007821680861606A401C6062208D5E
:1039A000401E2085608D401E6085208D0028CAD174
:1039B0002A463146204602F023FA00E01CE050B1CE
:1039C000206C042805D12068006840F4007021684C
:1039D000086001207DE72068006840F400702168DD
:1039E0000860202084F83D00002084F83E0000BFDD
:1039F00084F83C0000BF6CE702206AE70200100078
:103A00000000FFFF10B586B004460020029003902E
:103A10000490059015492068884225D100BF1448BC
:103A2000806940F00800124988610846806900F00A
:103A30000800019000BF00BFC02002901220039038
:103A40000320059002A90B48FFF7CEFA00BF0848F3
:103A5000C06940F400100649C8610846C06900F416
:103A60000010019000BF00BF06B010BD0054004020
:103A700000100240000C0140034800680349097827
:103A80000844014908607047000000200800002039
:103A900010B50848006840F010000649086003208F
:103AA00000F0A8F80F2000F007F800F02BF8002035
:103AB00010BD00000020024070B504460E4800789A
:103AC0004FF47A71B1FBF0F00C490968B1FBF0F5E5
:103AD000284601F001F908B1012070BD102C07D271
:103AE00000222146501E00F047F80548046001E01E
:103AF0000120F2E70020F0E7080000200C00002081
:103B00000400002008B500BF1148806940F00100A2
:103B10000F4988610846806900F00100009000BFED
:103B200000BF00BF0846C06940F08050C861084629
:103B3000C06900F08050009000BF00BF00BF054981
:103B4000486820F0E06040F00070486000BF08BDA9
:103B5000001002400000014001460846002809DB31
:103B600000F01F0301229A4043099B0003F1E02368
:103B7000C3F8002100BF70472DE9F05F80460D4675
:103B80001646002704F050FC074639462A463346BD
:103B900001F00700C0F1070ABAF1040F02D94FF093
:103BA000040A01E0C0F1070AD14600F1040ABAF1A3
:103BB000070F02D24FF0000A01E0A0F1030AD44639
:103BC0004FF0010A0AFA09FAAAF1010A0AEA020AFE
:103BD0000AFA0CFA4FF0010B0BFA0CFBABF1010BDC
:103BE0000BEA030B4AEA0B042146404604F024FC8E
:103BF000BDE8F09F00BF00F00702064B19684FF6C2
:103C0000FF031940044B0B4343EA0221014B1960A7
:103C100000BF70470CED00E00000FA0500BF00BFD8
:103C200000BF00BF00BFBFF34F8F00BF00BF00BF8A
:103C30000948006800F4E06008490843001D06498F
:103C4000086000BF00BF00BFBFF34F8F00BF00BFC1
:103C500000BF00BF00BFFDE70CED00E00000FA056B
:103C60002DE9F04706464FF0000800250027002404
:103C7000A146042E37D004DC012E3CD0022E6CD19C
:103C800060E0082E33D0102E67D1364844680068B3
:103C900000F0807008B33448C4F38341475C04F4F7
:103CA000803078B12F484068C0F340402F4911F868
:103CB000008004F4803040B12D48B0FBF8F000FBE8
:103CC00007F502E02B4807FB00F52648406800F4A2
:103CD0008000B0F5800F01D1A94603E06800032100
:103CE000B0FBF1F93AE000F0EDF9814636E000F082
:103CF000E9F9814632E01B48046A04F44070B0F5EB
:103D0000807F05D104F0020010B14FF4004918E0A3
:103D100004F44070B0F5007F07D11248406A00F00B
:103D2000020010B149F640490BE004F44070B0F5D0
:103D3000407F06D10B48006800F4003008B14FF214
:103D400024490BE000F0AEF906494968C1F381311E
:103D5000491C4900B0FBF1F900E000BF00BF484634
:103D6000BDE8F0870010024040A7020850A70208F3
:103D700000127A0000093D00F8B50446002600252F
:103D8000207800F0010000286BD000274348C0696C
:103D900000F0805070B900BF4048C06940F08050CA
:103DA0003E49C8610846C06900F08050009000BFDD
:103DB00000BF01273A48006800F48070B0B9384865
:103DC000006840F4807036490860FFF7BBFA064689
:103DD00006E0FFF7B7FA801B642801D90320F8BD7D
:103DE0002F48006800F480700028F2D02B48006A49
:103DF00000F440752DB3A08800F44070A84220D094
:103E00002648006A20F440750120264908600020F9
:103E100008602248056205F0010090B1FFF792FAB0
:103E2000064608E0FFF78EFA801B41F2883188428F
:103E300001D90320D3E71948006A00F002000028E6
:103E4000F0D01648006A20F44070616808431349B6
:103E50000862012F04D10846C06920F08050C86173
:103E600000BF207800F00200022807D10B4840680C
:103E700020F44040A168084308494860207800F0D9
:103E80001000102807D10548406820F480006169BF
:103E90000843024948600020A1E7000000100240EA
:103EA000007000404004424270B504460D460CB913
:103EB000012070BD5A48006800F00700A8420ED2E9
:103EC0005748006820F00700284355490860084615
:103ED000006800F00700A84201D00120E9E720783F
:103EE00000F0020002281DD1207800F00400042810
:103EF00005D14C48406840F4E0604A494860207869
:103F000000F00800082805D14648406840F4605099
:103F1000444948604348406820F0F000A1680843E5
:103F200040494860207800F0010078B360680128BB
:103F300006D13C48006800F4003090B90120B8E791
:103F40006068022806D13748006800F0007040B968
:103F50000120AEE73348006800F0020008B90120F4
:103F6000A7E73048406820F00300616808432D4906
:103F70004860FFF7E7F9064609E0FFF7E3F9801B21
:103F800041F28831884202D9032092E707E02548B0
:103F9000406800F00C006168B0EB810FEDD1204863
:103FA000006800F00700A8420ED91D48006820F004
:103FB000070028431A4908600846006800F0070017
:103FC000A84201D0012074E7207800F00400042802
:103FD00007D11448406820F4E060E16808431149C3
:103FE0004860207800F00800082808D10D48406893
:103FF00020F46050216940EAC1000A49486000F09D
:1040000061F808494968C1F30311074A515CC84087
:104010000649086006480068FFF74EFD002048E7A3
:10402000002002400010024052A702080C000020AD
:10403000040000200F2202600D4A526802F00302C1
:1040400042600B4A526802F0F0028260084A5268ED
:1040500002F4E062C260064A526802F46052D2087A
:104060000261044A126802F007020A607047000009
:104070000010024000200240014800687047000024
:104080000C00002000B5FFF7F7FF04494968C1F3B1
:104090000221034A515CC84000BD000000100240EC
:1040A00062A7020800B5FFF7E7FF04494968C1F3BA
:1040B000C221034A515CC84000BD0000001002400C
:1040C00062A7020870B5002100220024002300200E
:1040D000134D696801F00C05F5B1042D02D0082DCF
:1040E00019D101E00F4819E00F4DC1F38346AB5DD4
:1040F00001F4803555B10A4D6D68C5F340450B4E4E
:10410000725D084D5D43B5FBF2F402E0084D03FB20
:1041100005F4204602E000BF024800BF00BF70BDAA
:104120000010024000127A002EA702083EA70208E3
:1041300000093D00F8B504460CB90120F8BD20780F
:1041400000F00100002878D0F848406800F00C002A
:1041500004280CD0F548406800F00C00082811D164
:10416000F248406800F48030B0F5803F0AD1EF4853
:10417000006800F4003000285FD0606800285CD13F
:104180000120DBE700BF6068B0F5803F06D1E7485B
:10419000006840F48030E549086028E0606858B95C
:1041A000E248006820F48030E04908600846006872
:1041B00020F4802008601AE06068B0F5A02F0BD1D1
:1041C000DA48006840F48020D84908600846006852
:1041D00040F4803008600AE0D448006820F4803061
:1041E000D24908600846006820F48020086000BFBB
:1041F000606888B1FFF7A6F8054606E0FFF7A2F869
:10420000401B642801D9032098E7C848006800F4DF
:1042100000300028F2D010E0FFF794F8054606E0E1
:10422000FFF790F8401B642801D9032086E7BF48B8
:10423000006800F400300028F2D1207800F002007D
:10424000022857D1B948406800F00C0050B1B74877
:10425000406800F00C00082818D1B448406800F409
:10426000803098B9B148006800F0020020B12069A0
:10427000012801D0012061E7AC48006820F0F80077
:10428000616940EAC100A949086033E02069E8B1EA
:104290000120A7490860FFF755F8054606E0FFF73B
:1042A00051F8401B022801D9032047E79F480068C6
:1042B00000F002000028F2D09C48006820F0F800CE
:1042C000616940EAC1009949086013E000209849FB
:1042D0000860FFF737F8054606E0FFF733F8401BA4
:1042E000022801D9032029E79048006800F0020065
:1042F0000028F2D1207800F0080008282DD1A0690C
:10430000B8B101208B490860FFF71CF8054606E0AC
:10431000FFF718F8401B022801D903200EE7834855
:10432000406A00F002000028F2D0012002F0E4FE12
:1043300013E000207F490860FFF704F8054606E017
:10434000FFF700F8401B022801D90320F6E6774862
:10435000406A00F002000028F2D1207800F004004A
:10436000042873D100277148C06900F0805070B9EB
:1043700000BF6E48C06940F080506C49C861084673
:10438000C06900F08050009000BF00BF01276A485C
:10439000006800F48070B0B96748006840F480702D
:1043A00065490860FEF7CEFF054606E0FEF7CAFF46
:1043B000401B642801D90320C0E65F48006800F470
:1043C00080700028F2D000BFE068012806D157486D
:1043D000006A40F001005549086227E0E06858B9DA
:1043E0005248006A20F00100504908620846006AFD
:1043F00020F00400086219E0E06805280BD14B4862
:10440000006A40F00400494908620846006A40F02A
:10441000010008620AE04548006A20F001004349B3
:1044200008620846006A20F00400086200BFE068E5
:10443000A0B1FEF787FF054609E0FEF783FF401BAA
:1044400041F28831884202D9032077E622E03748DA
:10445000006A00F002000028EFD012E0FEF772FFC1
:10446000054608E0FEF76EFF401B41F288318842A6
:1044700001D9032062E62D48006A00F002000028FE
:10448000F0D1012F05D12948C06920F0805027497B
:10449000C86100BFE069C8B32448406800F00C0060
:1044A000082860D0E069022848D100202049086629
:1044B000FEF748FF054606E0FEF744FF401B0228D2
:1044C00001D903203AE61948006800F0007000287E
:1044D000F2D1206AB0F5803F07D11448406820F43B
:1044E0000030A168084311494860D4E90801084335
:1044F0000E49496821F4741108430C4948600120B1
:104500000B490866FEF71EFF054607E03DE0FEF793
:1045100019FF401B022801D903200FE60348006859
:1045200000F000700028F2D02FE0000000100240E0
:1045300000004242800442420070004000201449C2
:104540000866FEF7FFFE054606E0FEF7FBFE401B91
:10455000022801D90320F1E50E48006800F0007040
:104560000028F2D111E0E069012800D1E6E5094810
:10457000466806F48031206A814204D106F4701145
:10458000606A814201D00120D8E50020D6E5000014
:10459000000042420010024010B504460CB9012050
:1045A00010BD606A38B96068B0F5827F00D105E05F
:1045B0000021E16102E00021216161610021A1622D
:1045C00094F8510028B9002084F85000204600F0EB
:1045D00043F8022084F851002068006820F0400071
:1045E00021680860A08800F48270218901F40441E8
:1045F0000843A18901F400610843217C01F0020114
:104600000843217D01F001010843218B01F4007171
:104610000843217F01F0380108432021095D01F0A2
:1046200080010843218D01F400510843216808608E
:104630000421A06901EA1040216848602068C0692F
:1046400020F400602168C86100206065012084F8C2
:1046500051000020A4E7000010B586B004460020F9
:1046600002900390049005903449206888422ED12E
:1046700000BF3348806940F4805031498861084662
:10468000806900F48050019000BF00BF00BF084661
:10469000806940F0040088610846806900F00400E9
:1046A000019000BF00BFA0200290022003900320D1
:1046B000059002A92348FEF797FC402002900020B5
:1046C0000390049002A91F48FEF78EFC33E01E49B8
:1046D000206888422FD100BF1948C06940F480404B
:1046E0001749C8610846C06900F48040019000BFC6
:1046F00000BF00BF0846806940F008008861084696
:10470000806900F00800019000BF00BF4FF4204016
:104710000290022003900320059002A90B48FEF7A7
:1047200063FC4FF48040029000200390049002A9A3
:104730000648FEF759FC06B010BD000000300140ED
:10474000001002400008014000380040000C014009
:104750002DE9F8430446884616461D4694F8510054
:10476000012802D00220BDE8F8836068B0F5827F9E
:104770000CD1A06850B9042084F851003346424659
:1047800041462046009500F083F9ECE7FEF7DAFD9C
:104790000746B8F1000F00D00EB90120E3E700BFD3
:1047A00094F85000012801D10220DCE7012084F8B0
:1047B000500000BF042084F8510000206065C4F858
:1047C0003880A687E6872063A086E0862064606440
:1047D000A068B0F5004F0BD12068006820F04000C1
:1047E000216808602068006820F480402168086023
:1047F0002068006800F04000402805D0206800686C
:1048000040F0400021680860E06830BB21E020688B
:10481000806800F0010050B12068007BA16B087037
:10482000A06B401CA063E08F401EE08711E0FEF704
:1048300089FDC01BA84201D3681C00B94DB90120F5
:1048400084F8510000BF002084F8500000BF03200E
:1048500089E7E08F0028DAD125E021E02068806830
:1048600000F0010050B12068C068A16B0880A06B07
:10487000801CA063E08F401EE08711E0FEF762FD20
:10488000C01BA84201D3681C00B94DB9012084F8AF
:10489000510000BF002084F8500000BF032062E7F1
:1048A000E08F0028DAD13A462946204602F02CFD56
:1048B00008B120206065012084F8510000BF00206D
:1048C00084F8500000BF606D08B101204BE7002064
:1048D00049E72DE9F84304460F4616461D46FEF704
:1048E00031FD8046B14694F85100012802D00220E3
:1048F000BDE8F88307B10EB90120F9E700BF94F8CD
:104900005000012801D10220F2E7012084F8500074
:1049100000BF032084F85100002060652763A6864D
:10492000E686A063A087E08760642064A068B0F595
:10493000004F0BD12068006820F04000216808601B
:104940002068006840F480402168086020680068A2
:1049500000F04000402805D02068006840F040008A
:1049600021680860E068B0F5006F37D1606810B169
:10497000B9F1010F09D1206B00882168C860206B54
:10498000801C2063E08E401EE08623E02068806863
:1049900000F0020002280AD1206B00882168C8605C
:1049A000206B801C2063E08E401EE08612E0FEF744
:1049B000C9FCA0EB0800A84201D3681C00B94DB99E
:1049C000012084F8510000BF002084F8500000BF8F
:1049D00003208DE7E08E0028D8D136E0606810B162
:1049E000B9F1010F09D1206B007821680873206BA1
:1049F000401C2063E08E401EE08623E02068806833
:104A000000F0020002280AD1206B007821680873A8
:104A1000206B401C2063E08E401EE08612E0FEF713
:104A200091FCA0EB0800A84201D3681C00B94DB965
:104A3000012084F8510000BF002084F8500000BF1E
:104A4000032055E7E08E0028D8D14246294620466B
:104A500002F096FC08B120206065A06850B900BF44
:104A6000002000902068C068009020688068009056
:104A700000BF00BF012084F8510000BF002084F86F
:104A8000500000BF606D08B1012031E700202FE722
:104A90002DE9FE4F04460F4690461D460C9E012010
:104AA0000190FEF74FFC814694F851B06068029087
:104AB000AA46BBF1010F0BD00298B0F5827F04D15A
:104AC000A06810B9BBF1040F02D00220BDE8FE8F30
:104AD0001FB1B8F1000F00D00DB90120F6E700BFFB
:104AE00094F85000012801D10220EFE7012084F85A
:104AF000500000BF94F85100042802D0052084F82B
:104B0000510000206065C4F83880E587A5872763D9
:104B1000E586A586206460642068006800F0400097
:104B2000402805D02068006840F0400021680860F7
:104B3000E068B0F5006F52D1606810B1BAF1010FB2
:104B400009D1206B00882168C860206B801C20631D
:104B5000E08E401EE0863BE02068806800F00200A6
:104B6000022810D1E08E70B1019801280BD1206B82
:104B700000882168C860206B801C2063E08E401E86
:104B8000E086002001902068806800F0010068B194
:104B9000E08F58B12068C068A16B0880A06B801CB2
:104BA000A063E08F401EE08701200190FEF7CAFB62
:104BB000A0EB0900B0420BD3701C48B1012084F86F
:104BC000510000BF002084F8500000BF03207DE7A3
:104BD000E08E0028C0D1E08F0028BDD152E060688F
:104BE00010B1BAF1010F09D1206B00782168087368
:104BF000206B401C2063E08E401EE0863CE0206875
:104C0000806800F00200022810D1E08E70B1019897
:104C100001280BD1206B007821680873206B401CA1
:104C20002063E08E401EE0860020019020688068AE
:104C300000F0010068B1E08F58B12068C068A16B36
:104C40000870A06B401CA063E08F401EE08701202D
:104C50000190FEF777FBA0EB0900B04201D3701C76
:104C600000B94EB9012084F8510000BF002084F83B
:104C7000500000BF032029E7E08E0028BFD1E08F5D
:104C80000028BCD14A463146204602F079FB40B1AB
:104C90002020606500BF002084F8500000BF012084
:104CA00014E7A06850B900BF002000902068C068D9
:104CB000009020688068009000BF00BF012084F849
:104CC000510000BF002084F8500000BF606D08B1A3
:104CD0000120FBE60020F9E670B504462546681E73
:104CE000B0F1807F01D301200FE0681E4FF0E0217A
:104CF00048610F214FF0FF3003F09EFB00204FF082
:104D0000E021886107200861002070BD704770476E
:104D100030B502460B4600BF92F83C00012801D195
:104D2000022030BD012082F83C0000BF022082F842
:104D30003D00106844681068816824F070041868A9
:104D4000044310684460144D1068A84213D0134DFA
:104D50001068A8420FD01068B0F1804F0BD0104DF2
:104D60001068A84207D00F4D1068A84203D00E4D1E
:104D70001068A84205D121F08001586801431068ED
:104D80008160012082F83D0000BF002082F83C00D5
:104D900000BF00BFC5E70000002C01400034014007
:104DA0000004004000080040000C004010B504461C
:104DB0000CB9012010BD94F83D0028B9002084F8FA
:104DC0003C00204600F026F8022084F83D00211D1A
:104DD000206802F011FD012084F8460000BF84F82D
:104DE0003E0001213F200155402001554120015541
:104DF00000BF00BF012084F8420043200155442039
:104E000001554520015500BF012084F83D000020D8
:104E1000D0E7000038B504462068B0F1804F0DD1CE
:104E200000BF1448C06940F001001249C86108463B
:104E3000C06900F00100009000BF19E00E49206831
:104E4000884215D100BF0B48C06940F002000949F3
:104E5000C8610846C06900F00200009000BF00BFB2
:104E6000002211461D20FEF787FE1D20FEF774FE6E
:104E700038BD00000010024000040040014691F8D7
:104E80003D00012801D001207047022081F83D003B
:104E90000868C06840F001000B68D860164B0868CD
:104EA000984213D0154B086898420FD00868B0F1AB
:104EB000804F0BD0124B0868984207D0114B0868FE
:104EC000984203D0104B086898420CD1086880685B
:104ED00000F00702062A0CD00868006840F00100C4
:104EE0000B68186005E00868006840F001000B6876
:104EF00018600020C8E70000002C01400034014089
:104F00000004004000080040000C00402DE9F04182
:104F100004460D46002700BF94F83C00012802D14A
:104F20000220BDE8F081012084F83C0000BF02208F
:104F300084F83D002068866826F0770626F47F46D0
:104F4000206886602868502833D00CDC202850D098
:104F500004DC00284BD0102851D149E0302849D03A
:104F600040284CD139E060282DD0702807D0B0F50A
:104F7000805F03D0B0F5005F41D10DE041E0D5E99D
:104F800002136A68206802F09EFC2068866846F07A
:104F900077062068866034E0D5E902136A682068E5
:104FA00002F091FC2068806840F4804021688860AD
:104FB00027E0EA686968206802F076FD50212068E1
:104FC00002F08CFC1DE0EA686968206802F07FFD51
:104FD0006021206802F082FC13E0EA6869682068BA
:104FE00002F062FD4021206802F078FC09E000BF79
:104FF00000BF00BF2968206802F070FC01E00127B3
:1050000000BF00BF012084F83D0000BF002084F8ED
:105010003C0000BF384684E7704770B504462068FE
:10502000C5682068066906F00200022819D105F05B
:105030000200022815D1401F216808610120207755
:105040002068806900F0030018B12046FFF7E4FFF4
:1050500005E0204600F0CEF8204600F082F900205E
:10506000207706F00400042819D105F00400042874
:1050700015D1C0432168086102202077206880692B
:1050800000F4407018B12046FFF7C6FF05E0204647
:1050900000F0B0F8204600F064F90020207706F018
:1050A0000800082819D105F00800082815D1C043C8
:1050B00021680861042020772068C06900F003009F
:1050C00018B12046FFF7A8FF05E0204600F092F84F
:1050D000204600F046F90020207706F01000102846
:1050E00019D105F01000102815D1C04321680861BE
:1050F000082020772068C06900F4407018B120466D
:10510000FFF78AFF05E0204600F074F8204600F023
:1051100028F90020207706F0010048B105F00100D1
:1051200030B16FF0010021680861204600F094F969
:1051300006F08000802809D105F08000802805D184
:10514000C043216808612046FFF7E0FD06F04000FB
:10515000402809D105F04000402805D1C04321680E
:105160000861204600F08AF906F02000202809D1C5
:1051700005F02000202805D1C043216808612046A1
:10518000FFF7C5FD70BD000010B586B004460020D5
:1051900002900390049005902068B0F1804F21D1D7
:1051A00000BF1148806940F008000F498861084637
:1051B000806900F00800019000BF00BF0820029045
:1051C00002200390059002A90848FDF70DFF00BFDB
:1051D0000749486820F4407040F0E06040F4807077
:1051E000486000BF06B010BD00100240000C014036
:1051F0000000014070472DE9F04104460D46164677
:10520000002700BF94F83C00012802D10220BDE82D
:10521000F081012084F83C0000BF36B1042E1BD081
:10522000082E31D00C2E5ED145E02946206802F0D0
:105230005FFB2068806940F0080021688861206871
:10524000806920F0040021688861206880692969EC
:1052500008432168886148E02946206802F080FB05
:105260002068806940F40060216888612068806956
:1052700020F480602168886120688069296940EA9B
:1052800001202168886130E02946206802F0A6FBF1
:105290002068C06940F008002168C8612068C069C2
:1052A00020F004002168C8612068C06929690843AA
:1052B0002168C86119E02946206802F0CBFB20680C
:1052C000C06940F400602168C8612068C06920F4AA
:1052D00080602168C8612068C069296940EA0120AE
:1052E0002168C86101E0012700BF00BF00BF0020A6
:1052F00084F83C0000BF384689E710B504460CB975
:10530000012010BD94F83D0028B9002084F83C002D
:10531000204600F025F8022084F83D00211D206879
:1053200002F06AFA012084F8460000BF84F83E00CB
:1053300001213F200155402001554120015500BF6A
:1053400000BF012084F8420043200155442001554C
:105350004520015500BF012084F83D000020D0E722
:105360007047704770B504460D4615B994F83E0075
:105370000BE0042D02D13F20005D06E0082D02D194
:105380004020005D01E04120005D012801D00120A6
:1053900070BD1DB9022084F83E000EE0042D03D13B
:1053A00002213F20015508E0082D03D102214020B1
:1053B000015502E0022141200155012229462068C1
:1053C00002F070FA1F492068884203D01E49206805
:1053D000884201D1012000E0002028B12068406C03
:1053E00040F400402168486416492068884213D080
:1053F0001549206888420FD02068B0F1804F0BD04B
:1054000012492068884207D011492068884203D099
:105410001049206888420CD12068806800F0070697
:10542000062E0CD02068006840F00100216808605A
:1054300005E02068006840F0010021680860002055
:10544000A6E70000002C01400034014000040040A9
:1054500000080040000C004010B5044606492068D2
:10546000884207D1FCF734FBFCF7E4FB01F01AFE9D
:1054700005F082FE10BD0000000400407047F8B542
:1054800004460D46164694F8420020282DD105B159
:105490000EB90120F8BD0120206300206063324670
:1054A0002946204602F04CFD0746206B012819D101
:1054B00000BF0020009020680068009020684068CD
:1054C000009000BF00BF00BF00BF21680C3151E851
:1054D000001F41F0100021680C3141E80002002A51
:1054E000F3D100E001273846D4E70220D2E70000DC
:1054F00070B504460D4605492068884204D1294606
:1055000003480BF00DFF00E000BF70BD0038014004
:1055100090070020704700002DE9F84F04462068EE
:1055200005682068C668206847694FF00009CA46C8
:1055300005F00F09B9F1000F0AD105F0200038B1CC
:1055400006F0200020B1204602F0FDFBBDE8F88FF8
:10555000B9F1000F7BD007F0010018B906F4907084
:10556000002874D005F0010030B106F4807018B145
:10557000606C40F00100606405F0040030B107F099
:10558000010018B1606C40F00200606405F0020098
:1055900030B107F0010018B1606C40F004006064A5
:1055A00005F0080048B106F0200010B907F001002E
:1055B00018B1606C40F008006064606C002845D051
:1055C00005F0200028B106F0200010B1204602F0BE
:1055D000BAFB20684069C0F3801A606C00F00800D4
:1055E00010B9BAF1000F2CD0204602F053FB20680E
:1055F000406900F0400000B300BF00BF21681431D3
:1056000051E8001F21F040002168143141E80002F8
:10561000002AF3D100BFE06B50B17748E16B4863DB
:10562000E06BFDF799F988B1E06B416B88470DE0BD
:105630002046FFF76FFF09E009E02046FFF76AFF09
:1056400004E02046FFF766FF002060647EE7206BE1
:10565000012877D105F01000002873D006F0100063
:105660000028FAD000BF0020009020680068009059
:1056700020684068009000BF00BF2068406900F0CB
:10568000400000285FD0E06B006840681FFA80F897
:10569000B8F1000F55D0A08D404552DDA4F82E8002
:1056A000E06B8069202843D000BF00BF21680C3127
:1056B00051E8001F21F4807021680C3141E800029C
:1056C000002AF3D100BF00BF00BF2168143151E8A8
:1056D000001F21F001002168143141E80002002A76
:1056E000F3D100BF00BF00BF2168143151E8001F93
:1056F00021F040002168143141E80002002AF3D172
:1057000000BF202084F842000020206300BF00BFBB
:1057100021680C3151E8001F21F0100021680C3184
:1057200041E80002002AF3D100BFE06BFDF7E8F882
:1057300002206063A08DE28D801A81B22046FFF7BF
:10574000D7FE03E742E0A08DE18D401A1FFA80F8F2
:10575000E08DD0B3B8F1000F37D000BF00BF216893
:105760000C3151E8001F21F4907021680C3141E8A0
:105770000002002AF3D100BF00BF00BF216814312E
:1057800051E8001F21F001002168143141E80002B6
:10579000002AF3D100BF202084F8420000202063BB
:1057A00000BF00BF21680C3151E8001F21F010003C
:1057B00021680C3141E80002002AF3D100BF022029
:1057C000606341462046FFF793FEBFE605F0800088
:1057D00030B106F0800018B1204602F015FCB5E6A5
:1057E00005F0400030B106F0400018B1204602F04C
:1057F00087FAABE600BFA9E6597B010810B504465D
:105800000CB9012010BDA06900B100E000BF94F800
:10581000410028B9002084F84000204600F02AF812
:10582000242084F841002068C06820F400502168DA
:10583000C860204602F006FB2068006920F4904012
:10584000216808612068406920F02A0021684861C9
:105850002068C06840F400502168C860002060647F
:10586000202084F8410084F842000020606300BFDB
:10587000C8E7000010B586B00446002002900390EF
:105880000490059080492068884250D100BF7F482D
:10589000806940F480407D4988610846806900F451
:1058A0008040019000BF00BF00BF0846806940F003
:1058B000040088610846806900F00400019000BF80
:1058C00000BF48150290022003900320059002A912
:1058D0006F48FDF789FB4FF4806002900020039031
:1058E000049002A96A48FDF77FFB6A486A4908608C
:1058F000002048600021684881608021C16000214B
:10590000016141618161C161FDF7C6FA08B1FCF72F
:105910009AF900BF6048E063446200BF002211466C
:105920002520FEF729F92520FEF716F9A9E05B49A5
:105930002068884250D100BF5448C06940F400300C
:105940005249C8610846C06900F40030019000BFA8
:1059500000BF00BF0846806940F004008861084627
:10596000806900F00400019000BF00BF0420029095
:10597000022003900320059002A94548FDF734FB5F
:105980000820029000200390049002A94048FDF7EF
:105990002BFB404814304249086000204860002139
:1059A0003F4881608021C1600021016141618161C6
:1059B000C161FDF771FA08B1FCF745F900BF38483D
:1059C000E063446200BF002211462620FEF7D4F8AF
:1059D0002620FEF7C1F854E032492068884250D1B1
:1059E00000BF2A48C06940F480202849C8610846A1
:1059F000C06900F48020019000BF00BF00BF0846CE
:105A0000806940F0080088610846806900F008005D
:105A1000019000BF00BF08150290022003900320F0
:105A2000059002A92048FDF7DFFA4FF400600290CC
:105A300000200390049002A91B48FDF7D5FA1548F1
:105A400028381A4908600020486000211748816002
:105A50008021C1600021016141618161C161FDF767
:105A60001BFA08B1FCF7EFF800BF1048E06344628E
:105A700000BF002211462720FEF77EF82720FEF700
:105A80006BF806B010BD0000003801400010024065
:105A90000008014058000240540C0020004400401F
:105AA000980C002000480040000C0140DC0C002055
:105AB000704770472DE9F84F04460E461746994641
:105AC0004FF0000A94F84100202850D106B117B9D0
:105AD0000120BDE8F88F00206064212084F8410097
