:020000040800F2
:100000001045002005010008872F0008EF2C00088C
:10001000852F00081F0E0008E136000800000000D0
:10002000000000000000000000000000E5300008B3
:100030004310000800000000992F000869310008F3
:100040001F0100081F0100081F0100081F01000810
:100050001F0100081F0100081F0100081F01000800
:100060001F0100081F0100081F0100081F010008F0
:100070001F010008011000081F0100080D100008F2
:100080001F0100081F0100081F0100081F010008D0
:100090001F0100081F0100081F0100081F010008C0
:1000A0001F0100081F0100081F0100081F010008B0
:1000B000CD3100081F0100081F0100081F010008C2
:1000C0001F0100081F0100081F0100081F01000890
:1000D0001F010008A13600081F010008C1360008F2
:1000E0001F0100081F0100081F010008DFF810D0E1
:1000F00000F028FC00480047999C0008AFF30080FE
:10010000104500200648804706480047FEE7FEE706
:10011000FEE7FEE7FEE7FEE7FEE7FEE7FEE7FEE7B7
:10012000CB310008ED000008202A04DB203A21FA38
:1001300002F00021704721FA02F3D040C2F1200200
:10014000914008431946704740EA01039B0703D0DA
:1001500009E008C9121F08C0042AFAD203E011F806
:10016000013B00F8013B521EF9D27047D2B201E0C8
:1001700000F8012B491EFBD270470022F6E710B5AC
:1001800013460A4604461946FFF7F0FF204610BD05
:1001900030B505462A460B4612F8010B13F8014B01
:1001A00008B1A042F8D01CB1002802D06D1CF1E7C4
:1001B000284630BDCAB2401E10F8011F8A4202D044
:1001C0000029F9D100207047421C10F8011B0029BA
:1001D000FBD1801A704710B5002200E0521C835CEE
:1001E0008C5CA34201D1002BF8D1D8B2E1B2401A05
:1001F00010BD30B504460020034600E05B1C93426E
:1002000003D2E05CCD5C401BF8D030BD034611F852
:10021000012B00F8012B002AF9D11846704730B5A0
:1002200003461D783DB10A4612F8014B1CB1AC42A1
:10023000FAD15B1CF5E7181A30BD30B50546002031
:1002400008E00A4602E0A34207D0521C1378002BB4
:10025000F9D1401C2C5C002CF3D130BD0FB400B59B
:100260008DB010A909900B9000914FF0FF300A90CB
:1002700000200C9005480690054807906A4609A89A
:100280000F9900F079F90DB05DF814FB95050008A1
:10029000B30500082DE9FF5F1D464FF0FF3BD5E990
:1002A000014691465F464FF00008A9697F1C0198FE
:1002B0008847296A824688470028F6D1BAF1FF3F6D
:1002C0000CD024F4C064002E19DD600614D5BAF1F8
:1002D0002B0F09D0BAF12D0F0ED103E0584604B010
:1002E000BDE8F09F44F48064A9697F1C01988847A9
:1002F000761E8246002E02DDBAF1300F03D0B9F12E
:10030000000F26D032E0A969761E44F400747F1CE9
:10031000019888478246002E05DDBAF1780F06D095
:10032000BAF1580F03D0B9F1000F10D01EE0B9F1A7
:10033000000F02D0B9F1100F18D1A969761E24F46C
:1003400000747F1C019888478246102002E0082034
:1003500000E00A20814609E008FB0908A969761E29
:1003600044F400747F1C019888478246002E05DD06
:100370004946504600F0EBF80028EDDAE9690198AB
:100380008847A00502D46FF00100A8E7E00725D157
:10039000600613D5600502D5C8F1000000E04046B4
:1003A00029680A1D2A600968220501D5087015E030
:1003B000220701D5088011E008600FE02868011DC0
:1003C00029600068210502D580F8008006E0210739
:1003D00002D5A0F8008001E0C0F8008038467EE732
:1003E0002DE9FF5FD2E901A74FF000089169994616
:1003F0001446DDF838B0464601988847054659EA64
:100400000B0005D009E0A169761C019888470546D4
:10041000216A284688470028F5D1681C03D05FEA86
:10042000CA7005D015E04FF0FF3004B0BDE8F09F72
:100430002068011D2160D0F800800AE05FEACA70E0
:1004400001D108F8015BA169761C7F1E01988847DD
:100450000546002F1ADD681C18D0B9F1000F0DD029
:10046000E81705EBD060421120F01F0059F8221068
:100470002A1A012090400142E0D107E0BBF1000FB1
:10048000DCD1216A284688470028D7D0E169019845
:100490008847BBF1000F07D1002E05DD5FEACA7067
:1004A00002D1002188F80010A068B84203DDBBF13A
:1004B000000F03D017B16FF00100B6E73046B4E784
:1004C00030B50B46014600202022012409E021FA24
:1004D00002F59D4205D303FA02F5491B04FA02F521
:1004E0002844151EA2F10102F1DC30BD2DE9F05FB8
:1004F0000546002092469B46884606468146402493
:100500001BE02846414647462246FFF70DFE53466C
:100510005A46C01A914110D311461846224600F09F
:1005200023FA2D1A67EB01084F46224601200021CD
:1005300000F01AFA17EB00094E41201EA4F1010445
:10054000DFDC484631462A464346BDE8F09F3A285C
:1005500000D2303820F02002412A01D3A2F1370026
:10056000884201D34FF0FF30704700000268114409
:100570001378016018467047D160044951610449FD
:10058000116200211161114600F014BA6D050008D6
:10059000AB090008426842B1016811F8013B23B180
:1005A000521EC0E90012184670470121C160881E22
:1005B000704742685AB1C368016843B983688B4287
:1005C00005D0491E521CC0E90012002070474FF0B0
:1005D000FF3070472DE9FE4F804681EA0300C00FCF
:1005E0000C46009021F0004123F00045B8EB0200DA
:1005F000A94105D24046214690461C460B4602467C
:1006000023F00040104347D0270DC7F30A00C3F37F
:100610000A510290401A019040286BDAC3F313008C
:1006200040F4801B0098924620B10023D2EB030ACD
:1006300063EB0B0B01985946C0F14002504600F0A5
:1006400093F906460D4650465946019A00F09BF92B
:1006500010EB08006141002487EA115284EAE77335
:100660001A4340D0009A62B3019A012A4FEA075216
:1006700015DC001B61EB02014FF0004202EA075259
:10068000CDE90042001C41F5801132462B4600F0B6
:1006900038FB03B0BDE8F08F40462146F9E7001B68
:1006A00061EB0201001C41F5801300185B4120182A
:1006B000A2F5001747EB030140EAD570B6196D416A
:1006C00011E06D084FEA360645EAC0754FEA075259
:1006D000001B61EB0201001C41F5801149084FEA43
:1006E00030000019514132462B4603B0BDE8F04FAF
:1006F00000F0F8BA0098012240000023D0EB02027B
:1007000063EBE073009821464FEAE074B8EB000019
:1007100061EB0401E9E783F000435BE781F000410E
:1007200058E72DE9FE4F81EA030404F0004421F06C
:10073000004100944FF0000B23F0004350EA010405
:100740005ED052EA03045BD0C3F30A54C1F30A55E6
:100750002C44A4F2F3340194A0FB0254C1F313011E
:1007600041F48011C3F3130343F4801301FB0244EB
:1007700000FB034E840A970A44EA815447EA8357F0
:10078000A4FB076802958D0A05FB07854FEA932CA9
:1007900004FB0C542705029D4FEA065847EA16371A
:1007A000B5EB08056EEB070C870E920E47EA811732
:1007B00042EA8312A7FB0201B6EB0B0164EB0004D3
:1007C0002B0D43EA0C335E1844EB1C50DA465146BD
:1007D000E7FB0201C5F313044FEA0B3343EA14535A
:1007E0004FEA0432019C43EA0603A4F10C0402948C
:1007F000009CCDE900B400F084FA03B0BDE8F08FAE
:1008000000200146F9E72DE9F04D81EA030404F0E8
:10081000004B21F0004514464FF0000A23F0004140
:1008200050EA050220D054EA01021DD0C5F30A5750
:100830000246C5F31303C1F31300C1F30A5640F493
:10084000801543F48013A7EB0608101BD64608F268
:10085000FD3873EB050002D308F1010801E092189E
:100860005B41B8F1000F03DA00200146BDE8F08DCE
:1008700000204FF48011064684460EE0171B73EBF0
:10088000050705D3121B63EB050306434CEA010C75
:1008900049084FEA300092185B4150EA0107EDD158
:1008A00052EA030012D082EA040083EA05010843F9
:1008B00005D0101BAB4106D20122002306E0002226
:1008C0004FF0004302E06FF0010253101AEB0600F4
:1008D0004CEB085110EB0A0041EB0B01BDE8F04D69
:1008E00000F000BAC1F30A52C1F3130140F2FF3322
:1008F00041F480119A4202DA00200146704740F22A
:1009000033439A42A2F2334202DC5242FFF70CBC5C
:1009100000F02AB830B5041E71F1000404DB4FF07A
:100920000044404264EB0101141E73F1000405DB36
:100930001C464FF00043524263EB0403994208BF48
:10094000904230BD064C074D06E0E06840F00103E0
:1009500094E8070098471034AC42F6D3FFF7CAFB7F
:10096000A0E80008C0E80008202A04DB203A00FACA
:1009700002F1002070479140C2F1200320FA03F3F6
:10098000194390407047202A06DBCB17203A41FAE2
:1009900002F043EAE07306E041FA02F3D040C2F10C
:1009A00020029140084319467047C0B24FF4F051FD
:1009B00000F0F6B92DE9F34F8BB04FF0000801F1CC
:1009C0000C000C464FF0010B46460DF1080A019051
:1009D0006269012101989047051E2DD0252D2CD04C
:1009E000216A8847C0B16269012101989047216A54
:1009F00088470028F7D1411E62690198904700E0BE
:100A0000761CA1690B988847216A88470028F7D18E
:100A1000E1690B988847DBE7A1690B98884707468F
:100A2000A84201D1761CD3E7E1690B9888477F1C67
:100A300002D1B8F1000F6FD047E1002762693D464F
:100A40003946019890472A2804D16269012101980A
:100A500090470125DFF8889262690121019890474B
:100A6000A0F130010A290AD24F45E5DC07EB8701E6
:100A700000EB4107303FDFD445F01005ECE7E90615
:100A800001D46FF000476C280AD04C2814D0682895
:100A900015D06A280DD074281CD07A281AD01DE0F1
:100AA00062690121019890476C2802D045F0040545
:100AB00014E045F002050DE045F020050AE062690A
:100AC000012101989047682802D045F0080505E00B
:100AD00045F400656269012101989047C4E9015716
:100AE00065283DD019DC58287AD00CDC452837D051
:100AF00004DC252826D0412831D131E046282FD0EA
:100B000047282CD12CE05B2877D0612828D0632897
:100B10007CD0642823D15AE0D1E06F2848D008DC8B
:100B200066281DD067281BD0692821D06E2816D1D1
:100B300027E0702845D0732868D0752847D07828DA
:100B40000DD14DE0A1690B988847054625283FF453
:100B500069AFE1690B9888476D1C3FF46AAFB4E058
:100B600023466A466FF001000B99AFF300809FE0C7
:100B700045F040006060A80723464FF0000236D4DD
:100B80003EE0E8077FF447AF2068011D2160006860
:100B9000290501D506701BE7290701D5068017E74F
:100BA000A90703D5F117C0E9006111E706600FE757
:100BB00045F040006060A80723464FF0080216D4B5
:100BC0001EE040F60E0125EA0100606016E045F0E7
:100BD00040006060A80723464FF00A0207D40FE0E8
:100BE00045F040006060A80708D5234610226FF04A
:100BF00001000B99AFF300805AE007E02346102272
:100C00006FF001000B99FFF745FB51E04FF0000931
:100C10004F464B46632802D05B2807D041E020793D
:100C2000C00601D40120A06001273AE062690121D9
:100C3000019890475E2805D14FF001096269494645
:100C400001989047216939B900210A46534643F873
:100C50002120491C0829FADBB0B3216969B9C11701
:100C600000EBD16253110AEB830122F01F02821ABA
:100C700001200B68904003430B60626901210198D9
:100C800090475D28E8D1B9F1000F09D00020514606
:100C900051F82020D24341F82020401C0828F7DBDF
:100CA00002AB224600976FF001000B99FFF798FB0B
:100CB00000280CDA401C08D1BBF1000F05D04FF022
:100CC000FF300DB0BDE8F08FFFE74046F9E7E907D8
:100CD00001D108F1010806444FF0000B78E600004E
:100CE000CCCCCC0C10B5141E73F1000408DA401CF7
:100CF00041F1000192185B411A4301D120F001003B
:100D000010BD2DE9F04D92469B4611B1B1FA81F22A
:100D100002E0B0FA80F220329046FFF725FE04464A
:100D20000F4640EA0A0041EA0B0153465A4608437F
:100D300013D0114653EA010019D0C8F140025046C1
:100D4000FFF7F2F905460E46504659464246FFF770
:100D50000BFE084305D0012004E020463946BDE8DB
:100D6000F08D0020054346EAE0762C4337430A988D
:100D70006305E40AA0EB08000022FD0A44EA475498
:100D80000A3002D500200146E9E701051019694142
:100D9000DDE9084500196941BDE8F04DA2E7000012
:100DA0007F2801D9002208E0064A02EB5002C00762
:100DB000127800D1120902F00F0201209040084081
:100DC00070470000E8E6000870B58C1810F8015B69
:100DD00015F0070301D110F8013B2A1106D110F8D4
:100DE000012B03E010F8016B01F8016B5B1EF9D1D8
:100DF0002B0705D40023521E0DD401F8013BFAE75E
:100E000010F8013BCB1A921C03E013F8015B01F8C8
:100E1000015B521EF9D5A142D8D3002070BDFEE778
:100E20002DE9F8430F46804600254FF41066062250
:100E30001F493046009502F081FC1D4C20786178F6
:100E4000E2780843A1781143084321790843617986
:100E500008430CD1257008206070DC20A070E5707C
:100E60002571657106222146304602F0D1FC104EF4
:100E70001049403E86F80280F763E07842182179F5
:100E80008B1862794840134450401844B0630422E0
:100E900069464FF4706002F0BBFC04226946900181
:100EA00002F0B6FC0AF03CFA3570BDE8F8830000A9
:100EB00098000020785634122DE9F041464C2078F5
:100EC000062822D0A0784FF4427101EB401002F0C6
:100ED00009FC222805D0002344220221A0780AF030
:100EE0002BFE012509F002FFC2B23B4894F9003005
:100EF000C01D00260127011F4FF00308052B2FD22C
:100F0000DFE803F0060D1C304A000520BDE8F08143
:100F1000067046708670C6700AF01AFB5AE0022A04
:100F20001BD1E16B0A7C02704A7C42708A7C827021
:100F3000C97CC1700AF0F8FB02202BE0052A0AD117
:100F400004F0CCF808B1606A3CE00AF0E9F9E06A24
:100F50008047267004E0062A3AD004F0F3F80546EC
:100F60002846D3E7A2690425531CF9D0E369B3EB03
:100F7000520FF5D902780A7042784A7082788A70E6
:100F8000C078C870A06B401CA0630AF0CDFB0AF0CB
:100F9000C7F904202070E3E70425052ADBD1667039
:100FA0000A7803789A420BD14A7843789A4207D15B
:100FB0008A7883789A4203D1C978C078814202D076
:100FC000A06A032580470AF0ABF984F80080C7E7E0
:100FD0000AF0A6F92770C3E75800002010B5034CAB
:100FE000A07804F0E7F80620207010BD580000201B
:100FF0000248C169491CC1617047000058000020C7
:10100000014800F01BB90000EC070020014800F087
:1010100015B90000A807002030B590F84050012411
:10102000AC40C56B6C60046863604368102B036858
:1010300003D099600068C26030BD9A600068C160EA
:1010400030BD704772B6FEE706490020C861064809
:10105000016941F004010161016941F04001016150
:10106000704700003008002000200240064A00219E
:10107000D16106490A6942F002020A6148610869C1
:1010800040F0400008617047300800200020024016
:10109000044B0022DA61044A136943F0010313612F
:1010A00001807047300800200020024014480022D0
:1010B000C168CB06134904D5CA6942F00202CA616D
:1010C0001022C3685B0705D5CB6943F00103CB61F0
:1010D00042F00402C369DB0707D0CB6943F0040385
:1010E000CB61C16921F00101C161A2F580710139B3
:1010F00001D0C2607047C16921F00101C161704730
:10110000002002403008002070B5054600F064FB66
:101110000646114C09E0681C07D025B100F05CFBC5
:10112000801BA84201D9032070BDE068C007F2D13E
:10113000E068800601D52020E060E068C00605D4A4
:10114000E069C00702D1E068400703D5FFF7AEFFB2
:10115000012070BD002070BD0020024010B590F845
:1011600021100022022905D00421816380F820206B
:10117000012010BD01680B6823F00E030B600168AD
:101180000B6823F001030B6090F84030C46B012121
:1011900001FA03F3636080F8211080F820201046E4
:1011A00010BD000010B590F821100024022903D0D2
:1011B0000421816301243DE001680A6822F00E02E7
:1011C0000A6001680A6822F001020A601A4A01688E
:1011D000914201D1012121E0174A1432914201D1FB
:1011E00010211BE0144A2832914201D1891515E0E3
:1011F000114A3C32914201D189140FE00E4A50321B
:10120000914202D14FF4803108E00B4A643291429E
:1012100002D14FF4801101E04FF08071064A083A84
:101220005160012180F82110002180F82010416BCD
:1012300001B18847204610BD080002402DE9F05F4B
:10124000C16B0C6801680B68D0F840C0042202FA38
:101250000CF2494DDFF824A1494E4A4FDFF828B17E
:10126000DFF828E122422CD05A072AD50A689206D4
:1012700003D40A6822F004020A600168A94201D17D
:10128000042219E0514501D1402215E0B14202D1BA
:101290004FF4806210E0B94202D14FF480420BE07B
:1012A000594502D14FF4802206E0714502D14FF436
:1012B000800201E04FF080622F4908394A60C16A1C
:1012C0003BE04FF0020808FA0CF818EA040F4FF060
:1012D00000094FF0010235D05FEA837832D50B6800
:1012E0009B0605D40B6823F00A030B6080F82120CD
:1012F0000168A94201D1022219E0514501D1202201
:1013000015E0B14202D14FF4007210E0B94202D1AF
:101310004FF400520BE0594502D14FF4003206E081
:10132000714502D14FF4001201E04FF000721249F2
:1013300008394A6080F82090816A00291AD0BDE8F7
:10134000F05F0847082505FA0CF5254212D01B0767
:1013500010D50B6823F00E030B6090F84010C36BA0
:1013600002FA01F15960826380F8212080F8209010
:10137000016BE2E7BDE8F09F080002401C0002405C
:101380003000024044000240580002406C0002401D
:1013900030B528B308C8134914221944B1FBF2F13F
:1013A0008900C16310498163022141771A6843F6BD
:1013B000F0718A43D0E900142143D0E902452C435F
:1013C0002143046921434469214384692143114332
:1013D000196000214163012242770177084630BD40
:1013E000012030BDF8FFFDBF0000024070B504468B
:1013F00090F82000002501280CD0012084F820005E
:1014000094F821600020012E06D084F820000225E7
:10141000284670BD022070BD022684F82160A063BA
:101420002068066826F0010606602046FFF7F4FDF6
:10143000E06A00282068016802D041F00E0106E051
:1014400021F0040101602068016841F00A01016097
:101450002068016841F001010160D9E770B50446D8
:1014600000F0BAF90546601C02D004480078044434
:1014700000F0B2F9401BA042FAD370BD0400002076
:101480002DE9F047054626480F460126017E012931
:101490000FD00121814601762868DFF888804CF260
:1014A0005034022808D0A2462046FFF72DFEA8B1EE
:1014B00031E00220BDE8F0872046FFF725FE08BB9B
:1014C0000120FFF7C1FD2046FFF71EFED8F81010DF
:1014D000064621F00401C8F810101CE04FF0FF3060
:1014E0003860AC6811E02046FFF7C0FD5046FFF7BA
:1014F0000BFED8F81010060021F00201C8F81010F9
:1015000001D03C6007E004F58064D5E9020100EBFE
:101510008120A042E7D8002189F818103046C9E799
:1015200030080020002002400348016941F080019A
:101530000161002070470000002002402DE9F05FAB
:1015400007461C4888460024017E15461E46012990
:1015500009D00121814601764CF2503A5046FFF7FE
:10156000D3FD18B122E00220BDE8F09F012F02D088
:10157000022F00D00427D346DFF83CA022012846E2
:101580003146FEF7D1FD81B208EB4400FFF780FD44
:101590005846FFF7B9FDDAF8102022F00102CAF828
:1015A000102018B9641CE4B2BC42E7D3002289F8C9
:1015B0001820D9E73008002000200240064900200A
:1015C0000A69120607D5054A4A60054A4A60096950
:1015D000090600D50120704700200240230167451D
:1015E000AB89EFCD2DE9F84FDFF8B8910024A9F1D0
:1015F000040B23460F2709F1040AABF1040EC9E0DE
:101600000125A5402A40AA427DD1674ED1F804C0E9
:10161000ACEB0608B44532D014DCBCF1030F3AD071
:1016200009DCBCF1000F2AD0BCF1010F1CD0BCF1C9
:10163000020F31D11DE0BCF1110F17D0BCF1120F18
:101640002AD119E0B8F5881F19D006DCB8F5803F1B
:1016500015D0B8F5801F1FD111E0B8F5001F0ED0CE
:10166000B8F5041F18D10AE0CB6815E0CB681B1D44
:1016700012E0CB6808330FE0CB680C330CE08B68CA
:101680002BB1012B4FF0080303D0456104E0042384
:1016900002E0056100E00023FF2A01D8064601E0D0
:1016A00000F104064FEA840501D9A5F12005D6F81A
:1016B000008007FA05FC28EA0C0803FA05F548EA59
:1016C0000508C6F800804D68ED0062D5374DAE695B
:1016D00046F00106AE61AD6924F0030605F0010590
:1016E0000095334D06EB050CDCF80850A607360FC5
:1016F00007FA06F825EA0805DFF8B880404503D167
:101700004FF0000817E044E0DFF8AC80404502D11C
:101710004FF001080FE0DFF8A480404502D14FF000
:10172000020808E0DFF89880404502D14FF0030836
:1017300001E04FF0040808FA06F848EA0508CCF87A
:1017400008804D68D9F80060ED024D4601D516437A
:1017500000E096432E604D68DAF80060AD02554611
:1017600001D5164300E096432E604D68DBF800601B
:10177000AD035D4601D5164300E096432E604D68EB
:10178000DEF80060ED03754601D5164300E0964390
:101790002E60641C0D682A46E5407FF431AFBDE839
:1017A000F88F0000080401400000111000100240F2
:1017B0000000014000080140000C01400010014001
:1017C000001401408068084000D0012070470AB131
:1017D000016170470904FBE7014880687047000019
:1017E000040000200248816802781144816070473B
:1017F00004000020074810B5016841F010010160A5
:10180000032000F075F80F2000F006F800F024F82F
:10181000002010BD0020024070B50D4D04464FF46D
:101820007A712878B1FBF0F00A490968B1FBF0F051
:1018300000F0F9FD48B9102C07D200222146501EB5
:1018400000F036F800206C6070BD012070BD000013
:1018500004000020100000200C4808B5816941F008
:1018600001018161816901F001010091C16941F0CB
:101870008051C161C06900F0805000900448416807
:1018800021F0E06141F00071416008BD00100240AC
:1018900000000140002809DB00F01F0201219140F7
:1018A0004009800000F1E020C0F8001170470000FE
:1018B000F0B40E4B1B680C46C3F30223C3F10705BB
:1018C000042D00D90425191D072901D2002300E0A9
:1018D000DB1E012606FA05F1491E214099409E4073
:1018E000761E16403143F0BC01F0ECBF0CED00E079
:1018F000064900F0070208684FF6FF03184040EA67
:101900000220034A10430860704700000CED00E01D
:101910000000FA05BFF34F8F05480168054A01F43E
:10192000E06111430160BFF34F8F00BFFDE700008E
:101930000CED00E00400FA052DE9F0470F46050024
:1019400061D0434E306800F00700B84209D23068D9
:1019500020F0070038433060306800F00700B842DC
:1019600051D128683B4C810712D5400703D56068E8
:1019700040F4E06060602878000703D5606840F4B8
:10198000605060606068A96820F0F0000843606003
:101990002878C00728D06868012810D0216802285C
:1019A00010D0890700292EDA616821F00301014374
:1019B0006160FFF711FF804641F288390DE0216830
:1019C0008903EFE78901EDE7FFF706FFA0EB0801C8
:1019D000494502D90320BDE8F0876068696800F0D6
:1019E0000C00B0EB810FEFD1306800F00700B84277
:1019F0000BD9306820F0070038433060306800F0C1
:101A00000700B84201D00120E5E72878400705D556
:101A10006068E96820F4E0600843606028780007A7
:101A200006D56068296920F4605040EAC100606012
:101A300000F038F86168084AC1F30311515CC840EE
:101A40000649086006480068FFF7E6FE0020C2E786
:101A5000002002400010024088E40008100000202E
:101A6000080000200448054900684968044AC1F399
:101A70000221515CC8407047100000200010024055
:101A800098E400080448054900684968044AC1F31D
:101A9000C221515CC8407047100000200010024075
:101AA00098E400080E4A51680E4801F00C03042B1C
:101AB00011D0082B0FD10C48C1F38343C903C05C7C
:101AC0000AD55168084AC1F34041921E515C054A4B
:101AD0005043B0FBF1F070470449484370470000A1
:101AE0000010024000127A0078E4000800093D006E
:101AF0002DE9F84F040070D02078C04DC00749D0C0
:101B00006868C0F38100012807D06868C0F38100CD
:101B1000022809D16868C00306D52868800339D532
:101B200060680028E7D035E06068B0F5803F0BD0F2
:101B300010B1B0F5A02F11D0286820F480302860B3
:101B4000286820F4802002E0286840F48030286073
:101B5000606890B1FFF740FE06460AE0286840F44E
:101B600080202860F0E700BFFFF736FE801B642866
:101B700073D828688003F7D50CE0FFF72DFE0646E2
:101B800005E000BFFFF728FE801B6428F0D8286816
:101B90008003F7D420789A4E80074FF001094FF068
:101BA000000839D5686810F00C0F07D06868C0F3DA
:101BB0008100022809D16868C00306D4286880071C
:101BC00014D52069012808D110E02069B0B1C6F809
:101BD0000090FFF701FE074605E00AE1FFF7FCFD74
:101BE000C01B0228C4D828688007F7D52868616917
:101BF00020F0F80040EAC10028600DE0C6F800803F
:101C0000FFF7EAFD074604E0FFF7E6FDC01B0228E8
:101C100023D828688007F7D4207800072CD5794886
:101C2000A169D9B1C0F80090FFF7D6FD074604E0DE
:101C3000FFF7D2FDC01B02280FD8686A8007F7D5CE
:101C400071484FF4FA510068B0FBF1F0009000BF0A
:101C50000098411E0091FAD20EE080E0C0F80080AA
:101C6000FFF7BAFD074604E0FFF7B6FDC01B0228E8
:101C700075D8686A8007F7D42078400760D5E8698E
:101C80000027C00008D4E86940F08050E861E869A6
:101C9000012700F0805000905C480168C90513D40A
:101CA0000168834641F480710160FFF795FD82462B
:101CB00006E000BFFFF790FDA0EB0A0064284ED8B5
:101CC000DBF80000C005F5D5E06801280AD008B1AE
:101CD000052813D0286A20F001002862286A20F025
:101CE000040002E0286A40F001002862E06841F246
:101CF000883B98B1FFF770FD82460BE0286A40F000
:101D000004002862EEE700BFFFF766FDA0EB0A01C2
:101D100059455AD8286A8007F6D50CE0FFF75CFDD4
:101D2000824605E0FFF758FDA0EB0A0159454CD863
:101D3000286A8007F6D41FB1E86920F08050E86176
:101D4000E06988B36968C1F38101022944D002289F
:101D5000C6F8608004D0FFF73FFD044638E034E069
:101D6000FFF73AFD074604E0FFF736FDC01B0228E7
:101D70002BD828688001F7D4206AB0F5803F05D1C0
:101D80006868A16820F4003008436860D4E908015D
:101D90000843696821F4741108436860C6F86090CC
:101DA000FFF71AFD044606E025E000BFFFF714FD2B
:101DB000001B022809D828688001F7D51BE000BF66
:101DC000FFF70AFD001B022802D90320BDE8F88FA7
:101DD00028688001F4D40EE00128F7D06868226AF0
:101DE00000F48031914204D1616A00F4701088429D
:101DF00001D00120EAE70020E8E7000000100240DF
:101E00000000424280044242100000200070004066
:101E100070B5040009D0606A002540B12561656194
:101E2000A56294F8510040B10CE0012070BD6068DB
:101E3000B0F5827FF4D0E561F2E784F85050204697
:101E400000F040F8022084F851002068016821F079
:101E500040010160A088218900F4827001F40441EE
:101E60000843A18901F400610843217C01F00201CB
:101E70000843217D01F001010843218B01F4007129
:101E80000843217F01F03801084394F8201001F045
:101E900080010843218D01F4005108432168086046
:101EA000A069042101EA1040216848602068C169E6
:101EB00021F40061C1616565012084F851000020B2
:101EC00070BD000030B585B00024009401940294E8
:101ED0000394254D0368254802210322AB421AD101
:101EE000836943F480538361836903F480530493CB
:101EF000836943F00403836180691D4D00F0040091
:101F00000490A020CDE90001039269462846FFF71E
:101F100069FB40201EE0174DAB4222D1C36943F458
:101F20008043C361C36903F480430493836943F02E
:101F3000080383618069104D00F0080004904FF49D
:101F40002040CDE90001039269462846FFF74AFB8D
:101F50004FF48040CDE90004694628460294FFF71B
:101F600041FB05B030BD00000030014000100240D0
:101F70000008014000380040000C01402DE9F84FF6
:101F8000044690F851001D4616460F46012838D1E8
:101F900060684FF00408B0F5827F01D1A06830B3CB
:101FA000FFF71AFC8246002F75D0002E73D094F8EC
:101FB0005000012825D04FF0010984F8509084F892
:101FC00051804FF00008C4F85480A763A687E687C5
:101FD000C4F83080A4F83480A4F83680C4F8408077
:101FE000C4F84480A068B0F5004F0CD015E084F828
:101FF0005180009313460A46204600F01CF9BDE8C4
:10200000F88F0220FBE72068016821F040010160A1
:102010002068016821F48041016020680168490658
:1020200003D4016841F040010160E068C0B134E0D0
:1020300020688168C90709D0007BA16B0870A06B7C
:10204000401CA063E08F401EE08709E0FFF7C4FB5F
:10205000A0EB0A00A84202D3681C01D032E085B38D
:10206000E08F0028E4D11BE020688168C90709D00F
:10207000C068A16B0880A06B801CA063E08F401E2D
:10208000E0870AE0FFF7A8FBA0EB0A00A84203D311
:10209000681C02D016E012E09DB1E08F0028E3D169
:1020A00052462946204600F078FF08B1202060659E
:1020B00084F8519084F85080606D00289FD00120F2
:1020C0009DE7FFE784F8519084F85080032096E75D
:1020D0002DE9F84F984616468A460446FFF77CFBE2
:1020E000814694F8510001281ED1BAF1000F73D037
:1020F000002E71D094F85000012815D0012784F8E3
:102100005070032084F8510000256565C4F830A0A4
:10211000A686E686A563A587E58765642564A0682D
:10212000B0F5004F03D00CE00220BDE8F88F206826
:10213000016821F0400101602068016841F480419C
:10214000016020680168490603D4016841F040013C
:102150000160E068B0F5006F606803D048B3012EFD
:1021600027D047E008B1012E1FD1206B21680088DD
:10217000C86006E020688168890709D5216B098855
:10218000C160206B801C2063E08E401EE0860CE066
:10219000FFF722FBA0EB0901414503D3B8F1FF3F54
:1021A00003D035E0B8F1000F32D0E08E0028E1D145
:1021B00023E0206B21680078087306E020688168BE
:1021C00089070AD5216B09780173206B401C2063B5
:1021D000E08E401EE0860DE02BE0FFF7FDFAA0EB5D
:1021E0000901414503D3B8F1FF3F03D010E0B8F136
:1021F000000F0DD0E08E0028E0D14A46414620462F
:1022000000F0F9FE08B120206065A06830B109E057
:1022100084F8517084F85050032086E72068C16824
:102220008068009084F8517004F8505F606800285E
:10223000F3D0012079E72DE9FF4F81B01D46934689
:1022400004464FF001090E9EFFF7C6FA074694F8C0
:1022500051006168012806D0B1F5827F3CD1A168A8
:10226000C9BB042838D10298002871D0BBF1000FF7
:10227000FBD0002DF9D094F8500001282CD04FF05D
:10228000010A84F850A094F85100042802D00520D7
:1022900084F851004FF00008C4F85480C4F838B0F6
:1022A000E587A58702992163E586A586C4F8408065
:1022B000C4F8448020680168490603D4016841F0ED
:1022C00040010160E068B0F5006F606808D0F0B3CD
:1022D000012D49D081E0FFE7022005B0BDE8F08F75
:1022E00008B1012D39D1206B21680088C860206BAE
:1022F000801C2063E08E401EE0862EE0206881680E
:1023000089070FD5E18E69B1B9F1010F0AD1216BAF
:102310000988C160206B801C2063E08E401EE0862F
:102320004FF0000920688168C9070CD0E18F51B1D6
:10233000C068A16B0880A06B801CA063E08F401E6A
:10234000E0874FF00109FFF747FAC01B01E00BE0FF
:1023500067E0B04201D3701C50D1E08E0028CDD18F
:10236000E08F0028CAD13EE0206B21680078087316
:10237000206B401C2063E08E401EE0862DE020682C
:10238000816889070FD5E18E69B1B9F1010F0AD1D2
:10239000216B09780173206B401C2063E08E401E86
:1023A000E0864FF0000920688168C9070CD0E18FF2
:1023B00051B1C068A16B0870A06B401CA063E08F96
:1023C000401EE0874FF00109FFF706FAC01BB0423C
:1023D00002D3701C01D011E086B1E08E0028CED16E
:1023E000E08F0028CBD13A463146204600F003FE6C
:1023F00050B12020606584F8508012E084F851A02C
:1024000084F85080032068E7A06818B92068C16884
:102410008068009084F851A084F85080606D002896
:10242000F1D0012059E710B5401EB0F1807F01D3F3
:10243000012010BD4FF0E02460610F21601701F012
:1024400041FA0020A06107202061002010BD7047E4
:102450007047000070B590F83C20012A26D0012476
:1024600080F83C40022280F83D2003685A689D684D
:1024700022F070060A6832435A600D4B02689A4295
:1024800008D0B2F1804F05D00A4B9A4202D00A4BD5
:102490009A4204D1496825F080031943916080F87D
:1024A0003D40002180F83C10084670BD022070BD00
:1024B000002C0140000400400008004010B504005A
:1024C00003D094F83D0010B107E0012010BD0020BA
:1024D00084F83C00204600F01FF8022084F83D00FC
:1024E000211D206800F078FE012084F8460084F861
:1024F0003E0084F83F0084F8400084F8410084F8EE
:10250000420084F8430084F8440084F8450084F8CD
:102510003D00002010BD000008B50068B0F1804FFC
:1025200012D10A48C16941F00101C161C0690022AC
:1025300000F00100009011461C20FFF7B9F9BDE83A
:1025400008401C20FFF7A6B908BD0000001002409B
:1025500090F83D10012901D001207047022180F838
:102560003D100168CA6842F00102CA6000680B4968
:10257000884208D0B0F1804F05D00949884202D086
:102580000849884204D1816801F00701062903D077
:10259000016841F00101016000207047002C0140FA
:1025A000000400400008004070B5044690F83C006C
:1025B0000025012817D0012684F83C60022084F809
:1025C0003D002068826822F0770222F47F42826018
:1025D0000868502838D00DDC20284FD005DC90B397
:1025E000102811D14AE0022070BD302846D0402882
:1025F0000AD13BE060282FD070280DD0B0F5805F65
:1026000003D0B0F5005F12D0012584F83D600020B2
:1026100084F83C00284670BDCB68D1E901212068D0
:1026200000F016FE2068816841F0770109E0CB6870
:10263000D1E90121206800F00BFE2068816841F497
:1026400080418160E1E719E0CA684968206800F0CC
:1026500011FE5021206806E0CA684968206800F031
:102660001AFE6021206800F0FDFDCEE7CA684968C7
:10267000206800F0FFFD40212068F4E72268014651
:102680001046F0E770472DE9F04104460068C6683F
:1026900005694FF00007A90713D5B10711D5F91E39
:1026A000016101202077206880698007204602D0E0
:1026B000FFF7E8FF04E000F07EF8204600F07CF829
:1026C0002777680716D5700714D521686FF00400C6
:1026D0000861022020772068806910F4407F20463E
:1026E00002D0FFF7CFFF04E000F065F8204600F0CD
:1026F00063F82777280715D5300713D521686FF0C1
:1027000008000861042020772068C06980072046FF
:1027100002D0FFF7B7FF04E000F04DF8204600F0CC
:102720004BF82777E80616D5F00614D521686FF028
:1027300010000861082020772068C06910F4407FED
:10274000204602D0FFF79EFF04E000F034F8204658
:1027500000F032F82777E80708D0F00706D02168A4
:102760006FF001000861204600F027F8280608D520
:10277000300606D521686FF0800008612046FFF71B
:1027800066FE680608D5700606D521686FF0400021
:102790000861204600F01DF8A8060AD5B00608D545
:1027A00021686FF0200008612046BDE8F041FFF786
:1027B0004FBEBDE8F0817047704710B50068B0F1BA
:1027C000804F05D1FEF714FCBDE8104009F050BA67
:1027D00010BD704738B5044690F84200202801D05B
:1027E000022038BD51B14AB101202063002060634E
:1027F000204600F0D3FE216B012901D0012038BD15
:1028000021680A684968009121680C3151E8002F5D
:1028100042F0100241E80023002BF5D138BD000042
:102820000068034A904202D1024807F00BBF70478C
:10283000003801402004002070470000F8B501680E
:1028400004460868CA684B6910F00F0F4FF0000586
:1028500059D003F0010602F49077374365D0C107E1
:1028600005D0D10503D5616C41F0010161644107D8
:1028700005D5D90703D0616C41F00201616481077D
:1028800005D5D90703D0616C41F0040161640107EB
:1028900007D502F02001314303D0616C41F00801FB
:1028A0006164616C00293AD0800604D5900602D597
:1028B000204600F0B6FD20684069616CC0F38010CE
:1028C000090700D460B3204600F076FD2068406917
:1028D000400621D52068143050E8001F21F0400147
:1028E00040E80012002AF5D1E06BA8B16D494163C0
:1028F000E06BFEF757FC002811D0E06B416B01B094
:10290000BDE8F040084783060FD593060DD5204655
:10291000BDE8F84000F085BD2046FFF78DFFF8BD0B
:102920002046FFF789FF6564F8BD266B2023012E42
:102930007CD1C6067AD5D60678D508684868009056
:1029400048694FF00206400640D5E16B08684068D0
:102950000004000CE8D0A28D8242E5D9E0858869A8
:1029600020282DD020680C3050E8001F21F4807101
:1029700040E80012002AF5D12068143050E8001F0A
:1029800021F0010140E80012002AF5D1206814303E
:1029900050E8001F21F0400140E80012002AF5D164
:1029A00084F84230256320680C3050E8001F21F085
:1029B000100140E80012002AF5D1E06BFEF7CEFBD3
:1029C0006663A08DE18D401A81B22AE0A08DE18D71
:1029D000401A81B2E08D0028A6D00029A4D0226838
:1029E0000C3252E8000F20F4907042E80007002FEC
:1029F000F5D12068143050E8002F22F0010240E8A1
:102A00000027002FF5D184F84230256320680C3070
:102A100050E8002F22F0100240E80023002BF5D1EF
:102A200066632046FFF7FCFEF8BDFFE705062BD5E1
:102A3000150629D594F841002128F5D1A068B0F5F4
:102A4000805F01D12069B0B1206A411C21622168F8
:102A500000784860E08C401E0004000CE084E3D164
:102A60002068C16821F08001C1602068C16841F020
:102A70004001C160D8E7206A0088C0F308004860C0
:102A8000206A801C2062E5E74006CDD55006CBD5F4
:102A9000CA68204622F04002CA6084F8413000F043
:102AA00025F9C1E7BB32000870B5040004D094F8E2
:102AB0004100002510B106E0012070BD84F84050AF
:102AC000204600F023F8242084F841002068C168E3
:102AD00021F40051C160204600F004FD2068016926
:102AE00021F4904101612068416921F02A0141618E
:102AF0002068C16841F40051C1606564202084F8F9
:102B0000410084F842006563002070BD2DE9F0416A
:102B100086B000240094019402940394064603684E
:102B20004348DFF808C102210322051580276345C9
:102B300039D1836943F480438361836903F480431B
:102B40000493836943F0040383618069DFF8E480C0
:102B500000F0040004900802CDE9000103926946E8
:102B60004046FEF73FFDCDE90054694640460294D9
:102B7000FEF738FD314D3048C5E90004C5E902478C
:102B80002C616C61AC612846EC61FEF701FC08B178
:102B9000FEF758FAF5630022114625206E62FEF713
:102BA00087FE25203DE0DFF898C063453BD1C3692F
:102BB00043F48023C361C36903F4802304938369CE
:102BC00043F0080383618069CDE9005100F00800FB
:102BD000CDE903201B4D69462846FEF703FDE814A6
:102BE000CDE90004694628460294FEF7FBFC134D2C
:102BF000114844352838C5E90004C5E902472C616D
:102C00006C61AC612846EC61FEF7C2FB08B1FEF7CF
:102C100019FAF5630022114627206E62FEF748FE7E
:102C20002720FEF737FE06B0BDE8F08100380140EE
:102C3000001002400008014058000240A807002090
:102C400000480040000C0140704770472DE9F843F0
:102C5000044690F84100984616460D46202802D0BA
:102C60000220BDE8F88385B17EB100206064212098
:102C700084F84100FEF7B0FDA6848146E684A06892
:102C80002027B0F5805F02D003E00120E9E720694A
:102C900010B12E4600250EE000260CE080212046D3
:102CA00000F0C4FCA8B9C6B116F8010B2168486051
:102CB000E08C401EE084E08C4B464FF00002CDF8E3
:102CC00000800028EAD14FF04001204600F0AEFC21
:102CD00040B184F841700320C3E735F8020BC0F31C
:102CE0000800E3E784F841700020BAE7704702F07B
:102CF000F1F808F0BBFFFAE70D4808B5416941F06B
:102D0000010141614069002200F00100009011467C
:102D10000D20FEF7CDFD0D20FEF7BCFD0022114673
:102D20000F20FEF7C5FDBDE808400F20FEF7B2BD3D
:102D3000001002402DE9F04385B00024354800948E
:102D4000019402940394816941F0100181618169C9
:102D500001F010010491816941F0200181618169D4
:102D600001F020010491816941F0040181618169D0
:102D700001F004010491816941F0080181618069D9
:102D8000DFF8948000F0080048F21005049000225B
:102D900029464046FEF71BFDDFF8809000223A21CD
:102DA0004846FEF714FD0122170339464846FEF750
:102DB0000EFD0095022601250396CDE901546946D2
:102DC0004046FEF70FFC40F2C130CDE900046946F1
:102DD00048460294FEF706FC0096CDE90154694688
:102DE00048460395FEF7FEFB0320CDE90240CDE9FE
:102DF000007569464846FEF7F5FB3820CDE9000529
:102E0000CDE9024669464846FEF7ECFB05B0BDE851
:102E1000F08300000010024000080140000C014057
:102E2000104810B50E4901604FF4827141600021D5
:102E30008160C1604FF400720161C0E90512102287
:102E4000C0E90721416281620A21C162FEF7E0FF09
:102E5000002803D0BDE81040FEF7F4B810BD000014
:102E600000300140200600200F4810B50D490160D8
:102E70004FF48271416000218160C1604FF40072A3
:102E80000161C0E90512C1610162416281620A21EA
:102E9000C162FEF7BDFF002803D0BDE81040FEF779
:102EA000D1B810BD003800407806002010B586B0BB
:102EB00000241748009401940294039404944FF062
:102EC00080410594016041F61F41C0E9011442F2BE
:102ED0000F71C0E903148461FFF7F0FA08B1FEF73F
:102EE000B1F84FF48050009069460948FFF75CFB49
:102EF00008B1FEF7A7F8049404A905480594FFF764
:102F0000A9FA002801D0FEF79DF806B010BD000018
:102F1000D00600200C4810B50A4901604FF4E13199
:102F20004160002181600C22C160C0E9041281610E
:102F3000C161FFF7B9FD002803D0BDE81040FEF7DE
:102F400081B810BD00380140180700200C4810B5AA
:102F50000A4901604FF4E1314160002181600C2297
:102F6000C160C0E904128161C161FFF79DFD0028C5
:102F700003D0BDE81040FEF765B810BD0048004022
:102F800060070020FEE7FEE700F00F00092801D8E7
:102F900030307047373070477047F8B504464068A6
:102FA0004FF48273984217D1A0684FF48065B0F552
:102FB000004F01D0A8420FD12068066826F04006D5
:102FC00006606068984207D1A068A84204D10092C8
:102FD0000B460022012103E000920B4600228021D3
:102FE000204600F023F8002804D0606D40F0200057
:102FF00060650320F8BDF8B515460E460B460092F5
:1030000004460122022100F011F840B933460022A3
:1030100080212046009500F009F8002804D0606D5A
:1030200040F0200060650320F8BD00002DE9F84362
:103030001E46914688460446089DFEF7CDFB401B80
:10304000351AFEF7C9FB074625480068C0F3CB30A8
:10305000684338E0701C37D0FEF7BEFBC01BA842A7
:1030600003D215B1009860B32CE02068416821F0CC
:10307000E00141606068B0F5827F0BD1A068B0F5D7
:10308000004F02D0B0F5806F04D12068016821F0B4
:1030900040010160A06AB0F5005F09D120680168B5
:1030A00021F4005101602068016841F40051016081
:1030B000012084F85100002084F850000320BDE86E
:1030C000F8830025401E00902068816838EA0100DE
:1030D00004D000214945BDD10020F0E70121F9E7E6
:1030E0001000002070470000034610B5094A002078
:1030F000C3EBC30402EB8402042B01D9012010BDF1
:10310000937B0BB1022010BD137E0BB1517110BD2A
:10311000032010BDA40300202DE9F0410025114F2C
:103120002E4600BFC5EBC50007EB8004207E90B1A2
:103130002079627990420ED0A189A068FEF747FB02
:10314000A189A06802F024F9207162691AB10021F6
:103150002846904706466D1CADB2042DE2D330469A
:10316000BDE8F081A4030020FEF73CBB30B58FB072
:1031700028216846FDF701F814210AA8FCF7FDFF95
:1031800001210804CDE900100024029402250491D5
:10319000CDE907504FF4E01009906846FEF7A8FC0F
:1031A00008B172B6FEE70F20CDE90A054FF4806042
:1031B000CDE90C4002210AA80E94FEF7BDFB0028C1
:1031C00001D072B6FEE70FB030BD70470148FFF77F
:1031D0005ABA0000D0060020F0B50268194B1A4C0C
:1031E0001A4D4FF08047984205D0B84203D0A04214
:1031F00001D0A84203D122F070064A6832439842B7
:1032000005D0B84203D0A04201D0A84203D122F495
:103210004074CA6822434C6922F080022243026053
:103220008A68C2620A688262984201D109690163B0
:10323000012141610169C90703D0016921F0010140
:103240000161F0BD002C0140000400400008004076
:1032500010B5846842EA032224F47F440A432243DF
:10326000826010BD826822F070020A4342F00701BA
:103270008160704710B5036A046A24F00104046297
:10328000846924F0F00444EA021423F00A020A4399
:103290008461026210BD10B5036A046A24F0100450
:1032A0000462846923F0A00324F4704444EA0232E7
:1032B00043EA01118261016210BD10B5406A00212C
:1032C000C185C184FFF7B8FA10BD70B5446A2068A3
:1032D000406994F84110C0F3C0100025212904D1A1
:1032E00018B1E584204600F08EF82068406994F813
:1032F0004210C0F38010222904D118B1E585204680
:1033000000F05AF8606C40F0100060642046FFF74F
:1033100093FA70BD10B50146406A096809684FF01C
:10332000000289062ED4C28501680C3151E8003FA5
:1033300023F4807341E80034002CF5D10168143186
:1033400051E8003F23F0010341E80034002CF5D19F
:103350000168143151E8003F23F0400341E8003494
:10336000002CF5D1202180F84210016B012909D1F0
:1033700001680C3151E8003F23F0100341E80034AC
:10338000002CF5D14263016B012902D0FFF75CFCF0
:1033900010BD818DFFF744FA10BD10B5406A0121C0
:1033A0004163016B012902D0FFF74FFC10BD818DF5
:1033B0004908FFF735FA10BD01680C3151E8002FBC
:1033C00022F4907241E80023002BF5D101681431FA
:1033D00051E8002F22F0010241E80023002BF5D133
:1033E000016B012909D101680C3151E8002F22F04D
:1033F000100241E80023002BF5D1202180F8421073
:1034000000210163704701680C3151E8002F22F060
:10341000C00241E80023002BF5D1202180F84110A3
:10342000704708B590F84210222901D0022008BD4B
:1034300082684FF480539A4201D1016921B1816AB7
:103440009A421BD04AB10AE00268816A5268C2F30C
:1034500008020A80816A891C08E0026972B1026868
:10346000526802F07F020A70816A491C8162C18D34
:10347000491E0904090CC18503D01BE0026852688B
:10348000F1E70168CA6822F02002CA600168CA68D0
:1034900022F48072CA6001684A6922F001024A611E
:1034A000202180F8421000214163026B012A03D0E1
:1034B000FFF7CAFB002008BD016301680C3151E829
:1034C000002F22F0100241E80023002BF5D1016803
:1034D0000A68D20602D50A6849680091818DFFF713
:1034E0009FF9E7E770B5044600680169E26821F4D6
:1034F0004051114301612169A06808436169084393
:103500002168CA6841F20C639A430243CA6020688A
:103510004169A26921F44071114341611E4920684B
:10352000884202D1FEF7AEFA01E0FEF79BFA00EB0B
:10353000C00101EB0012606864218000B2FBF0F36F
:10354000B3FBF1F36FF018067343B2FBF0F5B2FB77
:10355000F0F605EB8305322303EB0515B5FBF1F51A
:10356000B6FBF1F605F0F00505EB0615B2FBF0F63B
:10357000B2FBF0F0B0FBF1F06FF01802504306EB35
:10358000800003EB0010B0FBF1F0216800F00F00A9
:103590002844886070BD00000038014038B5816261
:1035A00004468285002013466064222284F842206B
:1035B000E56B1B4AAA62E56B1A4AEA62E56B1A4A96
:1035C0002A63E26B50630A462168E06B091DFDF730
:1035D0000DFF2068016840680090206948B12068AC
:1035E0000C3050E8001F41F4807140E80012002ABE
:1035F000F5D12068143050E8001F41F0010140E887
:103600000012002AF5D12068143050E8001F41F064
:10361000400140E80012002AF5D1002038BD00002A
:10362000153300089B330008CB3200082DE9F8431E
:10363000984617460D460446089E24E0701C22D08A
:10364000FEF7CAF8A0EB0800B0421AD8CEB1206845
:10365000C168490717D5802D15D0402D13D00168BA
:10366000C94309070FD4016800254068009020462F
:10367000FFF7A2FE0820606484F840500120BDE8F6
:10368000F8830320FBE72068006835EA000004D0D7
:103690000020B842D2D00020F1E70120F9E7000075
:1036A00010B50548FFF7CAF8BDE810404FF4807226
:1036B00002490148FFF78EB81807002020040020B7
:1036C00010B50548FFF7BAF8BDE810404FF4807216
:1036D00002490148FFF77EB860070020200500205E
:1036E000FEE70000F8B5144C0546E06880476069C5
:1036F0008047616AC5F30740C5F3072699B1A26AFE
:103700008AB18DF800008DF801608DF80250032118
:1037100068469047E06980470546A0698047206970
:1037200080472846F8BD216A8847216A3046884785
:10373000216AE8B28847EDE72C0000202DE9F84324
:103740001A4C05461746E0688846804760698047FE
:10375000616AC5F30740C5F30726A1B1A26A92B119
:103760008DF800008DF801608DF802500321684645
:103770009047626A394640469047A0698047206971
:103780008047BDE8F883216A8847216A3046884728
:10379000216AE8B28847002505E0E069804708F81B
:1037A00005006D1CADB2BD42F7D3E6E72C0000204A
:1037B000F8B5164C05460E46E068804760698047BC
:1037C000A26A45F004058AB1280C8DF80000280A89
:1037D0008DF801008DF802508DF8036004216846D1
:1037E0009047A069804720698047F8BD216AC5F3EA
:1037F00007408847216AC5F307208847216AE8B255
:103800008847216A30468847EBE700002C000020FB
:10381000F8B51A4C05461646E0680F4680476069C1
:103820008047A26A45F004059AB1280C8DF8000083
:10383000280A8DF801008DF8025003216846904750
:10384000A26A314638469047A06980472069804780
:10385000F8BD216AC5F307408847216AC5F30720F0
:103860008847216AE8B28847002504E0216A785D2C
:1038700088476D1CADB2B542F8D3E5E72C000020B7
:103880000FB4054B10B503A9044A029800F0FCF8E8
:1038900010BC5DF814FB000045550008140400201E
:1038A00037B514460846064B6A46214600F0ECF848
:1038B00004466946002000F06AFC20463EBD000038
:1038C0008F4100080907090E002804DB00F1E02001
:1038D00080F80014704700F00F0000F1E02080F83D
:1038E000141D704702E008C8121F08C1002AFAD14F
:1038F00070477047002001E001C1121F002AFBD170
:10390000704700002DE9FF5F82B00021DDE904303F
:10391000020DDDF840B0034318D044F61050A2F277
:10392000FF3242431514119801281FD0A5EB0B005C
:10393000401C5FEA000A4FF000064E4FDFF8389156
:10394000B046504615D5CAF1000413E01198012481
:103950004AA3012801D16FEA0B010298119AC0E92C
:103960000031C0E9024206B0BDE8F09FCBF1000093
:10397000DFE704460021404A491842EB0450CDE9F4
:10398000001012E0E00707D032463B464046494669
:10399000FCF7C7FE8046894632463B46104619462C
:1039A000FCF7BFFE06460F466410002CEAD1DDE9A5
:1039B0000401DDE90023BAF1000F06DAFCF7B1FEDD
:1039C00042464B46FCF7ADFE05E0FCF71CFF4246C5
:1039D0004B46FCF718FF04460E460022284BFCF726
:1039E00099FF03D84FF0FF30014607E00022254B36
:1039F00020463146FCF7EEFDFCF774FF102409E089
:103A0000002C0ADB0A220023FCF770FD039B3032F6
:103A10001A55641E50EA0102F2D1641C039AC4F1E3
:103A200011031444119A012A03D0012208430DD135
:103A30000AE0084304D000204FF0110B119072E708
:103A4000A3EB0B056D1E0DE05B4504DD4FF000029E
:103A500005F1010504E003DA4FF00002A5F10105CC
:103A6000002AECD002981199C0E90231C0E9004562
:103A700079E70000000014400000F03F3000000033
:103A80000000F0430000E03F2DE9FF4F95B09A465B
:103A9000884606460025EEE1252877D100242746F2
:103AA000F94A0121039400E0044316F8013F203B4A
:103AB00001FA03F01042F7D130782A2811D06FF0C4
:103AC0002F033078A0F13002092A16D8039A44F067
:103AD000020402EB820203EB42021044761C0390C4
:103AE000EFE758F8042B0392002A03DA504244F41B
:103AF0000054039044F00204761C30782E2816D12E
:103B000016F8010F44F004042A280DD06FF02F029C
:103B10003078A0F13003092B09D807EB870302EBBB
:103B20004303C718761CF3E758F8047B761C3078FB
:103B30006C280FD006DC4C2817D068280DD06A28D6
:103B400014D104E0742810D07A280FD10DE044F489
:103B500000140AE044F4801401E044F44014727844
:103B6000824202D104F58014761C761C30786628D7
:103B70000BD013DC582877D009DC002875D04528F5
:103B8000F6D04628F4D047281AD193E118E06328EC
:103B900035D0642879D0652812D18BE1702873D094
:103BA00008DC6728F1D069286FD06E280DD06F2807
:103BB00006D1ACE073282CD0752874D0782853D067
:103BC0005246179990476D1C54E1C4F302500228E5
:103BD00009D003280DD0D8F8001004280DD00D60AE
:103BE00008F1040846E1D8F80010EA17C1E90052CC
:103BF000F6E7D8F800100D80F2E70D70F0E718F83E
:103C0000041B8DF8001000208DF80100EB46012008
:103C100003E058F804BB4FF0FF3061074FF000019C
:103C200002D40DE009F101018946B9420FDA81455C
:103C3000F8DB1BF809100029F4D108E009F10101B3
:103C400089468142FADB1BF809100029F6D1039856
:103C50005346A0EB090721463846179A00F080FA30
:103C6000284400EB090507E044E008E10DE01BF8FB
:103C7000010B524617999047B9F10109F7D2534603
:103C800021463846179AF2E039E00A21C4F302527D
:103C90004FF0000B0091022A06D058F8040BC11710
:103CA000032A09D00AE023E008F1070020F0070208
:103CB000F2E80201904605E000B2C117042A01D1E2
:103CC00040B2C117002906DA0A460021404261EBE2
:103CD00002012D2202E0220504D52B228DF80420BA
:103CE000012203E0E20701D02022F7E7914657E0E6
:103CF0000A2100E010214FF0000B00910BE0102191
:103D00004FF0000B44F004040827009103E0082062
:103D10004FF0000B0090C4F30252022A05D058F86D
:103D2000040B0021032A08D008E008F1070020F066
:103D30000702F2E80201904603E080B2042A00D1B3
:103D4000C0B24FF0000922072AD53278702A07D076
:103D5000DDF800C08CF0100C5CEA0B0C05D00EE016
:103D600040228DF80420012208E050EA010306D029
:103D700030238DF804308DF8052002229146009BF7
:103D800083F0080353EA0B030AD150EA010201D180
:103D9000620705D530228DF804204FF001097F1EFF
:103DA0003278582A04D039A20C920CAA02920BE065
:103DB0003BA2F9E75B46009AFCF798FB0C9B9B5CE7
:103DC000029A521E0292137050EA0102F2D1029836
:103DD00004A9081A00F1200B600702D524F48034EE
:103DE00000E001275F4502DDA7EB0B0000E00020AB
:103DF00000EB0B01009003984944401A0390E00344
:103E000006D453462146179A039800F0A9F90544B1
:103E1000002706E001A85246C05D179990476D1C27
:103E20007F1C4F45F6DBE0030CD553462146179A1D
:103E3000039800F095F9054404E0302052461799A4
:103E400090476D1C0099481E00900029F5DC08E0A1
:103E50000298029952460078491C0291179990479E
:103E60006D1CBBF10001ABF1010BF1DC5BE100F07B
:103E700065F90544761C307800287FF40DAE19B042
:103E80002846BDE8F08F00000928010030313233A8
:103E90003435363738396162636465660000000086
:103EA0003031323334353637383941424344454670
:103EB00000000000600700D4062708F1070020F08A
:103EC0000700F0E80223804603F0004C5FEA0C0094
:103ED00001D097A009E0200501D596A005E0E007F4
:103EE00001D095A001E0AFF24C001390307823F0A0
:103EF000004365280CD006DC452809D046281DD093
:103F000047287FD13BE0662818D067287AD136E071
:103F10000021112F01DB112000E0781CCDE9000108
:103F200004A90CA8FFF7EEFCDDE90D010C9A4FF097
:103F3000000B07F10109109200914EE04FF0004094
:103F40000097CDE9011004A90CA8FFF7DBFCDDE91F
:103F50000D020C9B0F994FF0000B914610930092AD
:103F600011B9791C00EB0109B7EB090003D4C0F1CA
:103F7000FF3B07F10109A9EB0700019042E0012F87
:103F800000DA01270021112F01DD112000E0384661
:103F9000CDE9000104A90CA8FFF7B4FCDDE90D018F
:103FA0000C9A00914FF0000BB946109221070FD4E4
:103FB000009A4A4503DA914601E0A9F10109B9F1F5
:103FC000010F05DD109AA9F10101515C3029F4D0EF
:103FD000B84202DA10F1040F03DA0121CDE9011031
:103FE00010E0002803DC8344A9EB000102E0411C3F
:103FF000494500DD8946A0EB0B00401C01904FF0C5
:1040000000400290200705D40198484502DB4FF09C
:10401000FF30019000208DF84B0002980DF14B0706
:10402000B0F1004F25D002200C902B200D9002986B
:1040300000280CDA404202902D200D9007E00A2162
:104040000298FCF73DFA3031029007F8011D0C99F7
:10405000481E0C900029F2DC02980028EFD1791E4E
:104060000D980870307800F0200040F0450007F807
:10407000020D11A8C01BC01D02901398007800B15A
:10408000012000EB0901019801EBE0710298014465
:104090000398401A401E0390E00306D4534621467D
:1040A000179A039800F05CF805441398007818B14B
:1040B0005246179990476D1CE00323D5534621467D
:1040C000179A039800F04CF805441BE0BBF1000F71
:1040D00007DB0098584504DD1098179910F80B007D
:1040E00001E0179930205246904701980BF1010BDF
:1040F000401E05F10105019004D12E20524617996A
:1041000090476D1CB9F10001A9F10109DEDC05E061
:1041100017F8010B5246179990476D1C0299481EDB
:1041200002900029F4DC53462146179A03989EE634
:104130002D0000002B000000200000002DE9F041C0
:10414000044600251E461746880404D405E0394677
:104150002020B0476D1C641EF9D52846BDE8F081CB
:104160002DE9F041044600251E469046C80301D5BE
:10417000302700E02027880404D505E04146384672
:10418000B0476D1C641EF9D52846BDE8F0810A6869
:10419000531C0B60107070472DE9F04F0F4604461A
:1041A00090F820108FB03D0E00200DF12C0B4EF634
:1041B000187801264FF0040A99B10A9007900890E8
:1041C000099005900690814603900490009001901C
:1041D0000290002304220621204600F095FCB0B98D
:1041E00034E1E17F00297DD00A9007900890099082
:1041F00005900690814603900490009001900290F3
:10420000002301220621204600F07EFC10B1DAA036
:1042100061699BE0207F10B101284ED087E0618B5F
:1042200041452FD38DF82C50CDE90769CDE909968A
:10423000CDF80C90CDF81090CDE9059B4D46CDF80A
:104240000090CDF8049000230122C5212046CDF82E
:10425000089000F059FC10B1CFA0616976E00A9592
:10426000079508950995059506950395049500957C
:1042700001950023012206212046029500F044FC0E
:104280000028C4D1CDF82890CDF82090CDF8249006
:10429000CDF81490CDF81C90CDF80C90CDF810907E
:1042A0000321CDF818900096CDE9011901223B4673
:1042B00020211DE0C4A0616948E0618B414536D3EF
:1042C000CDF82090CDF82490CDF828900122CDF89B
:1042D0001C90CDF80C90CDF81090CDF814903B4682
:1042E000202100E037E0CDF818900096CDE901A933
:1042F000204600F009FC0028DCD14FF4C8774D4679
:104300000DF13408CDE908860595079506950095C9
:1043100003950495019500230122052120460A9664
:10432000029500F0F1FB28B1B0A061690EE0B7A0E2
:1043300061690BE09DF83400C0077CD00120E16882
:104340007F1E8847002FDDD16169B9A08847012011
:104350000FB0BDE8F08F06218DF82C108346009039
:10436000002301220BA9204600F060FD002888D11F
:10437000207FC7F3074AC7F30729FFB290B301288C
:10438000D5D1618B4145D2D320208DF82C008DF8FA
:104390002D508DF82EA000238DF82F908DF83070C1
:1043A0000522CDF800B00BA9204600F03FFD002803
:1043B00080D14FF4C87505278DF82C700DAB012204
:1043C0000BA92046009600F031FD0028ACD19DF8E5
:1043D0003400C00737D00120E1686D1E8847002DEA
:1043E000EAD1B1E7FFE7618B41451CD3C5208DF8C9
:1043F0002C008DF82D505D46002302220BA920468B
:10440000CDF800B000F012FD00287FF425AF0620A3
:104410008DF82C00002301220BA92046009500F006
:1044200005FD0028A3D120208DF82C008DF82DA0AB
:104430008DF82E9000E09BE000238DF82F70042271
:10444000CDF800B0AFE7002DCBD093E0207FE8B3EC
:10445000012895D1618B414595D3CDF82890CDF8B1
:104460002090CDF82490CDF81490CDF81C90CDF884
:104470000C90CDF81090CDF800A0CDF81890CDE9B3
:1044800001A93B4604222021204600F03DFB0028E4
:104490008ED1B0464FF4C8774D460DAE07A8002325
:1044A00080E86005059506950395049500950195AE
:1044B000042205212046029500F026FB002885D124
:1044C0009DF83400C00753D0012000E005E0E1680A
:1044D0007F1E8847002FE1D136E7618B41452FD3FE
:1044E0008DF82C50CDE90769CDE9099ACDF80C90EB
:1044F000CDF81090CDE9059B4D46CDF80090CDF854
:10450000049000230422C5212046CDF8089000F035
:10451000FBFA00287FF4A0AE0A9507950895099547
:1045200005950695039504950095019500230422B1
:1045300006212046029500F0E7FA00287FF467AED6
:10454000CDF82890CDF82090CDF82490CDF8149097
:104550000321CDF81C90CDF80C90CDF81090CDF83B
:1045600000A0CDF81890CDE901193B4604228AE756
:10457000002FB1D00020EBE67732357178783A2001
:10458000777269746520656E61626C652066616929
:104590006C65642E0A0000007732357178783A2015
:1045A000777269746520657874656E6465642061EE
:1045B00064647220726567697374657220666169EC
:1045C0006C65642E0A0000007732357178783A20E5
:1045D000736563746F7220657261736520346B203C
:1045E0006661696C65642E0A0000000077323571DF
:1045F00078783A206765742073746174757331201C
:104600006661696C65642E0A0000000077323571BE
:1046100078783A2061646472657373206D6F6465A5
:1046200020697320696E76616C69642E0A0000004F
:104630007732357178783A20736563746F722065CC
:104640007261736520346B2074696D656F75742EAB
:104650000A0000002DE9F04F8946044690F820102A
:1046600000208DB01F4690464EF6187A4FEA196525
:10467000012699B10A90079008900990059006903C
:10468000834603900490009001900290002304223E
:104690000621204600F038FAB0B938E1E17F002960
:1046A0007CD00A9007900890099005900690834668
:1046B00003900490009001900290002301220621B3
:1046C000204600F021FA10B1DAA06169D4E0207F21
:1046D00010B1012842D082E0618B514530D38DF872
:1046E0002C50CDE9076BCDE909B60BA8CDF80CB07D
:1046F000CDF810B0CDE905B05D46CDF800B0CDF8ED
:1047000004B000230122C5212046CDF808B000F0F6
:10471000FBF910B1CFA06169AEE00A950795089545
:104720000995059506950395049500950195002337
:10473000012206212046029500F0E6F90028C3D1A7
:10474000CDE9077BCDE909B65846CDF80CB0032179
:10475000CDF810B00FE0CBA061698DE0618B5145C1
:104760003DD3CDE9077BCDE909B65846CDF80CB06D
:104770000421CDF810B00096CDE90508CDE901106F
:104780004B4601220221204600F0BEF90028E2D16A
:104790004FF496775D460DF1300800E022E0CDE958
:1047A000088605950795069500950395049501954E
:1047B00000230122052120460A96029500F0A4F963
:1047C0000028C8D19DF83000C0077CD00A2021699C
:1047D0007F1E8847002FE0D1B2A061694CE0B9A0EC
:1047E000616949E0002006218DF82C1003460090F5
:1047F00001220BA9204600F019FB00289FD1C9F324
:104800000740217F0290C9F3072B04F1210009F032
:10481000FF090190A9B30129E1D1618B5145DED394
:10482000022084F8210084F82250029884F82300A2
:1048300084F824B084F825903A46414604F12600D5
:10484000FBF782FC002003467A1D00902046019968
:1048500000F0ECFA00289AD14FF496755FF0050746
:104860008DF82C700CAB01220BA92046009600F0AD
:10487000DDFA48B361699CA0884701200DB0BDE80E
:10488000F08FFFE7618B51451BD3C5208DF82C00BD
:104890008DF82D5000252B4602220BA920460095AD
:1048A00000F0C4FA00287FF435AF06208DF82C0004
:1048B000002301220BA92046009500F0B7FA00283A
:1048C0009CD1022001E0B0E013E084F821000298BE
:1048D00084F8220084F823B084F824903A464146B4
:1048E00004F12500FBF730FC002003463A1D009040
:1048F000ACE79DF83000C00706D00A2021696D1E84
:104900008847002DACD167E7002DFCD08FE0207FD9
:10491000F0B301287FF4DFAE618B5145FFF4DBAECD
:10492000CDE9077B0421CDE909B1CDF80CB0CDF874
:1049300010B00091CDE905B8CDE9011B4B460A4600
:104940000221204600F0E0F8002884D1B1464FF45F
:1049500096775D464FF004080CAE07A8CDF8288086
:1049600080E86002059506950395049500950195EC
:104970000023042205212046029500F0C5F80028F6
:10498000E3D19DF83000C0074FD00A207F1E00E021
:1049900004E021698847002FDFD11DE7618B514575
:1049A00031D38DF82C50CDE9076B0420CDE909B047
:1049B0000BA8CDF80CB0CDF810B0CDE905B05D4630
:1049C000CDF800B0CDF804B000230422C521204664
:1049D000CDF808B000F098F800287FF49BAE0A9557
:1049E00007950895099505950695039504950095F5
:1049F00001950023042206212046029500F084F848
:104A000000287FF461AECDE9077B0421CDE909B12F
:104A1000CDF80CB0CDF810B00091CDE905B8032267
:104A2000CDE9012B4B460A468AE7002FB5D000207E
:104A300024E700007732357178783A20777269740C
:104A40006520656E61626C65206661696C65642EC7
:104A50000A0000007732357178783A2077726974ED
:104A60006520657874656E64656420616464722095
:104A70007265676973746572206661696C65642E1E
:104A80000A0000007732357178783A2070616765E6
:104A90002070726F6772616D206661696C65642E4B
:104AA0000A0000007732357178783A2070616765C6
:104AB0002070726F6772616D2074696D656F7574B7
:104AC0002E0A00007732357178783A20616464727A
:104AD000657373206D6F646520697320696E7661FC
:104AE0006C69642E0A0000007732357178783A20BC
:104AF0006765742073746174757331206661696CC5
:104B000065642E0A000000002DE9FF4F8BB09B4624
:104B10009646DDE9217CDDE91F56DDE91D34DDE93E
:104B20001B12DDE91998CDE90098CDE90212DDF8F4
:104B300060A0CDE90434CDE90656CDE9087C84684F
:104B400053465A4671460C98A047002800D00120D1
:104B50000FB0BDE8F08F00002DE9F04F91460446FC
:104B600090F820200F0E8DB088461E464EF6187025
:104B70004FF0010A00254FF0040B2AB1217F0029D4
:104B80007ED001297DD05EE0E17F0029217F61D0C8
:104B900011B1012941D056E0618B81422CD30A9595
:104BA0000795089509950595069503950495009533
:104BB000019500230122062120460295FFF7A4FF5C
:104BC00010B176A0616940E08DF82C70CDE907A5A1
:104BD000CDE9095A0BA803950495CDE90550009538
:104BE000019500230122C52120460295FFF78CFF85
:104BF00010B172A0616928E0CDE907590821CDE91B
:104C0000045103950695CDE9096A032150464346B0
:104C10000122AAE075A0616917E0618B814212D37D
:104C2000CDE907590821CDE9045103950695CDE951
:104C3000093A012243460B210295CDE900AB2046FB
:104C4000FFF762FF29E061696FA0884701200DB07E
:104C5000BDE8F08FC8F3074BC8F3072A08F0FF0838
:104C6000F1B10129EFD1618B8142ECD30B208DF89A
:104C70002C008DF82D708DF82EB08DF82FA001E04E
:104C80003AE076E08DF8308000938DF831504B4655
:104C900006220BA9204600F0C9F80028BAD1D6E7B1
:104CA000618B814219D306208DF82C00002301224C
:104CB0000BA92046009500F0B9F8002881D1C52045
:104CC0008DF82C008DF82D70002302220BA92046B0
:104CD000009500F0ABF800288BD10B208DF82C004C
:104CE0008DF82DB08DF82EA08DF82F808DF83050D6
:104CF0004B4605220096CCE7618B814228D30A956A
:104D000007950895099505950695039504950095D1
:104D1000019500230422062120460295FFF7F4FEA8
:104D20000028CBD18DF82C70CDE907A5CDE9095B22
:104D30000BA803950495CDE9055000950195002336
:104D40000422C52120460295FFF7DEFE0028C3D1CC
:104D5000CDE9096BCDE90759A17F5846CDE904514A
:104D6000032103954346042206958DE823000B2179
:104D700065E7618B8142FFF406AFCDE9093BCDE9E0
:104D80000759A17F0395CDE90451CDF800B00695F0
:104D9000CDE901B5042243460B2150E77732357146
:104DA00078783A20777269746520656E61626C6507
:104DB000206661696C65642E0A00000077323571E7
:104DC00078783A20777269746520657874656E64C6
:104DD00065642061646472207265676973746572CA
:104DE000206661696C65642E0A00000077323571B7
:104DF00078783A2066617374207265616420666118
:104E0000696C65642E0A00007732357178783A2033
:104E100061646472657373206D6F646520697320CB
:104E2000696E76616C69642E0A00000030B58BB043
:104E30000DF1180C01250E9C8CE83C000022CDE9F8
:104E40000421029203920092019284681346114653
:104E50001046A047002800D001200BB030BD000054
:104E60002DE9F0478146C8B2C0F580741D469046D2
:104E70000E46A34200D8ACB24FF480772346424698
:104E800031464846FFF7E6FB30B1D9F8141009A0C7
:104E900088470120BDE8F087A54208D02D1BA0441B
:104EA0002644BD4201D93C46E8E7ACB2E6E7002023
:104EB000F0E700007732357178783A2070616765E5
:104EC0002070726F6772616D206661696C65642E17
:104ED0000A00000010B508A0FEF7D2FC134807F046
:104EE000E5FC20B112A0FEF7CBFC012010BD17A0FD
:104EF000FEF7C6FC002010BD7732357178783A2075
:104F0000636869702065726173652073746172747F
:104F100020286D61792074616B6520757020746F35
:104F20002031303073292E2E2E0A00005008002028
:104F30007732357178783A206368697020657261DC
:104F40007365206661696C65642E0A00773235717D
:104F500078783A20636869702065726173652064AF
:104F60006F6E652E0A0000002DE9F041044600290D
:104F70003ED065184FF08072954234D929461DA065
:104F8000FEF77EFC0120BDE8F081281B2104090CFE
:104F90000CD1B0420AD32146234807F005FA10B1DC
:104FA000214622A018E004F580341FE061040CD1F2
:104FB000B8420AD321461C4806F072FF10B12146C0
:104FC00025A009E004F5004410E02146164808F049
:104FD000E9FA28B121462BA0FEF752FC0220D2E7C5
:104FE00004F5805402E04FF480367710AC42CCD305
:104FF0000020C8E77732357178783A20657261739E
:10500000652072616E6765206F766572666C6F777A
:105010002028307825303858203E20307825303808
:1050200058292E0A00000000500800207732357100
:1050300078783A20626C6F636B20657261736520CB
:1050400036346B206661696C656420617420307849
:10505000253038582E0A00007732357178783A209A
:10506000626C6F636B2065726173652033326B20F5
:105070006661696C65642061742030782530385829
:105080002E0A00007732357178783A2073656374A0
:105090006F7220657261736520346B206661696C84
:1050A0006564206174203078253038582E0A00005D
:1050B00000214EF617700A4606F050BE13460A4607
:1050C0000146014808F0F8B85008002013460A4687
:1050D0000146014808F0CABD50080020F8B54FF459
:1050E000D8563046FEF7FEFA054603213046FEF755
:1050F0005FFB0E4B41F28830DC1F009011220CA1A7
:10510000A07806F059FC074629463046FEF750FBCA
:105110000D3708D006F09CF9E069E169091A022907
:10512000FBD30020F8BD0120F8BD00005F00002087
:10513000434845434B5F49505F434F4E464C4943BC
:105140005400000070B51A4C0125204694F9011056
:10515000002690F90000022917DAD4E907219142CC
:1051600023D2012804D0022805D0042805D102E06A
:1051700006F0EEF901E006F0D7FAE661E0690A30E0
:1051800020626078401C60700FE0012804D0022883
:1051900005D0042807D102E02670002503E006F0C0
:1051A000D7F90120207006F0BBF8284670BD00003A
:1051B0005800002070B50446082802D94FF0FF308F
:1051C00070BD4FF4847000EB441005461021FEF7CB
:1051D000EFFA2846FEF786FA0028FAD14FF402705B
:1051E00000EB44101F21FEF7E3FA0D490120A04017
:1051F0004A8882434A808A8882438A8009490020FB
:1052000021F814000649891D08554FF4427000EB3F
:1052100044142046FEF766FA0028FAD1012070BD3A
:1052200014000020781900202DE9F0410C460021DF
:1052300002464F1E08464FF498554FF4A056102AC8
:1052400063D2DFE802F0080B17131A1E222C364532
:10525000484C5950555C09F01AF84DE014B12046FD
:1052600004F10801BDE8F04108F0E8BE208808F02C
:105270006DFE41E008F098FE05E0208808F0C8FFC8
:105280003AE008F0A0FE208036E02088010A284697
:10529000FEF78EFA21783046FEF78AFA2CE0304687
:1052A000FEF720FA06462846FEF71CFA06EB002019
:1052B000E9E7174882782270C27862700279A2709A
:1052C0004279E27082792271C0796071A17113E034
:1052D00009F06FF810E0204609F080F80CE0204655
:1052E00009F028F808E02078BDE8F04109F09BB803
:1052F00009F052F805E020700020BDE8F08109F0C7
:1053000040F8C0B241B2491CF5D13846F5E700007B
:105310002C00002010B5042209494FF47060FEF7FC
:1053200077FA0749042208314FF4A060FEF770FABB
:1053300003490422091DBDE810409001FEF768BA38
:105340005F00002010B580210020FEF731FA002018
:10535000FEF7C8F9BDE81040062202494FF410607C
:10536000FEF756BA9800002010B580210020FEF705
:105370001FFA0020FEF7B6F9FFF7CCFFBDE810409A
:10538000062202494FF41060FEF742BA980000204E
:10539000FCF718BA70B50446082802D94FF0FF3060
:1053A00070BD600101250830FEF79CF900F00F0088
:1053B000012801D0A81F70BD4FF4847000EB441089
:1053C00006460821FEF7F4F93046FEF78BF900286F
:1053D000FAD11248A5408188A943818040880542BE
:1053E0000CD0002070BD3046FEF77CF900070DD5CB
:1053F0002046FFF7DFFE6FF00C0070BD4FF4027027
:1054000000EB44164FF4427000EB44152846FEF7BB
:1054100069F90028E7D1012070BD000014000020C8
:105420001B4A00B5104485B0B0F1006F28D3194B6A
:1054300042189A4224D819B372B6002204920092FC
:10544000A0F100600192820A0844401E92026FF3AC
:10545000090000F1006002F10062801A012101EBF5
:105460009020CDE90220FCF7A9F80B493520C8604F
:1054700004A96846FCF704F828B1FCF755F862B6B1
:10548000012005B000BDFCF74FF862B60020F8E738
:105490000044000800000108002002400B460A49B1
:1054A00010B50144B1F1006F0BD3084C8818A0422D
:1054B00007D832B172B61846FAF746FE62B6002037
:1054C00010BD012010BD00000044000800000108CC
:1054D0002DE9F041184BC418B4F1006F13D3174BEA
:1054E000A01898420FD872B144EA0200C0070AD14E
:1054F00049B172B60E465708FCF760F810493420DF
:10550000C860002510E00120BDE8F08136F81520C4
:10551000002321460120FCF711F818B1FCF704F82C
:1055200062B6F0E7A41C6D1CBD42EFD3FBF7FCFF95
:1055300062B60020E8E7000000440008000001080F
:105540000020024013B54FF0FF33012269460248A4
:10555000FDF77CFB00981CBD1807002010B5002843
:1055600021D0114B0022001F196803E0814203D8AB
:105570000A4649680029F9D152B11368841A9C423D
:1055800004D1006818441060104602E0506000E04A
:10559000186039B102680B1A934203D10B681A44A0
:1055A00002604968416010BD1804002004490A786F
:1055B00002704A7842708A788270C978C1707047E8
:1055C0006B00002004490A7802704A7842708A7899
:1055D0008270C978C17070476300002004490A785E
:1055E00002704A7842708A788270C978C1707047B8
:1055F0005F00002004490A7802704A7842708A7875
:105600008270C978C1707047670000202DE9F041B1
:1056100042F2086101EB401542F20871002601EBED
:1056200040142846FEF75EF807462046FEF75AF873
:1056300000EB072007043F0C09D02846FEF752F87C
:1056400006462046FEF74EF800EB062086B2BE4224
:10565000E7D13046BDE8F0812DE9F04142F2080182
:1056600001EB401542F20811002601EB40142846D8
:10567000FEF738F807462046FEF734F800EB07201F
:1056800007043F0C09D02846FEF72CF806462046B2
:10569000FEF728F800EB062086B2BE42E7D130467E
:1056A000BDE8F081B0FBF1F201FB1201401A704736
:1056B0000844421EB2FBF1F301FB1321401A401EC5
:1056C00070470000F8B50E4604460125A16D2CE098
:1056D000626E00F0070302EBD00205FA03F31278C2
:1056E0001A421DD1E16D606D0844E16EB0FBF1F22C
:1056F00001FB12003060A16DE06D401CE065226E80
:10570000521E2266884209D2626E02EBD00200F07D
:105710000700127805FA00F00242EDD10020F8BD32
:10572000401CE065206E401E2066E06D8842CFD3AD
:10573000206E28B1204600F055F80028C6D0F8BDEC
:10574000E16D606D0844E16EB0FBF1F201FB120304
:1057500005A0009040F2BE2204A109A0FEF790F837
:105760006FF01B00F8BD0000000000002E2E5C4210
:1057700053505C6C66735C6C66732E6300000000B3
:1057800025733A25643A6572726F723A204E6F2023
:105790006D6F726520667265652073706163652048
:1057A0003078257825730A0000218165C165C16EB6
:1057B00001667047426D8A1AC16E0A44B2FBF1F36A
:1057C00001FB1321826D8A4209D9406E01F0070363
:1057D00000EBD1020121107899400843107000209D
:1057E0007047000070B50446406DE16D0844E16EFD
:1057F000B0FBF1F201FB120060650020E065A06ED5
:10580000216EC06AC00003F00FFCA065A06EC16AE3
:10581000606EFAF7B2FC224601230649104603F0F7
:1058200069FA050004D02046FFF7BEFF284670BD88
:10583000002070BDB55700082DE9FF4F87B098468E
:10584000DDE91667DDE914A99346002423E03D1B3A
:10585000082D00D3082501A904AA09EB0400CDF8FE
:1058600000A081E82500DDE90701A8EB04035A4602
:1058700000F0CAF8002808D131192A4604A8FAF71E
:10588000B8FC38B1002803DA01200BB0BDE8F08F76
:105890000220FAE72C44BC42D9D30020F5E72DE9D9
:1058A000FF4F87B09846DDE91667DDE914A99346F6
:1058B00000241BE0351B082D00D3082501A904AAEC
:1058C00009EB0400CDF800A081E82500DDE907011F
:1058D000A8EB04035A4600F097F8002809D12A469D
:1058E00004A9386800F0DAF92C443860B442E1D3F6
:1058F00000200BB0BDE8F08F806EC26810472DE924
:10590000FF41064608680C461F469046411C2ED0B3
:10591000801C2CD0B06E8169A068FFF7C9FE009092
:105920000546B06ED4E90012D0F808C0E368E0473D
:10593000002815D1BFB1411EC8F80010D4E90012EB
:10594000E068CDE90012CDE902052B464246002170
:105950003046FFF771FF002802DB04D06FF05300E0
:1059600004B0BDE8F0812146304600F0F4F8002094
:10597000F6E72DE9FF5F8146DDE90F509B460C46B7
:1059800080460E9F119E3BE02068B8422ED1606891
:10599000A8422BD8D9F86810896A4218AA4225D99A
:1059A0002A1A881AB04200D930468246E068414639
:1059B00010445246FAF7C8FBD4E901015544281AAD
:1059C000D044A6EB0A06814200D90846A060D9F867
:1059D0006810896A884213D15B4621464846029A7C
:1059E000FFF78DFF60B104B0BDE8F09F2760D9F8E4
:1059F000680081692846FFF755FE60600020A060BE
:105A0000002EC1D10020EEE72DE9FC5F0746806E35
:105A1000DDE90EA4DDE90C858946C06929199B469C
:105A20001646814204D8F86E00283BD040457ED807
:105A30006FF05300BDE8FC9F2046B9F1000F17D06E
:105A4000D9F80020424513D1D9E901128B18AB4295
:105A50000ED9A94208D86B1AD11A814200D808463B
:105A60000090D9F80C0014E0491B814200D8084688
:105A7000316841451BD1D6E901128B18AB4216D9CA
:105A8000A94210D86B1AD11A814200D8084600905A
:105A9000F068009AC1185046FAF756FB0098824405
:105AA0000544241A43E0491B814200D808465C455E
:105AB0001AD3B96E4969B5FBF1F201FB12529AB9DA
:105AC000A14211D8FFF7EEFD01900090B86E534649
:105AD0002A46D0F804C04146E0470028AAD10199DF
